{
  "_format": "hh-sol-artifact-1",
  "contractName": "EliEllaCoin",
  "sourceName": "contracts/EliEllaCoin.sol",
  "abi": [
    {
      "inputs": [
        {
          "internalType": "address",
          "name": "initialOwner",
          "type": "address"
        }
      ],
      "stateMutability": "nonpayable",
      "type": "constructor"
    },
    {
      "inputs": [
        {
          "internalType": "address",
          "name": "spender",
          "type": "address"
        },
        {
          "internalType": "uint256",
          "name": "allowance",
          "type": "uint256"
        },
        {
          "internalType": "uint256",
          "name": "needed",
          "type": "uint256"
        }
      ],
      "name": "ERC20InsufficientAllowance",
      "type": "error"
    },
    {
      "inputs": [
        {
          "internalType": "address",
          "name": "sender",
          "type": "address"
        },
        {
          "internalType": "uint256",
          "name": "balance",
          "type": "uint256"
        },
        {
          "internalType": "uint256",
          "name": "needed",
          "type": "uint256"
        }
      ],
      "name": "ERC20InsufficientBalance",
      "type": "error"
    },
    {
      "inputs": [
        {
          "internalType": "address",
          "name": "approver",
          "type": "address"
        }
      ],
      "name": "ERC20InvalidApprover",
      "type": "error"
    },
    {
      "inputs": [
        {
          "internalType": "address",
          "name": "receiver",
          "type": "address"
        }
      ],
      "name": "ERC20InvalidReceiver",
      "type": "error"
    },
    {
      "inputs": [
        {
          "internalType": "address",
          "name": "sender",
          "type": "address"
        }
      ],
      "name": "ERC20InvalidSender",
      "type": "error"
    },
    {
      "inputs": [
        {
          "internalType": "address",
          "name": "spender",
          "type": "address"
        }
      ],
      "name": "ERC20InvalidSpender",
      "type": "error"
    },
    {
      "inputs": [],
      "name": "EnforcedPause",
      "type": "error"
    },
    {
      "inputs": [],
      "name": "ExpectedPause",
      "type": "error"
    },
    {
      "inputs": [
        {
          "internalType": "address",
          "name": "owner",
          "type": "address"
        }
      ],
      "name": "OwnableInvalidOwner",
      "type": "error"
    },
    {
      "inputs": [
        {
          "internalType": "address",
          "name": "account",
          "type": "address"
        }
      ],
      "name": "OwnableUnauthorizedAccount",
      "type": "error"
    },
    {
      "anonymous": false,
      "inputs": [
        {
          "indexed": true,
          "internalType": "address",
          "name": "owner",
          "type": "address"
        },
        {
          "indexed": true,
          "internalType": "address",
          "name": "spender",
          "type": "address"
        },
        {
          "indexed": false,
          "internalType": "uint256",
          "name": "value",
          "type": "uint256"
        }
      ],
      "name": "Approval",
      "type": "event"
    },
    {
      "anonymous": false,
      "inputs": [
        {
          "indexed": true,
          "internalType": "address",
          "name": "previousOwner",
          "type": "address"
        },
        {
          "indexed": true,
          "internalType": "address",
          "name": "newOwner",
          "type": "address"
        }
      ],
      "name": "OwnershipTransferred",
      "type": "event"
    },
    {
      "anonymous": false,
      "inputs": [
        {
          "indexed": false,
          "internalType": "address",
          "name": "account",
          "type": "address"
        }
      ],
      "name": "Paused",
      "type": "event"
    },
    {
      "anonymous": false,
      "inputs": [
        {
          "indexed": true,
          "internalType": "address",
          "name": "to",
          "type": "address"
        },
        {
          "indexed": false,
          "internalType": "uint256",
          "name": "amount",
          "type": "uint256"
        }
      ],
      "name": "TokensMinted",
      "type": "event"
    },
    {
      "anonymous": false,
      "inputs": [],
      "name": "TokensPaused",
      "type": "event"
    },
    {
      "anonymous": false,
      "inputs": [],
      "name": "TokensUnpaused",
      "type": "event"
    },
    {
      "anonymous": false,
      "inputs": [
        {
          "indexed": true,
          "internalType": "address",
          "name": "from",
          "type": "address"
        },
        {
          "indexed": true,
          "internalType": "address",
          "name": "to",
          "type": "address"
        },
        {
          "indexed": false,
          "internalType": "uint256",
          "name": "value",
          "type": "uint256"
        }
      ],
      "name": "Transfer",
      "type": "event"
    },
    {
      "anonymous": false,
      "inputs": [
        {
          "indexed": false,
          "internalType": "address",
          "name": "account",
          "type": "address"
        }
      ],
      "name": "Unpaused",
      "type": "event"
    },
    {
      "inputs": [
        {
          "internalType": "address",
          "name": "owner",
          "type": "address"
        },
        {
          "internalType": "address",
          "name": "spender",
          "type": "address"
        }
      ],
      "name": "allowance",
      "outputs": [
        {
          "internalType": "uint256",
          "name": "",
          "type": "uint256"
        }
      ],
      "stateMutability": "view",
      "type": "function"
    },
    {
      "inputs": [
        {
          "internalType": "address",
          "name": "spender",
          "type": "address"
        },
        {
          "internalType": "uint256",
          "name": "value",
          "type": "uint256"
        }
      ],
      "name": "approve",
      "outputs": [
        {
          "internalType": "bool",
          "name": "",
          "type": "bool"
        }
      ],
      "stateMutability": "nonpayable",
      "type": "function"
    },
    {
      "inputs": [
        {
          "internalType": "address",
          "name": "account",
          "type": "address"
        }
      ],
      "name": "balanceOf",
      "outputs": [
        {
          "internalType": "uint256",
          "name": "",
          "type": "uint256"
        }
      ],
      "stateMutability": "view",
      "type": "function"
    },
    {
      "inputs": [],
      "name": "decimals",
      "outputs": [
        {
          "internalType": "uint8",
          "name": "",
          "type": "uint8"
        }
      ],
      "stateMutability": "view",
      "type": "function"
    },
    {
      "inputs": [
        {
          "internalType": "address",
          "name": "to",
          "type": "address"
        },
        {
          "internalType": "uint256",
          "name": "amount",
          "type": "uint256"
        }
      ],
      "name": "mint",
      "outputs": [],
      "stateMutability": "nonpayable",
      "type": "function"
    },
    {
      "inputs": [],
      "name": "name",
      "outputs": [
        {
          "internalType": "string",
          "name": "",
          "type": "string"
        }
      ],
      "stateMutability": "view",
      "type": "function"
    },
    {
      "inputs": [],
      "name": "owner",
      "outputs": [
        {
          "internalType": "address",
          "name": "",
          "type": "address"
        }
      ],
      "stateMutability": "view",
      "type": "function"
    },
    {
      "inputs": [],
      "name": "pause",
      "outputs": [],
      "stateMutability": "nonpayable",
      "type": "function"
    },
    {
      "inputs": [],
      "name": "paused",
      "outputs": [
        {
          "internalType": "bool",
          "name": "",
          "type": "bool"
        }
      ],
      "stateMutability": "view",
      "type": "function"
    },
    {
      "inputs": [],
      "name": "renounceOwnership",
      "outputs": [],
      "stateMutability": "nonpayable",
      "type": "function"
    },
    {
      "inputs": [],
      "name": "symbol",
      "outputs": [
        {
          "internalType": "string",
          "name": "",
          "type": "string"
        }
      ],
      "stateMutability": "view",
      "type": "function"
    },
    {
      "inputs": [],
      "name": "totalSupply",
      "outputs": [
        {
          "internalType": "uint256",
          "name": "",
          "type": "uint256"
        }
      ],
      "stateMutability": "view",
      "type": "function"
    },
    {
      "inputs": [
        {
          "internalType": "address",
          "name": "to",
          "type": "address"
        },
        {
          "internalType": "uint256",
          "name": "value",
          "type": "uint256"
        }
      ],
      "name": "transfer",
      "outputs": [
        {
          "internalType": "bool",
          "name": "",
          "type": "bool"
        }
      ],
      "stateMutability": "nonpayable",
      "type": "function"
    },
    {
      "inputs": [
        {
          "internalType": "address",
          "name": "from",
          "type": "address"
        },
        {
          "internalType": "address",
          "name": "to",
          "type": "address"
        },
        {
          "internalType": "uint256",
          "name": "value",
          "type": "uint256"
        }
      ],
      "name": "transferFrom",
      "outputs": [
        {
          "internalType": "bool",
          "name": "",
          "type": "bool"
        }
      ],
      "stateMutability": "nonpayable",
      "type": "function"
    },
    {
      "inputs": [
        {
          "internalType": "address",
          "name": "newOwner",
          "type": "address"
        }
      ],
      "name": "transferOwnership",
      "outputs": [],
      "stateMutability": "nonpayable",
      "type": "function"
    },
    {
      "inputs": [],
      "name": "unpause",
      "outputs": [],
      "stateMutability": "nonpayable",
      "type": "function"
    }
  ],
  "bytecode": "0x60806040523480156200001157600080fd5b506040516200213838038062002138833981810160405281019062000037919062000648565b806040518060400160405280600b81526020017f456c69456c6c61436f696e0000000000000000000000000000000000000000008152506040518060400160405280600381526020017f45454300000000000000000000000000000000000000000000000000000000008152508160039081620000b59190620008f4565b508060049081620000c79190620008f4565b5050506000600560006101000a81548160ff021916908315150217905550600073ffffffffffffffffffffffffffffffffffffffff168173ffffffffffffffffffffffffffffffffffffffff16036200015a5760006040517f1e4fbdf7000000000000000000000000000000000000000000000000000000008152600401620001519190620009ec565b60405180910390fd5b6200016b81620001b160201b60201c565b50620001aa33620001816200027760201b60201c565b600a6200018f919062000b99565b6127106200019e919062000bea565b6200028060201b60201c565b5062000cdb565b6000600560019054906101000a900473ffffffffffffffffffffffffffffffffffffffff16905081600560016101000a81548173ffffffffffffffffffffffffffffffffffffffff021916908373ffffffffffffffffffffffffffffffffffffffff1602179055508173ffffffffffffffffffffffffffffffffffffffff168173ffffffffffffffffffffffffffffffffffffffff167f8be0079c531659141344cd1fd0a4f28419497f9722a3daafe3b4186f6b6457e060405160405180910390a35050565b60006012905090565b600073ffffffffffffffffffffffffffffffffffffffff168273ffffffffffffffffffffffffffffffffffffffff1603620002f55760006040517fec442f05000000000000000000000000000000000000000000000000000000008152600401620002ec9190620009ec565b60405180910390fd5b62000309600083836200030d60201b60201c565b5050565b620003208383836200032560201b60201c565b505050565b620003356200034d60201b60201c565b620003488383836200039760201b60201c565b505050565b6200035d620005c760201b60201c565b1562000395576040517fd93c066500000000000000000000000000000000000000000000000000000000815260040160405180910390fd5b565b600073ffffffffffffffffffffffffffffffffffffffff168373ffffffffffffffffffffffffffffffffffffffff1603620003ed578060026000828254620003e0919062000c35565b92505081905550620004c3565b60008060008573ffffffffffffffffffffffffffffffffffffffff1673ffffffffffffffffffffffffffffffffffffffff168152602001908152602001600020549050818110156200047c578381836040517fe450d38c000000000000000000000000000000000000000000000000000000008152600401620004739392919062000c81565b60405180910390fd5b8181036000808673ffffffffffffffffffffffffffffffffffffffff1673ffffffffffffffffffffffffffffffffffffffff16815260200190815260200160002081905550505b600073ffffffffffffffffffffffffffffffffffffffff168273ffffffffffffffffffffffffffffffffffffffff16036200050e57806002600082825403925050819055506200055b565b806000808473ffffffffffffffffffffffffffffffffffffffff1673ffffffffffffffffffffffffffffffffffffffff168152602001908152602001600020600082825401925050819055505b8173ffffffffffffffffffffffffffffffffffffffff168373ffffffffffffffffffffffffffffffffffffffff167fddf252ad1be2c89b69c2b068fc378daa952ba7f163c4a11628f55a4df523b3ef83604051620005ba919062000cbe565b60405180910390a3505050565b6000600560009054906101000a900460ff16905090565b600080fd5b600073ffffffffffffffffffffffffffffffffffffffff82169050919050565b60006200061082620005e3565b9050919050565b620006228162000603565b81146200062e57600080fd5b50565b600081519050620006428162000617565b92915050565b600060208284031215620006615762000660620005de565b5b6000620006718482850162000631565b91505092915050565b600081519050919050565b7f4e487b7100000000000000000000000000000000000000000000000000000000600052604160045260246000fd5b7f4e487b7100000000000000000000000000000000000000000000000000000000600052602260045260246000fd5b60006002820490506001821680620006fc57607f821691505b602082108103620007125762000711620006b4565b5b50919050565b60008190508160005260206000209050919050565b60006020601f8301049050919050565b600082821b905092915050565b6000600883026200077c7fffffffffffffffffffffffffffffffffffffffffffffffffffffffffffffffff826200073d565b6200078886836200073d565b95508019841693508086168417925050509392505050565b6000819050919050565b6000819050919050565b6000620007d5620007cf620007c984620007a0565b620007aa565b620007a0565b9050919050565b6000819050919050565b620007f183620007b4565b620008096200080082620007dc565b8484546200074a565b825550505050565b600090565b6200082062000811565b6200082d818484620007e6565b505050565b5b8181101562000855576200084960008262000816565b60018101905062000833565b5050565b601f821115620008a4576200086e8162000718565b62000879846200072d565b8101602085101562000889578190505b620008a162000898856200072d565b83018262000832565b50505b505050565b600082821c905092915050565b6000620008c960001984600802620008a9565b1980831691505092915050565b6000620008e48383620008b6565b9150826002028217905092915050565b620008ff826200067a565b67ffffffffffffffff8111156200091b576200091a62000685565b5b620009278254620006e3565b6200093482828562000859565b600060209050601f8311600181146200096c576000841562000957578287015190505b620009638582620008d6565b865550620009d3565b601f1984166200097c8662000718565b60005b82811015620009a6578489015182556001820191506020850194506020810190506200097f565b86831015620009c65784890151620009c2601f891682620008b6565b8355505b6001600288020188555050505b505050505050565b620009e68162000603565b82525050565b600060208201905062000a036000830184620009db565b92915050565b7f4e487b7100000000000000000000000000000000000000000000000000000000600052601160045260246000fd5b60008160011c9050919050565b6000808291508390505b600185111562000a975780860481111562000a6f5762000a6e62000a09565b5b600185161562000a7f5780820291505b808102905062000a8f8562000a38565b945062000a4f565b94509492505050565b60008262000ab2576001905062000b85565b8162000ac2576000905062000b85565b816001811462000adb576002811462000ae65762000b1c565b600191505062000b85565b60ff84111562000afb5762000afa62000a09565b5b8360020a91508482111562000b155762000b1462000a09565b5b5062000b85565b5060208310610133831016604e8410600b841016171562000b565782820a90508381111562000b505762000b4f62000a09565b5b62000b85565b62000b65848484600162000a45565b9250905081840481111562000b7f5762000b7e62000a09565b5b81810290505b9392505050565b600060ff82169050919050565b600062000ba682620007a0565b915062000bb38362000b8c565b925062000be27fffffffffffffffffffffffffffffffffffffffffffffffffffffffffffffffff848462000aa0565b905092915050565b600062000bf782620007a0565b915062000c0483620007a0565b925082820262000c1481620007a0565b9150828204841483151762000c2e5762000c2d62000a09565b5b5092915050565b600062000c4282620007a0565b915062000c4f83620007a0565b925082820190508082111562000c6a5762000c6962000a09565b5b92915050565b62000c7b81620007a0565b82525050565b600060608201905062000c986000830186620009db565b62000ca7602083018562000c70565b62000cb6604083018462000c70565b949350505050565b600060208201905062000cd5600083018462000c70565b92915050565b61144d8062000ceb6000396000f3fe608060405234801561001057600080fd5b50600436106101005760003560e01c806370a082311161009757806395d89b411161006657806395d89b4114610265578063a9059cbb14610283578063dd62ed3e146102b3578063f2fde38b146102e357610100565b806370a0823114610203578063715018a6146102335780638456cb591461023d5780638da5cb5b1461024757610100565b8063313ce567116100d3578063313ce567146101a15780633f4ba83a146101bf57806340c10f19146101c95780635c975abb146101e557610100565b806306fdde0314610105578063095ea7b31461012357806318160ddd1461015357806323b872dd14610171575b600080fd5b61010d6102ff565b60405161011a91906110a1565b60405180910390f35b61013d6004803603810190610138919061115c565b610391565b60405161014a91906111b7565b60405180910390f35b61015b6103b4565b60405161016891906111e1565b60405180910390f35b61018b600480360381019061018691906111fc565b6103be565b60405161019891906111b7565b60405180910390f35b6101a96103ed565b6040516101b6919061126b565b60405180910390f35b6101c76103f6565b005b6101e360048036038101906101de919061115c565b610434565b005b6101ed610498565b6040516101fa91906111b7565b60405180910390f35b61021d60048036038101906102189190611286565b6104af565b60405161022a91906111e1565b60405180910390f35b61023b6104f7565b005b61024561050b565b005b61024f610549565b60405161025c91906112c2565b60405180910390f35b61026d610573565b60405161027a91906110a1565b60405180910390f35b61029d6004803603810190610298919061115c565b610605565b6040516102aa91906111b7565b60405180910390f35b6102cd60048036038101906102c891906112dd565b610628565b6040516102da91906111e1565b60405180910390f35b6102fd60048036038101906102f89190611286565b6106af565b005b60606003805461030e9061134c565b80601f016020809104026020016040519081016040528092919081815260200182805461033a9061134c565b80156103875780601f1061035c57610100808354040283529160200191610387565b820191906000526020600020905b81548152906001019060200180831161036a57829003601f168201915b5050505050905090565b60008061039c610735565b90506103a981858561073d565b600191505092915050565b6000600254905090565b6000806103c9610735565b90506103d685828561074f565b6103e18585856107e3565b60019150509392505050565b60006012905090565b6103fe6108d7565b61040661095e565b7fc8f901b8cf21a6a5cdf2f3ad433c95313deda27ee018f6f93b1029cc8840536960405160405180910390a1565b61043c6108d7565b61044682826109c1565b8173ffffffffffffffffffffffffffffffffffffffff167f3f2c9d57c068687834f0de942a9babb9e5acab57d516d3480a3c16ee165a42738260405161048c91906111e1565b60405180910390a25050565b6000600560009054906101000a900460ff16905090565b60008060008373ffffffffffffffffffffffffffffffffffffffff1673ffffffffffffffffffffffffffffffffffffffff168152602001908152602001600020549050919050565b6104ff6108d7565b6105096000610a43565b565b6105136108d7565b61051b610b09565b7fdee1c8f0f0f9036e625a3681463d8a017c07047c5f65a7e07709b1777a32489260405160405180910390a1565b6000600560019054906101000a900473ffffffffffffffffffffffffffffffffffffffff16905090565b6060600480546105829061134c565b80601f01602080910402602001604051908101604052809291908181526020018280546105ae9061134c565b80156105fb5780601f106105d0576101008083540402835291602001916105fb565b820191906000526020600020905b8154815290600101906020018083116105de57829003601f168201915b5050505050905090565b600080610610610735565b905061061d8185856107e3565b600191505092915050565b6000600160008473ffffffffffffffffffffffffffffffffffffffff1673ffffffffffffffffffffffffffffffffffffffff16815260200190815260200160002060008373ffffffffffffffffffffffffffffffffffffffff1673ffffffffffffffffffffffffffffffffffffffff16815260200190815260200160002054905092915050565b6106b76108d7565b600073ffffffffffffffffffffffffffffffffffffffff168173ffffffffffffffffffffffffffffffffffffffff16036107295760006040517f1e4fbdf700000000000000000000000000000000000000000000000000000000815260040161072091906112c2565b60405180910390fd5b61073281610a43565b50565b600033905090565b61074a8383836001610b6c565b505050565b600061075b8484610628565b90507fffffffffffffffffffffffffffffffffffffffffffffffffffffffffffffffff81146107dd57818110156107cd578281836040517ffb8f41b20000000000000000000000000000000000000000000000000000000081526004016107c49392919061137d565b60405180910390fd5b6107dc84848484036000610b6c565b5b50505050565b600073ffffffffffffffffffffffffffffffffffffffff168373ffffffffffffffffffffffffffffffffffffffff16036108555760006040517f96c6fd1e00000000000000000000000000000000000000000000000000000000815260040161084c91906112c2565b60405180910390fd5b600073ffffffffffffffffffffffffffffffffffffffff168273ffffffffffffffffffffffffffffffffffffffff16036108c75760006040517fec442f050000000000000000000000000000000000000000000000000000000081526004016108be91906112c2565b60405180910390fd5b6108d2838383610d43565b505050565b6108df610735565b73ffffffffffffffffffffffffffffffffffffffff166108fd610549565b73ffffffffffffffffffffffffffffffffffffffff161461095c57610920610735565b6040517f118cdaa700000000000000000000000000000000000000000000000000000000815260040161095391906112c2565b60405180910390fd5b565b610966610d53565b6000600560006101000a81548160ff0219169083151502179055507f5db9ee0a495bf2e6ff9c91a7834c1ba4fdd244a5e8aa4e537bd38aeae4b073aa6109aa610735565b6040516109b791906112c2565b60405180910390a1565b600073ffffffffffffffffffffffffffffffffffffffff168273ffffffffffffffffffffffffffffffffffffffff1603610a335760006040517fec442f05000000000000000000000000000000000000000000000000000000008152600401610a2a91906112c2565b60405180910390fd5b610a3f60008383610d43565b5050565b6000600560019054906101000a900473ffffffffffffffffffffffffffffffffffffffff16905081600560016101000a81548173ffffffffffffffffffffffffffffffffffffffff021916908373ffffffffffffffffffffffffffffffffffffffff1602179055508173ffffffffffffffffffffffffffffffffffffffff168173ffffffffffffffffffffffffffffffffffffffff167f8be0079c531659141344cd1fd0a4f28419497f9722a3daafe3b4186f6b6457e060405160405180910390a35050565b610b11610d93565b6001600560006101000a81548160ff0219169083151502179055507f62e78cea01bee320cd4e420270b5ea74000d11b0c9f74754ebdbfc544b05a258610b55610735565b604051610b6291906112c2565b60405180910390a1565b600073ffffffffffffffffffffffffffffffffffffffff168473ffffffffffffffffffffffffffffffffffffffff1603610bde5760006040517fe602df05000000000000000000000000000000000000000000000000000000008152600401610bd591906112c2565b60405180910390fd5b600073ffffffffffffffffffffffffffffffffffffffff168373ffffffffffffffffffffffffffffffffffffffff1603610c505760006040517f94280d62000000000000000000000000000000000000000000000000000000008152600401610c4791906112c2565b60405180910390fd5b81600160008673ffffffffffffffffffffffffffffffffffffffff1673ffffffffffffffffffffffffffffffffffffffff16815260200190815260200160002060008573ffffffffffffffffffffffffffffffffffffffff1673ffffffffffffffffffffffffffffffffffffffff168152602001908152602001600020819055508015610d3d578273ffffffffffffffffffffffffffffffffffffffff168473ffffffffffffffffffffffffffffffffffffffff167f8c5be1e5ebec7d5bd14f71427d1e84f3dd0314c0f7b2291e5b200ac8c7c3b92584604051610d3491906111e1565b60405180910390a35b50505050565b610d4e838383610dd4565b505050565b610d5b610498565b610d91576040517f8dfc202b00000000000000000000000000000000000000000000000000000000815260040160405180910390fd5b565b610d9b610498565b15610dd2576040517fd93c066500000000000000000000000000000000000000000000000000000000815260040160405180910390fd5b565b610ddc610d93565b610de7838383610dec565b505050565b600073ffffffffffffffffffffffffffffffffffffffff168373ffffffffffffffffffffffffffffffffffffffff1603610e3e578060026000828254610e3291906113e3565b92505081905550610f11565b60008060008573ffffffffffffffffffffffffffffffffffffffff1673ffffffffffffffffffffffffffffffffffffffff16815260200190815260200160002054905081811015610eca578381836040517fe450d38c000000000000000000000000000000000000000000000000000000008152600401610ec19392919061137d565b60405180910390fd5b8181036000808673ffffffffffffffffffffffffffffffffffffffff1673ffffffffffffffffffffffffffffffffffffffff16815260200190815260200160002081905550505b600073ffffffffffffffffffffffffffffffffffffffff168273ffffffffffffffffffffffffffffffffffffffff1603610f5a5780600260008282540392505081905550610fa7565b806000808473ffffffffffffffffffffffffffffffffffffffff1673ffffffffffffffffffffffffffffffffffffffff168152602001908152602001600020600082825401925050819055505b8173ffffffffffffffffffffffffffffffffffffffff168373ffffffffffffffffffffffffffffffffffffffff167fddf252ad1be2c89b69c2b068fc378daa952ba7f163c4a11628f55a4df523b3ef8360405161100491906111e1565b60405180910390a3505050565b600081519050919050565b600082825260208201905092915050565b60005b8381101561104b578082015181840152602081019050611030565b60008484015250505050565b6000601f19601f8301169050919050565b600061107382611011565b61107d818561101c565b935061108d81856020860161102d565b61109681611057565b840191505092915050565b600060208201905081810360008301526110bb8184611068565b905092915050565b600080fd5b600073ffffffffffffffffffffffffffffffffffffffff82169050919050565b60006110f3826110c8565b9050919050565b611103816110e8565b811461110e57600080fd5b50565b600081359050611120816110fa565b92915050565b6000819050919050565b61113981611126565b811461114457600080fd5b50565b60008135905061115681611130565b92915050565b60008060408385031215611173576111726110c3565b5b600061118185828601611111565b925050602061119285828601611147565b9150509250929050565b60008115159050919050565b6111b18161119c565b82525050565b60006020820190506111cc60008301846111a8565b92915050565b6111db81611126565b82525050565b60006020820190506111f660008301846111d2565b92915050565b600080600060608486031215611215576112146110c3565b5b600061122386828701611111565b935050602061123486828701611111565b925050604061124586828701611147565b9150509250925092565b600060ff82169050919050565b6112658161124f565b82525050565b6000602082019050611280600083018461125c565b92915050565b60006020828403121561129c5761129b6110c3565b5b60006112aa84828501611111565b91505092915050565b6112bc816110e8565b82525050565b60006020820190506112d760008301846112b3565b92915050565b600080604083850312156112f4576112f36110c3565b5b600061130285828601611111565b925050602061131385828601611111565b9150509250929050565b7f4e487b7100000000000000000000000000000000000000000000000000000000600052602260045260246000fd5b6000600282049050600182168061136457607f821691505b6020821081036113775761137661131d565b5b50919050565b600060608201905061139260008301866112b3565b61139f60208301856111d2565b6113ac60408301846111d2565b949350505050565b7f4e487b7100000000000000000000000000000000000000000000000000000000600052601160045260246000fd5b60006113ee82611126565b91506113f983611126565b9250828201905080821115611411576114106113b4565b5b9291505056fea26469706673582212204edbd65074202b83c2082e7de5a5454f010ced894a71e0eea4b1ec917383a04f64736f6c63430008180033",
  "linkReferences": {},
  "deployedLinkReferences": {}
}