{"contracts/EliEllaCoin.sol":{"EliEllaCoin":{"abi":[{"inputs":[{"internalType":"address","name":"initialOwner","type":"address"}],"stateMutability":"nonpayable","type":"constructor"},{"inputs":[{"internalType":"address","name":"spender","type":"address"},{"internalType":"uint256","name":"allowance","type":"uint256"},{"internalType":"uint256","name":"needed","type":"uint256"}],"name":"ERC20InsufficientAllowance","type":"error"},{"inputs":[{"internalType":"address","name":"sender","type":"address"},{"internalType":"uint256","name":"balance","type":"uint256"},{"internalType":"uint256","name":"needed","type":"uint256"}],"name":"ERC20InsufficientBalance","type":"error"},{"inputs":[{"internalType":"address","name":"approver","type":"address"}],"name":"ERC20InvalidApprover","type":"error"},{"inputs":[{"internalType":"address","name":"receiver","type":"address"}],"name":"ERC20InvalidReceiver","type":"error"},{"inputs":[{"internalType":"address","name":"sender","type":"address"}],"name":"ERC20InvalidSender","type":"error"},{"inputs":[{"internalType":"address","name":"spender","type":"address"}],"name":"ERC20InvalidSpender","type":"error"},{"inputs":[],"name":"EnforcedPause","type":"error"},{"inputs":[],"name":"ExpectedPause","type":"error"},{"inputs":[{"internalType":"address","name":"owner","type":"address"}],"name":"OwnableInvalidOwner","type":"error"},{"inputs":[{"internalType":"address","name":"account","type":"address"}],"name":"OwnableUnauthorizedAccount","type":"error"},{"anonymous":false,"inputs":[{"indexed":true,"internalType":"address","name":"owner","type":"address"},{"indexed":true,"internalType":"address","name":"spender","type":"address"},{"indexed":false,"internalType":"uint256","name":"value","type":"uint256"}],"name":"Approval","type":"event"},{"anonymous":false,"inputs":[{"indexed":true,"internalType":"address","name":"previousOwner","type":"address"},{"indexed":true,"internalType":"address","name":"newOwner","type":"address"}],"name":"OwnershipTransferred","type":"event"},{"anonymous":false,"inputs":[{"indexed":false,"internalType":"address","name":"account","type":"address"}],"name":"Paused","type":"event"},{"anonymous":false,"inputs":[{"indexed":true,"internalType":"address","name":"to","type":"address"},{"indexed":false,"internalType":"uint256","name":"amount","type":"uint256"}],"name":"TokensMinted","type":"event"},{"anonymous":false,"inputs":[],"name":"TokensPaused","type":"event"},{"anonymous":false,"inputs":[],"name":"TokensUnpaused","type":"event"},{"anonymous":false,"inputs":[{"indexed":true,"internalType":"address","name":"from","type":"address"},{"indexed":true,"internalType":"address","name":"to","type":"address"},{"indexed":false,"internalType":"uint256","name":"value","type":"uint256"}],"name":"Transfer","type":"event"},{"anonymous":false,"inputs":[{"indexed":false,"internalType":"address","name":"account","type":"address"}],"name":"Unpaused","type":"event"},{"inputs":[{"internalType":"address","name":"owner","type":"address"},{"internalType":"address","name":"spender","type":"address"}],"name":"allowance","outputs":[{"internalType":"uint256","name":"","type":"uint256"}],"stateMutability":"view","type":"function"},{"inputs":[{"internalType":"address","name":"spender","type":"address"},{"internalType":"uint256","name":"value","type":"uint256"}],"name":"approve","outputs":[{"internalType":"bool","name":"","type":"bool"}],"stateMutability":"nonpayable","type":"function"},{"inputs":[{"internalType":"address","name":"account","type":"address"}],"name":"balanceOf","outputs":[{"internalType":"uint256","name":"","type":"uint256"}],"stateMutability":"view","type":"function"},{"inputs":[],"name":"decimals","outputs":[{"internalType":"uint8","name":"","type":"uint8"}],"stateMutability":"view","type":"function"},{"inputs":[{"internalType":"address","name":"to","type":"address"},{"internalType":"uint256","name":"amount","type":"uint256"}],"name":"mint","outputs":[],"stateMutability":"nonpayable","type":"function"},{"inputs":[],"name":"name","outputs":[{"internalType":"string","name":"","type":"string"}],"stateMutability":"view","type":"function"},{"inputs":[],"name":"owner","outputs":[{"internalType":"address","name":"","type":"address"}],"stateMutability":"view","type":"function"},{"inputs":[],"name":"pause","outputs":[],"stateMutability":"nonpayable","type":"function"},{"inputs":[],"name":"paused","outputs":[{"internalType":"bool","name":"","type":"bool"}],"stateMutability":"view","type":"function"},{"inputs":[],"name":"renounceOwnership","outputs":[],"stateMutability":"nonpayable","type":"function"},{"inputs":[],"name":"symbol","outputs":[{"internalType":"string","name":"","type":"string"}],"stateMutability":"view","type":"function"},{"inputs":[],"name":"totalSupply","outputs":[{"internalType":"uint256","name":"","type":"uint256"}],"stateMutability":"view","type":"function"},{"inputs":[{"internalType":"address","name":"to","type":"address"},{"internalType":"uint256","name":"value","type":"uint256"}],"name":"transfer","outputs":[{"internalType":"bool","name":"","type":"bool"}],"stateMutability":"nonpayable","type":"function"},{"inputs":[{"internalType":"address","name":"from","type":"address"},{"internalType":"address","name":"to","type":"address"},{"internalType":"uint256","name":"value","type":"uint256"}],"name":"transferFrom","outputs":[{"internalType":"bool","name":"","type":"bool"}],"stateMutability":"nonpayable","type":"function"},{"inputs":[{"internalType":"address","name":"newOwner","type":"address"}],"name":"transferOwnership","outputs":[],"stateMutability":"nonpayable","type":"function"},{"inputs":[],"name":"unpause","outputs":[],"stateMutability":"nonpayable","type":"function"}],"evm":{"bytecode":{"linkReferences":{},"object":"60806040523480156200001157600080fd5b506040516200213838038062002138833981810160405281019062000037919062000648565b806040518060400160405280600b81526020017f456c69456c6c61436f696e0000000000000000000000000000000000000000008152506040518060400160405280600381526020017f45454300000000000000000000000000000000000000000000000000000000008152508160039081620000b59190620008f4565b508060049081620000c79190620008f4565b5050506000600560006101000a81548160ff021916908315150217905550600073ffffffffffffffffffffffffffffffffffffffff168173ffffffffffffffffffffffffffffffffffffffff16036200015a5760006040517f1e4fbdf7000000000000000000000000000000000000000000000000000000008152600401620001519190620009ec565b60405180910390fd5b6200016b81620001b160201b60201c565b50620001aa33620001816200027760201b60201c565b600a6200018f919062000b99565b6127106200019e919062000bea565b6200028060201b60201c565b5062000cdb565b6000600560019054906101000a900473ffffffffffffffffffffffffffffffffffffffff16905081600560016101000a81548173ffffffffffffffffffffffffffffffffffffffff021916908373ffffffffffffffffffffffffffffffffffffffff1602179055508173ffffffffffffffffffffffffffffffffffffffff168173ffffffffffffffffffffffffffffffffffffffff167f8be0079c531659141344cd1fd0a4f28419497f9722a3daafe3b4186f6b6457e060405160405180910390a35050565b60006012905090565b600073ffffffffffffffffffffffffffffffffffffffff168273ffffffffffffffffffffffffffffffffffffffff1603620002f55760006040517fec442f05000000000000000000000000000000000000000000000000000000008152600401620002ec9190620009ec565b60405180910390fd5b62000309600083836200030d60201b60201c565b5050565b620003208383836200032560201b60201c565b505050565b620003356200034d60201b60201c565b620003488383836200039760201b60201c565b505050565b6200035d620005c760201b60201c565b1562000395576040517fd93c066500000000000000000000000000000000000000000000000000000000815260040160405180910390fd5b565b600073ffffffffffffffffffffffffffffffffffffffff168373ffffffffffffffffffffffffffffffffffffffff1603620003ed578060026000828254620003e0919062000c35565b92505081905550620004c3565b60008060008573ffffffffffffffffffffffffffffffffffffffff1673ffffffffffffffffffffffffffffffffffffffff168152602001908152602001600020549050818110156200047c578381836040517fe450d38c000000000000000000000000000000000000000000000000000000008152600401620004739392919062000c81565b60405180910390fd5b8181036000808673ffffffffffffffffffffffffffffffffffffffff1673ffffffffffffffffffffffffffffffffffffffff16815260200190815260200160002081905550505b600073ffffffffffffffffffffffffffffffffffffffff168273ffffffffffffffffffffffffffffffffffffffff16036200050e57806002600082825403925050819055506200055b565b806000808473ffffffffffffffffffffffffffffffffffffffff1673ffffffffffffffffffffffffffffffffffffffff168152602001908152602001600020600082825401925050819055505b8173ffffffffffffffffffffffffffffffffffffffff168373ffffffffffffffffffffffffffffffffffffffff167fddf252ad1be2c89b69c2b068fc378daa952ba7f163c4a11628f55a4df523b3ef83604051620005ba919062000cbe565b60405180910390a3505050565b6000600560009054906101000a900460ff16905090565b600080fd5b600073ffffffffffffffffffffffffffffffffffffffff82169050919050565b60006200061082620005e3565b9050919050565b620006228162000603565b81146200062e57600080fd5b50565b600081519050620006428162000617565b92915050565b600060208284031215620006615762000660620005de565b5b6000620006718482850162000631565b91505092915050565b600081519050919050565b7f4e487b7100000000000000000000000000000000000000000000000000000000600052604160045260246000fd5b7f4e487b7100000000000000000000000000000000000000000000000000000000600052602260045260246000fd5b60006002820490506001821680620006fc57607f821691505b602082108103620007125762000711620006b4565b5b50919050565b60008190508160005260206000209050919050565b60006020601f8301049050919050565b600082821b905092915050565b6000600883026200077c7fffffffffffffffffffffffffffffffffffffffffffffffffffffffffffffffff826200073d565b6200078886836200073d565b95508019841693508086168417925050509392505050565b6000819050919050565b6000819050919050565b6000620007d5620007cf620007c984620007a0565b620007aa565b620007a0565b9050919050565b6000819050919050565b620007f183620007b4565b620008096200080082620007dc565b8484546200074a565b825550505050565b600090565b6200082062000811565b6200082d818484620007e6565b505050565b5b8181101562000855576200084960008262000816565b60018101905062000833565b5050565b601f821115620008a4576200086e8162000718565b62000879846200072d565b8101602085101562000889578190505b620008a162000898856200072d565b83018262000832565b50505b505050565b600082821c905092915050565b6000620008c960001984600802620008a9565b1980831691505092915050565b6000620008e48383620008b6565b9150826002028217905092915050565b620008ff826200067a565b67ffffffffffffffff8111156200091b576200091a62000685565b5b620009278254620006e3565b6200093482828562000859565b600060209050601f8311600181146200096c576000841562000957578287015190505b620009638582620008d6565b865550620009d3565b601f1984166200097c8662000718565b60005b82811015620009a6578489015182556001820191506020850194506020810190506200097f565b86831015620009c65784890151620009c2601f891682620008b6565b8355505b6001600288020188555050505b505050505050565b620009e68162000603565b82525050565b600060208201905062000a036000830184620009db565b92915050565b7f4e487b7100000000000000000000000000000000000000000000000000000000600052601160045260246000fd5b60008160011c9050919050565b6000808291508390505b600185111562000a975780860481111562000a6f5762000a6e62000a09565b5b600185161562000a7f5780820291505b808102905062000a8f8562000a38565b945062000a4f565b94509492505050565b60008262000ab2576001905062000b85565b8162000ac2576000905062000b85565b816001811462000adb576002811462000ae65762000b1c565b600191505062000b85565b60ff84111562000afb5762000afa62000a09565b5b8360020a91508482111562000b155762000b1462000a09565b5b5062000b85565b5060208310610133831016604e8410600b841016171562000b565782820a90508381111562000b505762000b4f62000a09565b5b62000b85565b62000b65848484600162000a45565b9250905081840481111562000b7f5762000b7e62000a09565b5b81810290505b9392505050565b600060ff82169050919050565b600062000ba682620007a0565b915062000bb38362000b8c565b925062000be27fffffffffffffffffffffffffffffffffffffffffffffffffffffffffffffffff848462000aa0565b905092915050565b600062000bf782620007a0565b915062000c0483620007a0565b925082820262000c1481620007a0565b9150828204841483151762000c2e5762000c2d62000a09565b5b5092915050565b600062000c4282620007a0565b915062000c4f83620007a0565b925082820190508082111562000c6a5762000c6962000a09565b5b92915050565b62000c7b81620007a0565b82525050565b600060608201905062000c986000830186620009db565b62000ca7602083018562000c70565b62000cb6604083018462000c70565b949350505050565b600060208201905062000cd5600083018462000c70565b92915050565b61144d8062000ceb6000396000f3fe608060405234801561001057600080fd5b50600436106101005760003560e01c806370a082311161009757806395d89b411161006657806395d89b4114610265578063a9059cbb14610283578063dd62ed3e146102b3578063f2fde38b146102e357610100565b806370a0823114610203578063715018a6146102335780638456cb591461023d5780638da5cb5b1461024757610100565b8063313ce567116100d3578063313ce567146101a15780633f4ba83a146101bf57806340c10f19146101c95780635c975abb146101e557610100565b806306fdde0314610105578063095ea7b31461012357806318160ddd1461015357806323b872dd14610171575b600080fd5b61010d6102ff565b60405161011a91906110a1565b60405180910390f35b61013d6004803603810190610138919061115c565b610391565b60405161014a91906111b7565b60405180910390f35b61015b6103b4565b60405161016891906111e1565b60405180910390f35b61018b600480360381019061018691906111fc565b6103be565b60405161019891906111b7565b60405180910390f35b6101a96103ed565b6040516101b6919061126b565b60405180910390f35b6101c76103f6565b005b6101e360048036038101906101de919061115c565b610434565b005b6101ed610498565b6040516101fa91906111b7565b60405180910390f35b61021d60048036038101906102189190611286565b6104af565b60405161022a91906111e1565b60405180910390f35b61023b6104f7565b005b61024561050b565b005b61024f610549565b60405161025c91906112c2565b60405180910390f35b61026d610573565b60405161027a91906110a1565b60405180910390f35b61029d6004803603810190610298919061115c565b610605565b6040516102aa91906111b7565b60405180910390f35b6102cd60048036038101906102c891906112dd565b610628565b6040516102da91906111e1565b60405180910390f35b6102fd60048036038101906102f89190611286565b6106af565b005b60606003805461030e9061134c565b80601f016020809104026020016040519081016040528092919081815260200182805461033a9061134c565b80156103875780601f1061035c57610100808354040283529160200191610387565b820191906000526020600020905b81548152906001019060200180831161036a57829003601f168201915b5050505050905090565b60008061039c610735565b90506103a981858561073d565b600191505092915050565b6000600254905090565b6000806103c9610735565b90506103d685828561074f565b6103e18585856107e3565b60019150509392505050565b60006012905090565b6103fe6108d7565b61040661095e565b7fc8f901b8cf21a6a5cdf2f3ad433c95313deda27ee018f6f93b1029cc8840536960405160405180910390a1565b61043c6108d7565b61044682826109c1565b8173ffffffffffffffffffffffffffffffffffffffff167f3f2c9d57c068687834f0de942a9babb9e5acab57d516d3480a3c16ee165a42738260405161048c91906111e1565b60405180910390a25050565b6000600560009054906101000a900460ff16905090565b60008060008373ffffffffffffffffffffffffffffffffffffffff1673ffffffffffffffffffffffffffffffffffffffff168152602001908152602001600020549050919050565b6104ff6108d7565b6105096000610a43565b565b6105136108d7565b61051b610b09565b7fdee1c8f0f0f9036e625a3681463d8a017c07047c5f65a7e07709b1777a32489260405160405180910390a1565b6000600560019054906101000a900473ffffffffffffffffffffffffffffffffffffffff16905090565b6060600480546105829061134c565b80601f01602080910402602001604051908101604052809291908181526020018280546105ae9061134c565b80156105fb5780601f106105d0576101008083540402835291602001916105fb565b820191906000526020600020905b8154815290600101906020018083116105de57829003601f168201915b5050505050905090565b600080610610610735565b905061061d8185856107e3565b600191505092915050565b6000600160008473ffffffffffffffffffffffffffffffffffffffff1673ffffffffffffffffffffffffffffffffffffffff16815260200190815260200160002060008373ffffffffffffffffffffffffffffffffffffffff1673ffffffffffffffffffffffffffffffffffffffff16815260200190815260200160002054905092915050565b6106b76108d7565b600073ffffffffffffffffffffffffffffffffffffffff168173ffffffffffffffffffffffffffffffffffffffff16036107295760006040517f1e4fbdf700000000000000000000000000000000000000000000000000000000815260040161072091906112c2565b60405180910390fd5b61073281610a43565b50565b600033905090565b61074a8383836001610b6c565b505050565b600061075b8484610628565b90507fffffffffffffffffffffffffffffffffffffffffffffffffffffffffffffffff81146107dd57818110156107cd578281836040517ffb8f41b20000000000000000000000000000000000000000000000000000000081526004016107c49392919061137d565b60405180910390fd5b6107dc84848484036000610b6c565b5b50505050565b600073ffffffffffffffffffffffffffffffffffffffff168373ffffffffffffffffffffffffffffffffffffffff16036108555760006040517f96c6fd1e00000000000000000000000000000000000000000000000000000000815260040161084c91906112c2565b60405180910390fd5b600073ffffffffffffffffffffffffffffffffffffffff168273ffffffffffffffffffffffffffffffffffffffff16036108c75760006040517fec442f050000000000000000000000000000000000000000000000000000000081526004016108be91906112c2565b60405180910390fd5b6108d2838383610d43565b505050565b6108df610735565b73ffffffffffffffffffffffffffffffffffffffff166108fd610549565b73ffffffffffffffffffffffffffffffffffffffff161461095c57610920610735565b6040517f118cdaa700000000000000000000000000000000000000000000000000000000815260040161095391906112c2565b60405180910390fd5b565b610966610d53565b6000600560006101000a81548160ff0219169083151502179055507f5db9ee0a495bf2e6ff9c91a7834c1ba4fdd244a5e8aa4e537bd38aeae4b073aa6109aa610735565b6040516109b791906112c2565b60405180910390a1565b600073ffffffffffffffffffffffffffffffffffffffff168273ffffffffffffffffffffffffffffffffffffffff1603610a335760006040517fec442f05000000000000000000000000000000000000000000000000000000008152600401610a2a91906112c2565b60405180910390fd5b610a3f60008383610d43565b5050565b6000600560019054906101000a900473ffffffffffffffffffffffffffffffffffffffff16905081600560016101000a81548173ffffffffffffffffffffffffffffffffffffffff021916908373ffffffffffffffffffffffffffffffffffffffff1602179055508173ffffffffffffffffffffffffffffffffffffffff168173ffffffffffffffffffffffffffffffffffffffff167f8be0079c531659141344cd1fd0a4f28419497f9722a3daafe3b4186f6b6457e060405160405180910390a35050565b610b11610d93565b6001600560006101000a81548160ff0219169083151502179055507f62e78cea01bee320cd4e420270b5ea74000d11b0c9f74754ebdbfc544b05a258610b55610735565b604051610b6291906112c2565b60405180910390a1565b600073ffffffffffffffffffffffffffffffffffffffff168473ffffffffffffffffffffffffffffffffffffffff1603610bde5760006040517fe602df05000000000000000000000000000000000000000000000000000000008152600401610bd591906112c2565b60405180910390fd5b600073ffffffffffffffffffffffffffffffffffffffff168373ffffffffffffffffffffffffffffffffffffffff1603610c505760006040517f94280d62000000000000000000000000000000000000000000000000000000008152600401610c4791906112c2565b60405180910390fd5b81600160008673ffffffffffffffffffffffffffffffffffffffff1673ffffffffffffffffffffffffffffffffffffffff16815260200190815260200160002060008573ffffffffffffffffffffffffffffffffffffffff1673ffffffffffffffffffffffffffffffffffffffff168152602001908152602001600020819055508015610d3d578273ffffffffffffffffffffffffffffffffffffffff168473ffffffffffffffffffffffffffffffffffffffff167f8c5be1e5ebec7d5bd14f71427d1e84f3dd0314c0f7b2291e5b200ac8c7c3b92584604051610d3491906111e1565b60405180910390a35b50505050565b610d4e838383610dd4565b505050565b610d5b610498565b610d91576040517f8dfc202b00000000000000000000000000000000000000000000000000000000815260040160405180910390fd5b565b610d9b610498565b15610dd2576040517fd93c066500000000000000000000000000000000000000000000000000000000815260040160405180910390fd5b565b610ddc610d93565b610de7838383610dec565b505050565b600073ffffffffffffffffffffffffffffffffffffffff168373ffffffffffffffffffffffffffffffffffffffff1603610e3e578060026000828254610e3291906113e3565b92505081905550610f11565b60008060008573ffffffffffffffffffffffffffffffffffffffff1673ffffffffffffffffffffffffffffffffffffffff16815260200190815260200160002054905081811015610eca578381836040517fe450d38c000000000000000000000000000000000000000000000000000000008152600401610ec19392919061137d565b60405180910390fd5b8181036000808673ffffffffffffffffffffffffffffffffffffffff1673ffffffffffffffffffffffffffffffffffffffff16815260200190815260200160002081905550505b600073ffffffffffffffffffffffffffffffffffffffff168273ffffffffffffffffffffffffffffffffffffffff1603610f5a5780600260008282540392505081905550610fa7565b806000808473ffffffffffffffffffffffffffffffffffffffff1673ffffffffffffffffffffffffffffffffffffffff168152602001908152602001600020600082825401925050819055505b8173ffffffffffffffffffffffffffffffffffffffff168373ffffffffffffffffffffffffffffffffffffffff167fddf252ad1be2c89b69c2b068fc378daa952ba7f163c4a11628f55a4df523b3ef8360405161100491906111e1565b60405180910390a3505050565b600081519050919050565b600082825260208201905092915050565b60005b8381101561104b578082015181840152602081019050611030565b60008484015250505050565b6000601f19601f8301169050919050565b600061107382611011565b61107d818561101c565b935061108d81856020860161102d565b61109681611057565b840191505092915050565b600060208201905081810360008301526110bb8184611068565b905092915050565b600080fd5b600073ffffffffffffffffffffffffffffffffffffffff82169050919050565b60006110f3826110c8565b9050919050565b611103816110e8565b811461110e57600080fd5b50565b600081359050611120816110fa565b92915050565b6000819050919050565b61113981611126565b811461114457600080fd5b50565b60008135905061115681611130565b92915050565b60008060408385031215611173576111726110c3565b5b600061118185828601611111565b925050602061119285828601611147565b9150509250929050565b60008115159050919050565b6111b18161119c565b82525050565b60006020820190506111cc60008301846111a8565b92915050565b6111db81611126565b82525050565b60006020820190506111f660008301846111d2565b92915050565b600080600060608486031215611215576112146110c3565b5b600061122386828701611111565b935050602061123486828701611111565b925050604061124586828701611147565b9150509250925092565b600060ff82169050919050565b6112658161124f565b82525050565b6000602082019050611280600083018461125c565b92915050565b60006020828403121561129c5761129b6110c3565b5b60006112aa84828501611111565b91505092915050565b6112bc816110e8565b82525050565b60006020820190506112d760008301846112b3565b92915050565b600080604083850312156112f4576112f36110c3565b5b600061130285828601611111565b925050602061131385828601611111565b9150509250929050565b7f4e487b7100000000000000000000000000000000000000000000000000000000600052602260045260246000fd5b6000600282049050600182168061136457607f821691505b6020821081036113775761137661131d565b5b50919050565b600060608201905061139260008301866112b3565b61139f60208301856111d2565b6113ac60408301846111d2565b949350505050565b7f4e487b7100000000000000000000000000000000000000000000000000000000600052601160045260246000fd5b60006113ee82611126565b91506113f983611126565b9250828201905080821115611411576114106113b4565b5b9291505056fea26469706673582212204edbd65074202b83c2082e7de5a5454f010ced894a71e0eea4b1ec917383a04f64736f6c63430008180033","opcodes":"PUSH1 0x80 PUSH1 0x40 MSTORE CALLVALUE DUP1 ISZERO PUSH3 0x11 JUMPI PUSH1 0x0 DUP1 REVERT JUMPDEST POP PUSH1 0x40 MLOAD PUSH3 0x2138 CODESIZE SUB DUP1 PUSH3 0x2138 DUP4 CODECOPY DUP2 DUP2 ADD PUSH1 0x40 MSTORE DUP2 ADD SWAP1 PUSH3 0x37 SWAP2 SWAP1 PUSH3 0x648 JUMP JUMPDEST DUP1 PUSH1 0x40 MLOAD DUP1 PUSH1 0x40 ADD PUSH1 0x40 MSTORE DUP1 PUSH1 0xB DUP2 MSTORE PUSH1 0x20 ADD PUSH32 0x456C69456C6C61436F696E000000000000000000000000000000000000000000 DUP2 MSTORE POP PUSH1 0x40 MLOAD DUP1 PUSH1 0x40 ADD PUSH1 0x40 MSTORE DUP1 PUSH1 0x3 DUP2 MSTORE PUSH1 0x20 ADD PUSH32 0x4545430000000000000000000000000000000000000000000000000000000000 DUP2 MSTORE POP DUP2 PUSH1 0x3 SWAP1 DUP2 PUSH3 0xB5 SWAP2 SWAP1 PUSH3 0x8F4 JUMP JUMPDEST POP DUP1 PUSH1 0x4 SWAP1 DUP2 PUSH3 0xC7 SWAP2 SWAP1 PUSH3 0x8F4 JUMP JUMPDEST POP POP POP PUSH1 0x0 PUSH1 0x5 PUSH1 0x0 PUSH2 0x100 EXP DUP2 SLOAD DUP2 PUSH1 0xFF MUL NOT AND SWAP1 DUP4 ISZERO ISZERO MUL OR SWAP1 SSTORE POP PUSH1 0x0 PUSH20 0xFFFFFFFFFFFFFFFFFFFFFFFFFFFFFFFFFFFFFFFF AND DUP2 PUSH20 0xFFFFFFFFFFFFFFFFFFFFFFFFFFFFFFFFFFFFFFFF AND SUB PUSH3 0x15A JUMPI PUSH1 0x0 PUSH1 0x40 MLOAD PUSH32 0x1E4FBDF700000000000000000000000000000000000000000000000000000000 DUP2 MSTORE PUSH1 0x4 ADD PUSH3 0x151 SWAP2 SWAP1 PUSH3 0x9EC JUMP JUMPDEST PUSH1 0x40 MLOAD DUP1 SWAP2 SUB SWAP1 REVERT JUMPDEST PUSH3 0x16B DUP2 PUSH3 0x1B1 PUSH1 0x20 SHL PUSH1 0x20 SHR JUMP JUMPDEST POP PUSH3 0x1AA CALLER PUSH3 0x181 PUSH3 0x277 PUSH1 0x20 SHL PUSH1 0x20 SHR JUMP JUMPDEST PUSH1 0xA PUSH3 0x18F SWAP2 SWAP1 PUSH3 0xB99 JUMP JUMPDEST PUSH2 0x2710 PUSH3 0x19E SWAP2 SWAP1 PUSH3 0xBEA JUMP JUMPDEST PUSH3 0x280 PUSH1 0x20 SHL PUSH1 0x20 SHR JUMP JUMPDEST POP PUSH3 0xCDB JUMP JUMPDEST PUSH1 0x0 PUSH1 0x5 PUSH1 0x1 SWAP1 SLOAD SWAP1 PUSH2 0x100 EXP SWAP1 DIV PUSH20 0xFFFFFFFFFFFFFFFFFFFFFFFFFFFFFFFFFFFFFFFF AND SWAP1 POP DUP2 PUSH1 0x5 PUSH1 0x1 PUSH2 0x100 EXP DUP2 SLOAD DUP2 PUSH20 0xFFFFFFFFFFFFFFFFFFFFFFFFFFFFFFFFFFFFFFFF MUL NOT AND SWAP1 DUP4 PUSH20 0xFFFFFFFFFFFFFFFFFFFFFFFFFFFFFFFFFFFFFFFF AND MUL OR SWAP1 SSTORE POP DUP2 PUSH20 0xFFFFFFFFFFFFFFFFFFFFFFFFFFFFFFFFFFFFFFFF AND DUP2 PUSH20 0xFFFFFFFFFFFFFFFFFFFFFFFFFFFFFFFFFFFFFFFF AND PUSH32 0x8BE0079C531659141344CD1FD0A4F28419497F9722A3DAAFE3B4186F6B6457E0 PUSH1 0x40 MLOAD PUSH1 0x40 MLOAD DUP1 SWAP2 SUB SWAP1 LOG3 POP POP JUMP JUMPDEST PUSH1 0x0 PUSH1 0x12 SWAP1 POP SWAP1 JUMP JUMPDEST PUSH1 0x0 PUSH20 0xFFFFFFFFFFFFFFFFFFFFFFFFFFFFFFFFFFFFFFFF AND DUP3 PUSH20 0xFFFFFFFFFFFFFFFFFFFFFFFFFFFFFFFFFFFFFFFF AND SUB PUSH3 0x2F5 JUMPI PUSH1 0x0 PUSH1 0x40 MLOAD PUSH32 0xEC442F0500000000000000000000000000000000000000000000000000000000 DUP2 MSTORE PUSH1 0x4 ADD PUSH3 0x2EC SWAP2 SWAP1 PUSH3 0x9EC JUMP JUMPDEST PUSH1 0x40 MLOAD DUP1 SWAP2 SUB SWAP1 REVERT JUMPDEST PUSH3 0x309 PUSH1 0x0 DUP4 DUP4 PUSH3 0x30D PUSH1 0x20 SHL PUSH1 0x20 SHR JUMP JUMPDEST POP POP JUMP JUMPDEST PUSH3 0x320 DUP4 DUP4 DUP4 PUSH3 0x325 PUSH1 0x20 SHL PUSH1 0x20 SHR JUMP JUMPDEST POP POP POP JUMP JUMPDEST PUSH3 0x335 PUSH3 0x34D PUSH1 0x20 SHL PUSH1 0x20 SHR JUMP JUMPDEST PUSH3 0x348 DUP4 DUP4 DUP4 PUSH3 0x397 PUSH1 0x20 SHL PUSH1 0x20 SHR JUMP JUMPDEST POP POP POP JUMP JUMPDEST PUSH3 0x35D PUSH3 0x5C7 PUSH1 0x20 SHL PUSH1 0x20 SHR JUMP JUMPDEST ISZERO PUSH3 0x395 JUMPI PUSH1 0x40 MLOAD PUSH32 0xD93C066500000000000000000000000000000000000000000000000000000000 DUP2 MSTORE PUSH1 0x4 ADD PUSH1 0x40 MLOAD DUP1 SWAP2 SUB SWAP1 REVERT JUMPDEST JUMP JUMPDEST PUSH1 0x0 PUSH20 0xFFFFFFFFFFFFFFFFFFFFFFFFFFFFFFFFFFFFFFFF AND DUP4 PUSH20 0xFFFFFFFFFFFFFFFFFFFFFFFFFFFFFFFFFFFFFFFF AND SUB PUSH3 0x3ED JUMPI DUP1 PUSH1 0x2 PUSH1 0x0 DUP3 DUP3 SLOAD PUSH3 0x3E0 SWAP2 SWAP1 PUSH3 0xC35 JUMP JUMPDEST SWAP3 POP POP DUP2 SWAP1 SSTORE POP PUSH3 0x4C3 JUMP JUMPDEST PUSH1 0x0 DUP1 PUSH1 0x0 DUP6 PUSH20 0xFFFFFFFFFFFFFFFFFFFFFFFFFFFFFFFFFFFFFFFF AND PUSH20 0xFFFFFFFFFFFFFFFFFFFFFFFFFFFFFFFFFFFFFFFF AND DUP2 MSTORE PUSH1 0x20 ADD SWAP1 DUP2 MSTORE PUSH1 0x20 ADD PUSH1 0x0 KECCAK256 SLOAD SWAP1 POP DUP2 DUP2 LT ISZERO PUSH3 0x47C JUMPI DUP4 DUP2 DUP4 PUSH1 0x40 MLOAD PUSH32 0xE450D38C00000000000000000000000000000000000000000000000000000000 DUP2 MSTORE PUSH1 0x4 ADD PUSH3 0x473 SWAP4 SWAP3 SWAP2 SWAP1 PUSH3 0xC81 JUMP JUMPDEST PUSH1 0x40 MLOAD DUP1 SWAP2 SUB SWAP1 REVERT JUMPDEST DUP2 DUP2 SUB PUSH1 0x0 DUP1 DUP7 PUSH20 0xFFFFFFFFFFFFFFFFFFFFFFFFFFFFFFFFFFFFFFFF AND PUSH20 0xFFFFFFFFFFFFFFFFFFFFFFFFFFFFFFFFFFFFFFFF AND DUP2 MSTORE PUSH1 0x20 ADD SWAP1 DUP2 MSTORE PUSH1 0x20 ADD PUSH1 0x0 KECCAK256 DUP2 SWAP1 SSTORE POP POP JUMPDEST PUSH1 0x0 PUSH20 0xFFFFFFFFFFFFFFFFFFFFFFFFFFFFFFFFFFFFFFFF AND DUP3 PUSH20 0xFFFFFFFFFFFFFFFFFFFFFFFFFFFFFFFFFFFFFFFF AND SUB PUSH3 0x50E JUMPI DUP1 PUSH1 0x2 PUSH1 0x0 DUP3 DUP3 SLOAD SUB SWAP3 POP POP DUP2 SWAP1 SSTORE POP PUSH3 0x55B JUMP JUMPDEST DUP1 PUSH1 0x0 DUP1 DUP5 PUSH20 0xFFFFFFFFFFFFFFFFFFFFFFFFFFFFFFFFFFFFFFFF AND PUSH20 0xFFFFFFFFFFFFFFFFFFFFFFFFFFFFFFFFFFFFFFFF AND DUP2 MSTORE PUSH1 0x20 ADD SWAP1 DUP2 MSTORE PUSH1 0x20 ADD PUSH1 0x0 KECCAK256 PUSH1 0x0 DUP3 DUP3 SLOAD ADD SWAP3 POP POP DUP2 SWAP1 SSTORE POP JUMPDEST DUP2 PUSH20 0xFFFFFFFFFFFFFFFFFFFFFFFFFFFFFFFFFFFFFFFF AND DUP4 PUSH20 0xFFFFFFFFFFFFFFFFFFFFFFFFFFFFFFFFFFFFFFFF AND PUSH32 0xDDF252AD1BE2C89B69C2B068FC378DAA952BA7F163C4A11628F55A4DF523B3EF DUP4 PUSH1 0x40 MLOAD PUSH3 0x5BA SWAP2 SWAP1 PUSH3 0xCBE JUMP JUMPDEST PUSH1 0x40 MLOAD DUP1 SWAP2 SUB SWAP1 LOG3 POP POP POP JUMP JUMPDEST PUSH1 0x0 PUSH1 0x5 PUSH1 0x0 SWAP1 SLOAD SWAP1 PUSH2 0x100 EXP SWAP1 DIV PUSH1 0xFF AND SWAP1 POP SWAP1 JUMP JUMPDEST PUSH1 0x0 DUP1 REVERT JUMPDEST PUSH1 0x0 PUSH20 0xFFFFFFFFFFFFFFFFFFFFFFFFFFFFFFFFFFFFFFFF DUP3 AND SWAP1 POP SWAP2 SWAP1 POP JUMP JUMPDEST PUSH1 0x0 PUSH3 0x610 DUP3 PUSH3 0x5E3 JUMP JUMPDEST SWAP1 POP SWAP2 SWAP1 POP JUMP JUMPDEST PUSH3 0x622 DUP2 PUSH3 0x603 JUMP JUMPDEST DUP2 EQ PUSH3 0x62E JUMPI PUSH1 0x0 DUP1 REVERT JUMPDEST POP JUMP JUMPDEST PUSH1 0x0 DUP2 MLOAD SWAP1 POP PUSH3 0x642 DUP2 PUSH3 0x617 JUMP JUMPDEST SWAP3 SWAP2 POP POP JUMP JUMPDEST PUSH1 0x0 PUSH1 0x20 DUP3 DUP5 SUB SLT ISZERO PUSH3 0x661 JUMPI PUSH3 0x660 PUSH3 0x5DE JUMP JUMPDEST JUMPDEST PUSH1 0x0 PUSH3 0x671 DUP5 DUP3 DUP6 ADD PUSH3 0x631 JUMP JUMPDEST SWAP2 POP POP SWAP3 SWAP2 POP POP JUMP JUMPDEST PUSH1 0x0 DUP2 MLOAD SWAP1 POP SWAP2 SWAP1 POP JUMP JUMPDEST PUSH32 0x4E487B7100000000000000000000000000000000000000000000000000000000 PUSH1 0x0 MSTORE PUSH1 0x41 PUSH1 0x4 MSTORE PUSH1 0x24 PUSH1 0x0 REVERT JUMPDEST PUSH32 0x4E487B7100000000000000000000000000000000000000000000000000000000 PUSH1 0x0 MSTORE PUSH1 0x22 PUSH1 0x4 MSTORE PUSH1 0x24 PUSH1 0x0 REVERT JUMPDEST PUSH1 0x0 PUSH1 0x2 DUP3 DIV SWAP1 POP PUSH1 0x1 DUP3 AND DUP1 PUSH3 0x6FC JUMPI PUSH1 0x7F DUP3 AND SWAP2 POP JUMPDEST PUSH1 0x20 DUP3 LT DUP2 SUB PUSH3 0x712 JUMPI PUSH3 0x711 PUSH3 0x6B4 JUMP JUMPDEST JUMPDEST POP SWAP2 SWAP1 POP JUMP JUMPDEST PUSH1 0x0 DUP2 SWAP1 POP DUP2 PUSH1 0x0 MSTORE PUSH1 0x20 PUSH1 0x0 KECCAK256 SWAP1 POP SWAP2 SWAP1 POP JUMP JUMPDEST PUSH1 0x0 PUSH1 0x20 PUSH1 0x1F DUP4 ADD DIV SWAP1 POP SWAP2 SWAP1 POP JUMP JUMPDEST PUSH1 0x0 DUP3 DUP3 SHL SWAP1 POP SWAP3 SWAP2 POP POP JUMP JUMPDEST PUSH1 0x0 PUSH1 0x8 DUP4 MUL PUSH3 0x77C PUSH32 0xFFFFFFFFFFFFFFFFFFFFFFFFFFFFFFFFFFFFFFFFFFFFFFFFFFFFFFFFFFFFFFFF DUP3 PUSH3 0x73D JUMP JUMPDEST PUSH3 0x788 DUP7 DUP4 PUSH3 0x73D JUMP JUMPDEST SWAP6 POP DUP1 NOT DUP5 AND SWAP4 POP DUP1 DUP7 AND DUP5 OR SWAP3 POP POP POP SWAP4 SWAP3 POP POP POP JUMP JUMPDEST PUSH1 0x0 DUP2 SWAP1 POP SWAP2 SWAP1 POP JUMP JUMPDEST PUSH1 0x0 DUP2 SWAP1 POP SWAP2 SWAP1 POP JUMP JUMPDEST PUSH1 0x0 PUSH3 0x7D5 PUSH3 0x7CF PUSH3 0x7C9 DUP5 PUSH3 0x7A0 JUMP JUMPDEST PUSH3 0x7AA JUMP JUMPDEST PUSH3 0x7A0 JUMP JUMPDEST SWAP1 POP SWAP2 SWAP1 POP JUMP JUMPDEST PUSH1 0x0 DUP2 SWAP1 POP SWAP2 SWAP1 POP JUMP JUMPDEST PUSH3 0x7F1 DUP4 PUSH3 0x7B4 JUMP JUMPDEST PUSH3 0x809 PUSH3 0x800 DUP3 PUSH3 0x7DC JUMP JUMPDEST DUP5 DUP5 SLOAD PUSH3 0x74A JUMP JUMPDEST DUP3 SSTORE POP POP POP POP JUMP JUMPDEST PUSH1 0x0 SWAP1 JUMP JUMPDEST PUSH3 0x820 PUSH3 0x811 JUMP JUMPDEST PUSH3 0x82D DUP2 DUP5 DUP5 PUSH3 0x7E6 JUMP JUMPDEST POP POP POP JUMP JUMPDEST JUMPDEST DUP2 DUP2 LT ISZERO PUSH3 0x855 JUMPI PUSH3 0x849 PUSH1 0x0 DUP3 PUSH3 0x816 JUMP JUMPDEST PUSH1 0x1 DUP2 ADD SWAP1 POP PUSH3 0x833 JUMP JUMPDEST POP POP JUMP JUMPDEST PUSH1 0x1F DUP3 GT ISZERO PUSH3 0x8A4 JUMPI PUSH3 0x86E DUP2 PUSH3 0x718 JUMP JUMPDEST PUSH3 0x879 DUP5 PUSH3 0x72D JUMP JUMPDEST DUP2 ADD PUSH1 0x20 DUP6 LT ISZERO PUSH3 0x889 JUMPI DUP2 SWAP1 POP JUMPDEST PUSH3 0x8A1 PUSH3 0x898 DUP6 PUSH3 0x72D JUMP JUMPDEST DUP4 ADD DUP3 PUSH3 0x832 JUMP JUMPDEST POP POP JUMPDEST POP POP POP JUMP JUMPDEST PUSH1 0x0 DUP3 DUP3 SHR SWAP1 POP SWAP3 SWAP2 POP POP JUMP JUMPDEST PUSH1 0x0 PUSH3 0x8C9 PUSH1 0x0 NOT DUP5 PUSH1 0x8 MUL PUSH3 0x8A9 JUMP JUMPDEST NOT DUP1 DUP4 AND SWAP2 POP POP SWAP3 SWAP2 POP POP JUMP JUMPDEST PUSH1 0x0 PUSH3 0x8E4 DUP4 DUP4 PUSH3 0x8B6 JUMP JUMPDEST SWAP2 POP DUP3 PUSH1 0x2 MUL DUP3 OR SWAP1 POP SWAP3 SWAP2 POP POP JUMP JUMPDEST PUSH3 0x8FF DUP3 PUSH3 0x67A JUMP JUMPDEST PUSH8 0xFFFFFFFFFFFFFFFF DUP2 GT ISZERO PUSH3 0x91B JUMPI PUSH3 0x91A PUSH3 0x685 JUMP JUMPDEST JUMPDEST PUSH3 0x927 DUP3 SLOAD PUSH3 0x6E3 JUMP JUMPDEST PUSH3 0x934 DUP3 DUP3 DUP6 PUSH3 0x859 JUMP JUMPDEST PUSH1 0x0 PUSH1 0x20 SWAP1 POP PUSH1 0x1F DUP4 GT PUSH1 0x1 DUP2 EQ PUSH3 0x96C JUMPI PUSH1 0x0 DUP5 ISZERO PUSH3 0x957 JUMPI DUP3 DUP8 ADD MLOAD SWAP1 POP JUMPDEST PUSH3 0x963 DUP6 DUP3 PUSH3 0x8D6 JUMP JUMPDEST DUP7 SSTORE POP PUSH3 0x9D3 JUMP JUMPDEST PUSH1 0x1F NOT DUP5 AND PUSH3 0x97C DUP7 PUSH3 0x718 JUMP JUMPDEST PUSH1 0x0 JUMPDEST DUP3 DUP2 LT ISZERO PUSH3 0x9A6 JUMPI DUP5 DUP10 ADD MLOAD DUP3 SSTORE PUSH1 0x1 DUP3 ADD SWAP2 POP PUSH1 0x20 DUP6 ADD SWAP5 POP PUSH1 0x20 DUP2 ADD SWAP1 POP PUSH3 0x97F JUMP JUMPDEST DUP7 DUP4 LT ISZERO PUSH3 0x9C6 JUMPI DUP5 DUP10 ADD MLOAD PUSH3 0x9C2 PUSH1 0x1F DUP10 AND DUP3 PUSH3 0x8B6 JUMP JUMPDEST DUP4 SSTORE POP JUMPDEST PUSH1 0x1 PUSH1 0x2 DUP9 MUL ADD DUP9 SSTORE POP POP POP JUMPDEST POP POP POP POP POP POP JUMP JUMPDEST PUSH3 0x9E6 DUP2 PUSH3 0x603 JUMP JUMPDEST DUP3 MSTORE POP POP JUMP JUMPDEST PUSH1 0x0 PUSH1 0x20 DUP3 ADD SWAP1 POP PUSH3 0xA03 PUSH1 0x0 DUP4 ADD DUP5 PUSH3 0x9DB JUMP JUMPDEST SWAP3 SWAP2 POP POP JUMP JUMPDEST PUSH32 0x4E487B7100000000000000000000000000000000000000000000000000000000 PUSH1 0x0 MSTORE PUSH1 0x11 PUSH1 0x4 MSTORE PUSH1 0x24 PUSH1 0x0 REVERT JUMPDEST PUSH1 0x0 DUP2 PUSH1 0x1 SHR SWAP1 POP SWAP2 SWAP1 POP JUMP JUMPDEST PUSH1 0x0 DUP1 DUP3 SWAP2 POP DUP4 SWAP1 POP JUMPDEST PUSH1 0x1 DUP6 GT ISZERO PUSH3 0xA97 JUMPI DUP1 DUP7 DIV DUP2 GT ISZERO PUSH3 0xA6F JUMPI PUSH3 0xA6E PUSH3 0xA09 JUMP JUMPDEST JUMPDEST PUSH1 0x1 DUP6 AND ISZERO PUSH3 0xA7F JUMPI DUP1 DUP3 MUL SWAP2 POP JUMPDEST DUP1 DUP2 MUL SWAP1 POP PUSH3 0xA8F DUP6 PUSH3 0xA38 JUMP JUMPDEST SWAP5 POP PUSH3 0xA4F JUMP JUMPDEST SWAP5 POP SWAP5 SWAP3 POP POP POP JUMP JUMPDEST PUSH1 0x0 DUP3 PUSH3 0xAB2 JUMPI PUSH1 0x1 SWAP1 POP PUSH3 0xB85 JUMP JUMPDEST DUP2 PUSH3 0xAC2 JUMPI PUSH1 0x0 SWAP1 POP PUSH3 0xB85 JUMP JUMPDEST DUP2 PUSH1 0x1 DUP2 EQ PUSH3 0xADB JUMPI PUSH1 0x2 DUP2 EQ PUSH3 0xAE6 JUMPI PUSH3 0xB1C JUMP JUMPDEST PUSH1 0x1 SWAP2 POP POP PUSH3 0xB85 JUMP JUMPDEST PUSH1 0xFF DUP5 GT ISZERO PUSH3 0xAFB JUMPI PUSH3 0xAFA PUSH3 0xA09 JUMP JUMPDEST JUMPDEST DUP4 PUSH1 0x2 EXP SWAP2 POP DUP5 DUP3 GT ISZERO PUSH3 0xB15 JUMPI PUSH3 0xB14 PUSH3 0xA09 JUMP JUMPDEST JUMPDEST POP PUSH3 0xB85 JUMP JUMPDEST POP PUSH1 0x20 DUP4 LT PUSH2 0x133 DUP4 LT AND PUSH1 0x4E DUP5 LT PUSH1 0xB DUP5 LT AND OR ISZERO PUSH3 0xB56 JUMPI DUP3 DUP3 EXP SWAP1 POP DUP4 DUP2 GT ISZERO PUSH3 0xB50 JUMPI PUSH3 0xB4F PUSH3 0xA09 JUMP JUMPDEST JUMPDEST PUSH3 0xB85 JUMP JUMPDEST PUSH3 0xB65 DUP5 DUP5 DUP5 PUSH1 0x1 PUSH3 0xA45 JUMP JUMPDEST SWAP3 POP SWAP1 POP DUP2 DUP5 DIV DUP2 GT ISZERO PUSH3 0xB7F JUMPI PUSH3 0xB7E PUSH3 0xA09 JUMP JUMPDEST JUMPDEST DUP2 DUP2 MUL SWAP1 POP JUMPDEST SWAP4 SWAP3 POP POP POP JUMP JUMPDEST PUSH1 0x0 PUSH1 0xFF DUP3 AND SWAP1 POP SWAP2 SWAP1 POP JUMP JUMPDEST PUSH1 0x0 PUSH3 0xBA6 DUP3 PUSH3 0x7A0 JUMP JUMPDEST SWAP2 POP PUSH3 0xBB3 DUP4 PUSH3 0xB8C JUMP JUMPDEST SWAP3 POP PUSH3 0xBE2 PUSH32 0xFFFFFFFFFFFFFFFFFFFFFFFFFFFFFFFFFFFFFFFFFFFFFFFFFFFFFFFFFFFFFFFF DUP5 DUP5 PUSH3 0xAA0 JUMP JUMPDEST SWAP1 POP SWAP3 SWAP2 POP POP JUMP JUMPDEST PUSH1 0x0 PUSH3 0xBF7 DUP3 PUSH3 0x7A0 JUMP JUMPDEST SWAP2 POP PUSH3 0xC04 DUP4 PUSH3 0x7A0 JUMP JUMPDEST SWAP3 POP DUP3 DUP3 MUL PUSH3 0xC14 DUP2 PUSH3 0x7A0 JUMP JUMPDEST SWAP2 POP DUP3 DUP3 DIV DUP5 EQ DUP4 ISZERO OR PUSH3 0xC2E JUMPI PUSH3 0xC2D PUSH3 0xA09 JUMP JUMPDEST JUMPDEST POP SWAP3 SWAP2 POP POP JUMP JUMPDEST PUSH1 0x0 PUSH3 0xC42 DUP3 PUSH3 0x7A0 JUMP JUMPDEST SWAP2 POP PUSH3 0xC4F DUP4 PUSH3 0x7A0 JUMP JUMPDEST SWAP3 POP DUP3 DUP3 ADD SWAP1 POP DUP1 DUP3 GT ISZERO PUSH3 0xC6A JUMPI PUSH3 0xC69 PUSH3 0xA09 JUMP JUMPDEST JUMPDEST SWAP3 SWAP2 POP POP JUMP JUMPDEST PUSH3 0xC7B DUP2 PUSH3 0x7A0 JUMP JUMPDEST DUP3 MSTORE POP POP JUMP JUMPDEST PUSH1 0x0 PUSH1 0x60 DUP3 ADD SWAP1 POP PUSH3 0xC98 PUSH1 0x0 DUP4 ADD DUP7 PUSH3 0x9DB JUMP JUMPDEST PUSH3 0xCA7 PUSH1 0x20 DUP4 ADD DUP6 PUSH3 0xC70 JUMP JUMPDEST PUSH3 0xCB6 PUSH1 0x40 DUP4 ADD DUP5 PUSH3 0xC70 JUMP JUMPDEST SWAP5 SWAP4 POP POP POP POP JUMP JUMPDEST PUSH1 0x0 PUSH1 0x20 DUP3 ADD SWAP1 POP PUSH3 0xCD5 PUSH1 0x0 DUP4 ADD DUP5 PUSH3 0xC70 JUMP JUMPDEST SWAP3 SWAP2 POP POP JUMP JUMPDEST PUSH2 0x144D DUP1 PUSH3 0xCEB PUSH1 0x0 CODECOPY PUSH1 0x0 RETURN INVALID PUSH1 0x80 PUSH1 0x40 MSTORE CALLVALUE DUP1 ISZERO PUSH2 0x10 JUMPI PUSH1 0x0 DUP1 REVERT JUMPDEST POP PUSH1 0x4 CALLDATASIZE LT PUSH2 0x100 JUMPI PUSH1 0x0 CALLDATALOAD PUSH1 0xE0 SHR DUP1 PUSH4 0x70A08231 GT PUSH2 0x97 JUMPI DUP1 PUSH4 0x95D89B41 GT PUSH2 0x66 JUMPI DUP1 PUSH4 0x95D89B41 EQ PUSH2 0x265 JUMPI DUP1 PUSH4 0xA9059CBB EQ PUSH2 0x283 JUMPI DUP1 PUSH4 0xDD62ED3E EQ PUSH2 0x2B3 JUMPI DUP1 PUSH4 0xF2FDE38B EQ PUSH2 0x2E3 JUMPI PUSH2 0x100 JUMP JUMPDEST DUP1 PUSH4 0x70A08231 EQ PUSH2 0x203 JUMPI DUP1 PUSH4 0x715018A6 EQ PUSH2 0x233 JUMPI DUP1 PUSH4 0x8456CB59 EQ PUSH2 0x23D JUMPI DUP1 PUSH4 0x8DA5CB5B EQ PUSH2 0x247 JUMPI PUSH2 0x100 JUMP JUMPDEST DUP1 PUSH4 0x313CE567 GT PUSH2 0xD3 JUMPI DUP1 PUSH4 0x313CE567 EQ PUSH2 0x1A1 JUMPI DUP1 PUSH4 0x3F4BA83A EQ PUSH2 0x1BF JUMPI DUP1 PUSH4 0x40C10F19 EQ PUSH2 0x1C9 JUMPI DUP1 PUSH4 0x5C975ABB EQ PUSH2 0x1E5 JUMPI PUSH2 0x100 JUMP JUMPDEST DUP1 PUSH4 0x6FDDE03 EQ PUSH2 0x105 JUMPI DUP1 PUSH4 0x95EA7B3 EQ PUSH2 0x123 JUMPI DUP1 PUSH4 0x18160DDD EQ PUSH2 0x153 JUMPI DUP1 PUSH4 0x23B872DD EQ PUSH2 0x171 JUMPI JUMPDEST PUSH1 0x0 DUP1 REVERT JUMPDEST PUSH2 0x10D PUSH2 0x2FF JUMP JUMPDEST PUSH1 0x40 MLOAD PUSH2 0x11A SWAP2 SWAP1 PUSH2 0x10A1 JUMP JUMPDEST PUSH1 0x40 MLOAD DUP1 SWAP2 SUB SWAP1 RETURN JUMPDEST PUSH2 0x13D PUSH1 0x4 DUP1 CALLDATASIZE SUB DUP2 ADD SWAP1 PUSH2 0x138 SWAP2 SWAP1 PUSH2 0x115C JUMP JUMPDEST PUSH2 0x391 JUMP JUMPDEST PUSH1 0x40 MLOAD PUSH2 0x14A SWAP2 SWAP1 PUSH2 0x11B7 JUMP JUMPDEST PUSH1 0x40 MLOAD DUP1 SWAP2 SUB SWAP1 RETURN JUMPDEST PUSH2 0x15B PUSH2 0x3B4 JUMP JUMPDEST PUSH1 0x40 MLOAD PUSH2 0x168 SWAP2 SWAP1 PUSH2 0x11E1 JUMP JUMPDEST PUSH1 0x40 MLOAD DUP1 SWAP2 SUB SWAP1 RETURN JUMPDEST PUSH2 0x18B PUSH1 0x4 DUP1 CALLDATASIZE SUB DUP2 ADD SWAP1 PUSH2 0x186 SWAP2 SWAP1 PUSH2 0x11FC JUMP JUMPDEST PUSH2 0x3BE JUMP JUMPDEST PUSH1 0x40 MLOAD PUSH2 0x198 SWAP2 SWAP1 PUSH2 0x11B7 JUMP JUMPDEST PUSH1 0x40 MLOAD DUP1 SWAP2 SUB SWAP1 RETURN JUMPDEST PUSH2 0x1A9 PUSH2 0x3ED JUMP JUMPDEST PUSH1 0x40 MLOAD PUSH2 0x1B6 SWAP2 SWAP1 PUSH2 0x126B JUMP JUMPDEST PUSH1 0x40 MLOAD DUP1 SWAP2 SUB SWAP1 RETURN JUMPDEST PUSH2 0x1C7 PUSH2 0x3F6 JUMP JUMPDEST STOP JUMPDEST PUSH2 0x1E3 PUSH1 0x4 DUP1 CALLDATASIZE SUB DUP2 ADD SWAP1 PUSH2 0x1DE SWAP2 SWAP1 PUSH2 0x115C JUMP JUMPDEST PUSH2 0x434 JUMP JUMPDEST STOP JUMPDEST PUSH2 0x1ED PUSH2 0x498 JUMP JUMPDEST PUSH1 0x40 MLOAD PUSH2 0x1FA SWAP2 SWAP1 PUSH2 0x11B7 JUMP JUMPDEST PUSH1 0x40 MLOAD DUP1 SWAP2 SUB SWAP1 RETURN JUMPDEST PUSH2 0x21D PUSH1 0x4 DUP1 CALLDATASIZE SUB DUP2 ADD SWAP1 PUSH2 0x218 SWAP2 SWAP1 PUSH2 0x1286 JUMP JUMPDEST PUSH2 0x4AF JUMP JUMPDEST PUSH1 0x40 MLOAD PUSH2 0x22A SWAP2 SWAP1 PUSH2 0x11E1 JUMP JUMPDEST PUSH1 0x40 MLOAD DUP1 SWAP2 SUB SWAP1 RETURN JUMPDEST PUSH2 0x23B PUSH2 0x4F7 JUMP JUMPDEST STOP JUMPDEST PUSH2 0x245 PUSH2 0x50B JUMP JUMPDEST STOP JUMPDEST PUSH2 0x24F PUSH2 0x549 JUMP JUMPDEST PUSH1 0x40 MLOAD PUSH2 0x25C SWAP2 SWAP1 PUSH2 0x12C2 JUMP JUMPDEST PUSH1 0x40 MLOAD DUP1 SWAP2 SUB SWAP1 RETURN JUMPDEST PUSH2 0x26D PUSH2 0x573 JUMP JUMPDEST PUSH1 0x40 MLOAD PUSH2 0x27A SWAP2 SWAP1 PUSH2 0x10A1 JUMP JUMPDEST PUSH1 0x40 MLOAD DUP1 SWAP2 SUB SWAP1 RETURN JUMPDEST PUSH2 0x29D PUSH1 0x4 DUP1 CALLDATASIZE SUB DUP2 ADD SWAP1 PUSH2 0x298 SWAP2 SWAP1 PUSH2 0x115C JUMP JUMPDEST PUSH2 0x605 JUMP JUMPDEST PUSH1 0x40 MLOAD PUSH2 0x2AA SWAP2 SWAP1 PUSH2 0x11B7 JUMP JUMPDEST PUSH1 0x40 MLOAD DUP1 SWAP2 SUB SWAP1 RETURN JUMPDEST PUSH2 0x2CD PUSH1 0x4 DUP1 CALLDATASIZE SUB DUP2 ADD SWAP1 PUSH2 0x2C8 SWAP2 SWAP1 PUSH2 0x12DD JUMP JUMPDEST PUSH2 0x628 JUMP JUMPDEST PUSH1 0x40 MLOAD PUSH2 0x2DA SWAP2 SWAP1 PUSH2 0x11E1 JUMP JUMPDEST PUSH1 0x40 MLOAD DUP1 SWAP2 SUB SWAP1 RETURN JUMPDEST PUSH2 0x2FD PUSH1 0x4 DUP1 CALLDATASIZE SUB DUP2 ADD SWAP1 PUSH2 0x2F8 SWAP2 SWAP1 PUSH2 0x1286 JUMP JUMPDEST PUSH2 0x6AF JUMP JUMPDEST STOP JUMPDEST PUSH1 0x60 PUSH1 0x3 DUP1 SLOAD PUSH2 0x30E SWAP1 PUSH2 0x134C JUMP JUMPDEST DUP1 PUSH1 0x1F ADD PUSH1 0x20 DUP1 SWAP2 DIV MUL PUSH1 0x20 ADD PUSH1 0x40 MLOAD SWAP1 DUP2 ADD PUSH1 0x40 MSTORE DUP1 SWAP3 SWAP2 SWAP1 DUP2 DUP2 MSTORE PUSH1 0x20 ADD DUP3 DUP1 SLOAD PUSH2 0x33A SWAP1 PUSH2 0x134C JUMP JUMPDEST DUP1 ISZERO PUSH2 0x387 JUMPI DUP1 PUSH1 0x1F LT PUSH2 0x35C JUMPI PUSH2 0x100 DUP1 DUP4 SLOAD DIV MUL DUP4 MSTORE SWAP2 PUSH1 0x20 ADD SWAP2 PUSH2 0x387 JUMP JUMPDEST DUP3 ADD SWAP2 SWAP1 PUSH1 0x0 MSTORE PUSH1 0x20 PUSH1 0x0 KECCAK256 SWAP1 JUMPDEST DUP2 SLOAD DUP2 MSTORE SWAP1 PUSH1 0x1 ADD SWAP1 PUSH1 0x20 ADD DUP1 DUP4 GT PUSH2 0x36A JUMPI DUP3 SWAP1 SUB PUSH1 0x1F AND DUP3 ADD SWAP2 JUMPDEST POP POP POP POP POP SWAP1 POP SWAP1 JUMP JUMPDEST PUSH1 0x0 DUP1 PUSH2 0x39C PUSH2 0x735 JUMP JUMPDEST SWAP1 POP PUSH2 0x3A9 DUP2 DUP6 DUP6 PUSH2 0x73D JUMP JUMPDEST PUSH1 0x1 SWAP2 POP POP SWAP3 SWAP2 POP POP JUMP JUMPDEST PUSH1 0x0 PUSH1 0x2 SLOAD SWAP1 POP SWAP1 JUMP JUMPDEST PUSH1 0x0 DUP1 PUSH2 0x3C9 PUSH2 0x735 JUMP JUMPDEST SWAP1 POP PUSH2 0x3D6 DUP6 DUP3 DUP6 PUSH2 0x74F JUMP JUMPDEST PUSH2 0x3E1 DUP6 DUP6 DUP6 PUSH2 0x7E3 JUMP JUMPDEST PUSH1 0x1 SWAP2 POP POP SWAP4 SWAP3 POP POP POP JUMP JUMPDEST PUSH1 0x0 PUSH1 0x12 SWAP1 POP SWAP1 JUMP JUMPDEST PUSH2 0x3FE PUSH2 0x8D7 JUMP JUMPDEST PUSH2 0x406 PUSH2 0x95E JUMP JUMPDEST PUSH32 0xC8F901B8CF21A6A5CDF2F3AD433C95313DEDA27EE018F6F93B1029CC88405369 PUSH1 0x40 MLOAD PUSH1 0x40 MLOAD DUP1 SWAP2 SUB SWAP1 LOG1 JUMP JUMPDEST PUSH2 0x43C PUSH2 0x8D7 JUMP JUMPDEST PUSH2 0x446 DUP3 DUP3 PUSH2 0x9C1 JUMP JUMPDEST DUP2 PUSH20 0xFFFFFFFFFFFFFFFFFFFFFFFFFFFFFFFFFFFFFFFF AND PUSH32 0x3F2C9D57C068687834F0DE942A9BABB9E5ACAB57D516D3480A3C16EE165A4273 DUP3 PUSH1 0x40 MLOAD PUSH2 0x48C SWAP2 SWAP1 PUSH2 0x11E1 JUMP JUMPDEST PUSH1 0x40 MLOAD DUP1 SWAP2 SUB SWAP1 LOG2 POP POP JUMP JUMPDEST PUSH1 0x0 PUSH1 0x5 PUSH1 0x0 SWAP1 SLOAD SWAP1 PUSH2 0x100 EXP SWAP1 DIV PUSH1 0xFF AND SWAP1 POP SWAP1 JUMP JUMPDEST PUSH1 0x0 DUP1 PUSH1 0x0 DUP4 PUSH20 0xFFFFFFFFFFFFFFFFFFFFFFFFFFFFFFFFFFFFFFFF AND PUSH20 0xFFFFFFFFFFFFFFFFFFFFFFFFFFFFFFFFFFFFFFFF AND DUP2 MSTORE PUSH1 0x20 ADD SWAP1 DUP2 MSTORE PUSH1 0x20 ADD PUSH1 0x0 KECCAK256 SLOAD SWAP1 POP SWAP2 SWAP1 POP JUMP JUMPDEST PUSH2 0x4FF PUSH2 0x8D7 JUMP JUMPDEST PUSH2 0x509 PUSH1 0x0 PUSH2 0xA43 JUMP JUMPDEST JUMP JUMPDEST PUSH2 0x513 PUSH2 0x8D7 JUMP JUMPDEST PUSH2 0x51B PUSH2 0xB09 JUMP JUMPDEST PUSH32 0xDEE1C8F0F0F9036E625A3681463D8A017C07047C5F65A7E07709B1777A324892 PUSH1 0x40 MLOAD PUSH1 0x40 MLOAD DUP1 SWAP2 SUB SWAP1 LOG1 JUMP JUMPDEST PUSH1 0x0 PUSH1 0x5 PUSH1 0x1 SWAP1 SLOAD SWAP1 PUSH2 0x100 EXP SWAP1 DIV PUSH20 0xFFFFFFFFFFFFFFFFFFFFFFFFFFFFFFFFFFFFFFFF AND SWAP1 POP SWAP1 JUMP JUMPDEST PUSH1 0x60 PUSH1 0x4 DUP1 SLOAD PUSH2 0x582 SWAP1 PUSH2 0x134C JUMP JUMPDEST DUP1 PUSH1 0x1F ADD PUSH1 0x20 DUP1 SWAP2 DIV MUL PUSH1 0x20 ADD PUSH1 0x40 MLOAD SWAP1 DUP2 ADD PUSH1 0x40 MSTORE DUP1 SWAP3 SWAP2 SWAP1 DUP2 DUP2 MSTORE PUSH1 0x20 ADD DUP3 DUP1 SLOAD PUSH2 0x5AE SWAP1 PUSH2 0x134C JUMP JUMPDEST DUP1 ISZERO PUSH2 0x5FB JUMPI DUP1 PUSH1 0x1F LT PUSH2 0x5D0 JUMPI PUSH2 0x100 DUP1 DUP4 SLOAD DIV MUL DUP4 MSTORE SWAP2 PUSH1 0x20 ADD SWAP2 PUSH2 0x5FB JUMP JUMPDEST DUP3 ADD SWAP2 SWAP1 PUSH1 0x0 MSTORE PUSH1 0x20 PUSH1 0x0 KECCAK256 SWAP1 JUMPDEST DUP2 SLOAD DUP2 MSTORE SWAP1 PUSH1 0x1 ADD SWAP1 PUSH1 0x20 ADD DUP1 DUP4 GT PUSH2 0x5DE JUMPI DUP3 SWAP1 SUB PUSH1 0x1F AND DUP3 ADD SWAP2 JUMPDEST POP POP POP POP POP SWAP1 POP SWAP1 JUMP JUMPDEST PUSH1 0x0 DUP1 PUSH2 0x610 PUSH2 0x735 JUMP JUMPDEST SWAP1 POP PUSH2 0x61D DUP2 DUP6 DUP6 PUSH2 0x7E3 JUMP JUMPDEST PUSH1 0x1 SWAP2 POP POP SWAP3 SWAP2 POP POP JUMP JUMPDEST PUSH1 0x0 PUSH1 0x1 PUSH1 0x0 DUP5 PUSH20 0xFFFFFFFFFFFFFFFFFFFFFFFFFFFFFFFFFFFFFFFF AND PUSH20 0xFFFFFFFFFFFFFFFFFFFFFFFFFFFFFFFFFFFFFFFF AND DUP2 MSTORE PUSH1 0x20 ADD SWAP1 DUP2 MSTORE PUSH1 0x20 ADD PUSH1 0x0 KECCAK256 PUSH1 0x0 DUP4 PUSH20 0xFFFFFFFFFFFFFFFFFFFFFFFFFFFFFFFFFFFFFFFF AND PUSH20 0xFFFFFFFFFFFFFFFFFFFFFFFFFFFFFFFFFFFFFFFF AND DUP2 MSTORE PUSH1 0x20 ADD SWAP1 DUP2 MSTORE PUSH1 0x20 ADD PUSH1 0x0 KECCAK256 SLOAD SWAP1 POP SWAP3 SWAP2 POP POP JUMP JUMPDEST PUSH2 0x6B7 PUSH2 0x8D7 JUMP JUMPDEST PUSH1 0x0 PUSH20 0xFFFFFFFFFFFFFFFFFFFFFFFFFFFFFFFFFFFFFFFF AND DUP2 PUSH20 0xFFFFFFFFFFFFFFFFFFFFFFFFFFFFFFFFFFFFFFFF AND SUB PUSH2 0x729 JUMPI PUSH1 0x0 PUSH1 0x40 MLOAD PUSH32 0x1E4FBDF700000000000000000000000000000000000000000000000000000000 DUP2 MSTORE PUSH1 0x4 ADD PUSH2 0x720 SWAP2 SWAP1 PUSH2 0x12C2 JUMP JUMPDEST PUSH1 0x40 MLOAD DUP1 SWAP2 SUB SWAP1 REVERT JUMPDEST PUSH2 0x732 DUP2 PUSH2 0xA43 JUMP JUMPDEST POP JUMP JUMPDEST PUSH1 0x0 CALLER SWAP1 POP SWAP1 JUMP JUMPDEST PUSH2 0x74A DUP4 DUP4 DUP4 PUSH1 0x1 PUSH2 0xB6C JUMP JUMPDEST POP POP POP JUMP JUMPDEST PUSH1 0x0 PUSH2 0x75B DUP5 DUP5 PUSH2 0x628 JUMP JUMPDEST SWAP1 POP PUSH32 0xFFFFFFFFFFFFFFFFFFFFFFFFFFFFFFFFFFFFFFFFFFFFFFFFFFFFFFFFFFFFFFFF DUP2 EQ PUSH2 0x7DD JUMPI DUP2 DUP2 LT ISZERO PUSH2 0x7CD JUMPI DUP3 DUP2 DUP4 PUSH1 0x40 MLOAD PUSH32 0xFB8F41B200000000000000000000000000000000000000000000000000000000 DUP2 MSTORE PUSH1 0x4 ADD PUSH2 0x7C4 SWAP4 SWAP3 SWAP2 SWAP1 PUSH2 0x137D JUMP JUMPDEST PUSH1 0x40 MLOAD DUP1 SWAP2 SUB SWAP1 REVERT JUMPDEST PUSH2 0x7DC DUP5 DUP5 DUP5 DUP5 SUB PUSH1 0x0 PUSH2 0xB6C JUMP JUMPDEST JUMPDEST POP POP POP POP JUMP JUMPDEST PUSH1 0x0 PUSH20 0xFFFFFFFFFFFFFFFFFFFFFFFFFFFFFFFFFFFFFFFF AND DUP4 PUSH20 0xFFFFFFFFFFFFFFFFFFFFFFFFFFFFFFFFFFFFFFFF AND SUB PUSH2 0x855 JUMPI PUSH1 0x0 PUSH1 0x40 MLOAD PUSH32 0x96C6FD1E00000000000000000000000000000000000000000000000000000000 DUP2 MSTORE PUSH1 0x4 ADD PUSH2 0x84C SWAP2 SWAP1 PUSH2 0x12C2 JUMP JUMPDEST PUSH1 0x40 MLOAD DUP1 SWAP2 SUB SWAP1 REVERT JUMPDEST PUSH1 0x0 PUSH20 0xFFFFFFFFFFFFFFFFFFFFFFFFFFFFFFFFFFFFFFFF AND DUP3 PUSH20 0xFFFFFFFFFFFFFFFFFFFFFFFFFFFFFFFFFFFFFFFF AND SUB PUSH2 0x8C7 JUMPI PUSH1 0x0 PUSH1 0x40 MLOAD PUSH32 0xEC442F0500000000000000000000000000000000000000000000000000000000 DUP2 MSTORE PUSH1 0x4 ADD PUSH2 0x8BE SWAP2 SWAP1 PUSH2 0x12C2 JUMP JUMPDEST PUSH1 0x40 MLOAD DUP1 SWAP2 SUB SWAP1 REVERT JUMPDEST PUSH2 0x8D2 DUP4 DUP4 DUP4 PUSH2 0xD43 JUMP JUMPDEST POP POP POP JUMP JUMPDEST PUSH2 0x8DF PUSH2 0x735 JUMP JUMPDEST PUSH20 0xFFFFFFFFFFFFFFFFFFFFFFFFFFFFFFFFFFFFFFFF AND PUSH2 0x8FD PUSH2 0x549 JUMP JUMPDEST PUSH20 0xFFFFFFFFFFFFFFFFFFFFFFFFFFFFFFFFFFFFFFFF AND EQ PUSH2 0x95C JUMPI PUSH2 0x920 PUSH2 0x735 JUMP JUMPDEST PUSH1 0x40 MLOAD PUSH32 0x118CDAA700000000000000000000000000000000000000000000000000000000 DUP2 MSTORE PUSH1 0x4 ADD PUSH2 0x953 SWAP2 SWAP1 PUSH2 0x12C2 JUMP JUMPDEST PUSH1 0x40 MLOAD DUP1 SWAP2 SUB SWAP1 REVERT JUMPDEST JUMP JUMPDEST PUSH2 0x966 PUSH2 0xD53 JUMP JUMPDEST PUSH1 0x0 PUSH1 0x5 PUSH1 0x0 PUSH2 0x100 EXP DUP2 SLOAD DUP2 PUSH1 0xFF MUL NOT AND SWAP1 DUP4 ISZERO ISZERO MUL OR SWAP1 SSTORE POP PUSH32 0x5DB9EE0A495BF2E6FF9C91A7834C1BA4FDD244A5E8AA4E537BD38AEAE4B073AA PUSH2 0x9AA PUSH2 0x735 JUMP JUMPDEST PUSH1 0x40 MLOAD PUSH2 0x9B7 SWAP2 SWAP1 PUSH2 0x12C2 JUMP JUMPDEST PUSH1 0x40 MLOAD DUP1 SWAP2 SUB SWAP1 LOG1 JUMP JUMPDEST PUSH1 0x0 PUSH20 0xFFFFFFFFFFFFFFFFFFFFFFFFFFFFFFFFFFFFFFFF AND DUP3 PUSH20 0xFFFFFFFFFFFFFFFFFFFFFFFFFFFFFFFFFFFFFFFF AND SUB PUSH2 0xA33 JUMPI PUSH1 0x0 PUSH1 0x40 MLOAD PUSH32 0xEC442F0500000000000000000000000000000000000000000000000000000000 DUP2 MSTORE PUSH1 0x4 ADD PUSH2 0xA2A SWAP2 SWAP1 PUSH2 0x12C2 JUMP JUMPDEST PUSH1 0x40 MLOAD DUP1 SWAP2 SUB SWAP1 REVERT JUMPDEST PUSH2 0xA3F PUSH1 0x0 DUP4 DUP4 PUSH2 0xD43 JUMP JUMPDEST POP POP JUMP JUMPDEST PUSH1 0x0 PUSH1 0x5 PUSH1 0x1 SWAP1 SLOAD SWAP1 PUSH2 0x100 EXP SWAP1 DIV PUSH20 0xFFFFFFFFFFFFFFFFFFFFFFFFFFFFFFFFFFFFFFFF AND SWAP1 POP DUP2 PUSH1 0x5 PUSH1 0x1 PUSH2 0x100 EXP DUP2 SLOAD DUP2 PUSH20 0xFFFFFFFFFFFFFFFFFFFFFFFFFFFFFFFFFFFFFFFF MUL NOT AND SWAP1 DUP4 PUSH20 0xFFFFFFFFFFFFFFFFFFFFFFFFFFFFFFFFFFFFFFFF AND MUL OR SWAP1 SSTORE POP DUP2 PUSH20 0xFFFFFFFFFFFFFFFFFFFFFFFFFFFFFFFFFFFFFFFF AND DUP2 PUSH20 0xFFFFFFFFFFFFFFFFFFFFFFFFFFFFFFFFFFFFFFFF AND PUSH32 0x8BE0079C531659141344CD1FD0A4F28419497F9722A3DAAFE3B4186F6B6457E0 PUSH1 0x40 MLOAD PUSH1 0x40 MLOAD DUP1 SWAP2 SUB SWAP1 LOG3 POP POP JUMP JUMPDEST PUSH2 0xB11 PUSH2 0xD93 JUMP JUMPDEST PUSH1 0x1 PUSH1 0x5 PUSH1 0x0 PUSH2 0x100 EXP DUP2 SLOAD DUP2 PUSH1 0xFF MUL NOT AND SWAP1 DUP4 ISZERO ISZERO MUL OR SWAP1 SSTORE POP PUSH32 0x62E78CEA01BEE320CD4E420270B5EA74000D11B0C9F74754EBDBFC544B05A258 PUSH2 0xB55 PUSH2 0x735 JUMP JUMPDEST PUSH1 0x40 MLOAD PUSH2 0xB62 SWAP2 SWAP1 PUSH2 0x12C2 JUMP JUMPDEST PUSH1 0x40 MLOAD DUP1 SWAP2 SUB SWAP1 LOG1 JUMP JUMPDEST PUSH1 0x0 PUSH20 0xFFFFFFFFFFFFFFFFFFFFFFFFFFFFFFFFFFFFFFFF AND DUP5 PUSH20 0xFFFFFFFFFFFFFFFFFFFFFFFFFFFFFFFFFFFFFFFF AND SUB PUSH2 0xBDE JUMPI PUSH1 0x0 PUSH1 0x40 MLOAD PUSH32 0xE602DF0500000000000000000000000000000000000000000000000000000000 DUP2 MSTORE PUSH1 0x4 ADD PUSH2 0xBD5 SWAP2 SWAP1 PUSH2 0x12C2 JUMP JUMPDEST PUSH1 0x40 MLOAD DUP1 SWAP2 SUB SWAP1 REVERT JUMPDEST PUSH1 0x0 PUSH20 0xFFFFFFFFFFFFFFFFFFFFFFFFFFFFFFFFFFFFFFFF AND DUP4 PUSH20 0xFFFFFFFFFFFFFFFFFFFFFFFFFFFFFFFFFFFFFFFF AND SUB PUSH2 0xC50 JUMPI PUSH1 0x0 PUSH1 0x40 MLOAD PUSH32 0x94280D6200000000000000000000000000000000000000000000000000000000 DUP2 MSTORE PUSH1 0x4 ADD PUSH2 0xC47 SWAP2 SWAP1 PUSH2 0x12C2 JUMP JUMPDEST PUSH1 0x40 MLOAD DUP1 SWAP2 SUB SWAP1 REVERT JUMPDEST DUP2 PUSH1 0x1 PUSH1 0x0 DUP7 PUSH20 0xFFFFFFFFFFFFFFFFFFFFFFFFFFFFFFFFFFFFFFFF AND PUSH20 0xFFFFFFFFFFFFFFFFFFFFFFFFFFFFFFFFFFFFFFFF AND DUP2 MSTORE PUSH1 0x20 ADD SWAP1 DUP2 MSTORE PUSH1 0x20 ADD PUSH1 0x0 KECCAK256 PUSH1 0x0 DUP6 PUSH20 0xFFFFFFFFFFFFFFFFFFFFFFFFFFFFFFFFFFFFFFFF AND PUSH20 0xFFFFFFFFFFFFFFFFFFFFFFFFFFFFFFFFFFFFFFFF AND DUP2 MSTORE PUSH1 0x20 ADD SWAP1 DUP2 MSTORE PUSH1 0x20 ADD PUSH1 0x0 KECCAK256 DUP2 SWAP1 SSTORE POP DUP1 ISZERO PUSH2 0xD3D JUMPI DUP3 PUSH20 0xFFFFFFFFFFFFFFFFFFFFFFFFFFFFFFFFFFFFFFFF AND DUP5 PUSH20 0xFFFFFFFFFFFFFFFFFFFFFFFFFFFFFFFFFFFFFFFF AND PUSH32 0x8C5BE1E5EBEC7D5BD14F71427D1E84F3DD0314C0F7B2291E5B200AC8C7C3B925 DUP5 PUSH1 0x40 MLOAD PUSH2 0xD34 SWAP2 SWAP1 PUSH2 0x11E1 JUMP JUMPDEST PUSH1 0x40 MLOAD DUP1 SWAP2 SUB SWAP1 LOG3 JUMPDEST POP POP POP POP JUMP JUMPDEST PUSH2 0xD4E DUP4 DUP4 DUP4 PUSH2 0xDD4 JUMP JUMPDEST POP POP POP JUMP JUMPDEST PUSH2 0xD5B PUSH2 0x498 JUMP JUMPDEST PUSH2 0xD91 JUMPI PUSH1 0x40 MLOAD PUSH32 0x8DFC202B00000000000000000000000000000000000000000000000000000000 DUP2 MSTORE PUSH1 0x4 ADD PUSH1 0x40 MLOAD DUP1 SWAP2 SUB SWAP1 REVERT JUMPDEST JUMP JUMPDEST PUSH2 0xD9B PUSH2 0x498 JUMP JUMPDEST ISZERO PUSH2 0xDD2 JUMPI PUSH1 0x40 MLOAD PUSH32 0xD93C066500000000000000000000000000000000000000000000000000000000 DUP2 MSTORE PUSH1 0x4 ADD PUSH1 0x40 MLOAD DUP1 SWAP2 SUB SWAP1 REVERT JUMPDEST JUMP JUMPDEST PUSH2 0xDDC PUSH2 0xD93 JUMP JUMPDEST PUSH2 0xDE7 DUP4 DUP4 DUP4 PUSH2 0xDEC JUMP JUMPDEST POP POP POP JUMP JUMPDEST PUSH1 0x0 PUSH20 0xFFFFFFFFFFFFFFFFFFFFFFFFFFFFFFFFFFFFFFFF AND DUP4 PUSH20 0xFFFFFFFFFFFFFFFFFFFFFFFFFFFFFFFFFFFFFFFF AND SUB PUSH2 0xE3E JUMPI DUP1 PUSH1 0x2 PUSH1 0x0 DUP3 DUP3 SLOAD PUSH2 0xE32 SWAP2 SWAP1 PUSH2 0x13E3 JUMP JUMPDEST SWAP3 POP POP DUP2 SWAP1 SSTORE POP PUSH2 0xF11 JUMP JUMPDEST PUSH1 0x0 DUP1 PUSH1 0x0 DUP6 PUSH20 0xFFFFFFFFFFFFFFFFFFFFFFFFFFFFFFFFFFFFFFFF AND PUSH20 0xFFFFFFFFFFFFFFFFFFFFFFFFFFFFFFFFFFFFFFFF AND DUP2 MSTORE PUSH1 0x20 ADD SWAP1 DUP2 MSTORE PUSH1 0x20 ADD PUSH1 0x0 KECCAK256 SLOAD SWAP1 POP DUP2 DUP2 LT ISZERO PUSH2 0xECA JUMPI DUP4 DUP2 DUP4 PUSH1 0x40 MLOAD PUSH32 0xE450D38C00000000000000000000000000000000000000000000000000000000 DUP2 MSTORE PUSH1 0x4 ADD PUSH2 0xEC1 SWAP4 SWAP3 SWAP2 SWAP1 PUSH2 0x137D JUMP JUMPDEST PUSH1 0x40 MLOAD DUP1 SWAP2 SUB SWAP1 REVERT JUMPDEST DUP2 DUP2 SUB PUSH1 0x0 DUP1 DUP7 PUSH20 0xFFFFFFFFFFFFFFFFFFFFFFFFFFFFFFFFFFFFFFFF AND PUSH20 0xFFFFFFFFFFFFFFFFFFFFFFFFFFFFFFFFFFFFFFFF AND DUP2 MSTORE PUSH1 0x20 ADD SWAP1 DUP2 MSTORE PUSH1 0x20 ADD PUSH1 0x0 KECCAK256 DUP2 SWAP1 SSTORE POP POP JUMPDEST PUSH1 0x0 PUSH20 0xFFFFFFFFFFFFFFFFFFFFFFFFFFFFFFFFFFFFFFFF AND DUP3 PUSH20 0xFFFFFFFFFFFFFFFFFFFFFFFFFFFFFFFFFFFFFFFF AND SUB PUSH2 0xF5A JUMPI DUP1 PUSH1 0x2 PUSH1 0x0 DUP3 DUP3 SLOAD SUB SWAP3 POP POP DUP2 SWAP1 SSTORE POP PUSH2 0xFA7 JUMP JUMPDEST DUP1 PUSH1 0x0 DUP1 DUP5 PUSH20 0xFFFFFFFFFFFFFFFFFFFFFFFFFFFFFFFFFFFFFFFF AND PUSH20 0xFFFFFFFFFFFFFFFFFFFFFFFFFFFFFFFFFFFFFFFF AND DUP2 MSTORE PUSH1 0x20 ADD SWAP1 DUP2 MSTORE PUSH1 0x20 ADD PUSH1 0x0 KECCAK256 PUSH1 0x0 DUP3 DUP3 SLOAD ADD SWAP3 POP POP DUP2 SWAP1 SSTORE POP JUMPDEST DUP2 PUSH20 0xFFFFFFFFFFFFFFFFFFFFFFFFFFFFFFFFFFFFFFFF AND DUP4 PUSH20 0xFFFFFFFFFFFFFFFFFFFFFFFFFFFFFFFFFFFFFFFF AND PUSH32 0xDDF252AD1BE2C89B69C2B068FC378DAA952BA7F163C4A11628F55A4DF523B3EF DUP4 PUSH1 0x40 MLOAD PUSH2 0x1004 SWAP2 SWAP1 PUSH2 0x11E1 JUMP JUMPDEST PUSH1 0x40 MLOAD DUP1 SWAP2 SUB SWAP1 LOG3 POP POP POP JUMP JUMPDEST PUSH1 0x0 DUP2 MLOAD SWAP1 POP SWAP2 SWAP1 POP JUMP JUMPDEST PUSH1 0x0 DUP3 DUP3 MSTORE PUSH1 0x20 DUP3 ADD SWAP1 POP SWAP3 SWAP2 POP POP JUMP JUMPDEST PUSH1 0x0 JUMPDEST DUP4 DUP2 LT ISZERO PUSH2 0x104B JUMPI DUP1 DUP3 ADD MLOAD DUP2 DUP5 ADD MSTORE PUSH1 0x20 DUP2 ADD SWAP1 POP PUSH2 0x1030 JUMP JUMPDEST PUSH1 0x0 DUP5 DUP5 ADD MSTORE POP POP POP POP JUMP JUMPDEST PUSH1 0x0 PUSH1 0x1F NOT PUSH1 0x1F DUP4 ADD AND SWAP1 POP SWAP2 SWAP1 POP JUMP JUMPDEST PUSH1 0x0 PUSH2 0x1073 DUP3 PUSH2 0x1011 JUMP JUMPDEST PUSH2 0x107D DUP2 DUP6 PUSH2 0x101C JUMP JUMPDEST SWAP4 POP PUSH2 0x108D DUP2 DUP6 PUSH1 0x20 DUP7 ADD PUSH2 0x102D JUMP JUMPDEST PUSH2 0x1096 DUP2 PUSH2 0x1057 JUMP JUMPDEST DUP5 ADD SWAP2 POP POP SWAP3 SWAP2 POP POP JUMP JUMPDEST PUSH1 0x0 PUSH1 0x20 DUP3 ADD SWAP1 POP DUP2 DUP2 SUB PUSH1 0x0 DUP4 ADD MSTORE PUSH2 0x10BB DUP2 DUP5 PUSH2 0x1068 JUMP JUMPDEST SWAP1 POP SWAP3 SWAP2 POP POP JUMP JUMPDEST PUSH1 0x0 DUP1 REVERT JUMPDEST PUSH1 0x0 PUSH20 0xFFFFFFFFFFFFFFFFFFFFFFFFFFFFFFFFFFFFFFFF DUP3 AND SWAP1 POP SWAP2 SWAP1 POP JUMP JUMPDEST PUSH1 0x0 PUSH2 0x10F3 DUP3 PUSH2 0x10C8 JUMP JUMPDEST SWAP1 POP SWAP2 SWAP1 POP JUMP JUMPDEST PUSH2 0x1103 DUP2 PUSH2 0x10E8 JUMP JUMPDEST DUP2 EQ PUSH2 0x110E JUMPI PUSH1 0x0 DUP1 REVERT JUMPDEST POP JUMP JUMPDEST PUSH1 0x0 DUP2 CALLDATALOAD SWAP1 POP PUSH2 0x1120 DUP2 PUSH2 0x10FA JUMP JUMPDEST SWAP3 SWAP2 POP POP JUMP JUMPDEST PUSH1 0x0 DUP2 SWAP1 POP SWAP2 SWAP1 POP JUMP JUMPDEST PUSH2 0x1139 DUP2 PUSH2 0x1126 JUMP JUMPDEST DUP2 EQ PUSH2 0x1144 JUMPI PUSH1 0x0 DUP1 REVERT JUMPDEST POP JUMP JUMPDEST PUSH1 0x0 DUP2 CALLDATALOAD SWAP1 POP PUSH2 0x1156 DUP2 PUSH2 0x1130 JUMP JUMPDEST SWAP3 SWAP2 POP POP JUMP JUMPDEST PUSH1 0x0 DUP1 PUSH1 0x40 DUP4 DUP6 SUB SLT ISZERO PUSH2 0x1173 JUMPI PUSH2 0x1172 PUSH2 0x10C3 JUMP JUMPDEST JUMPDEST PUSH1 0x0 PUSH2 0x1181 DUP6 DUP3 DUP7 ADD PUSH2 0x1111 JUMP JUMPDEST SWAP3 POP POP PUSH1 0x20 PUSH2 0x1192 DUP6 DUP3 DUP7 ADD PUSH2 0x1147 JUMP JUMPDEST SWAP2 POP POP SWAP3 POP SWAP3 SWAP1 POP JUMP JUMPDEST PUSH1 0x0 DUP2 ISZERO ISZERO SWAP1 POP SWAP2 SWAP1 POP JUMP JUMPDEST PUSH2 0x11B1 DUP2 PUSH2 0x119C JUMP JUMPDEST DUP3 MSTORE POP POP JUMP JUMPDEST PUSH1 0x0 PUSH1 0x20 DUP3 ADD SWAP1 POP PUSH2 0x11CC PUSH1 0x0 DUP4 ADD DUP5 PUSH2 0x11A8 JUMP JUMPDEST SWAP3 SWAP2 POP POP JUMP JUMPDEST PUSH2 0x11DB DUP2 PUSH2 0x1126 JUMP JUMPDEST DUP3 MSTORE POP POP JUMP JUMPDEST PUSH1 0x0 PUSH1 0x20 DUP3 ADD SWAP1 POP PUSH2 0x11F6 PUSH1 0x0 DUP4 ADD DUP5 PUSH2 0x11D2 JUMP JUMPDEST SWAP3 SWAP2 POP POP JUMP JUMPDEST PUSH1 0x0 DUP1 PUSH1 0x0 PUSH1 0x60 DUP5 DUP7 SUB SLT ISZERO PUSH2 0x1215 JUMPI PUSH2 0x1214 PUSH2 0x10C3 JUMP JUMPDEST JUMPDEST PUSH1 0x0 PUSH2 0x1223 DUP7 DUP3 DUP8 ADD PUSH2 0x1111 JUMP JUMPDEST SWAP4 POP POP PUSH1 0x20 PUSH2 0x1234 DUP7 DUP3 DUP8 ADD PUSH2 0x1111 JUMP JUMPDEST SWAP3 POP POP PUSH1 0x40 PUSH2 0x1245 DUP7 DUP3 DUP8 ADD PUSH2 0x1147 JUMP JUMPDEST SWAP2 POP POP SWAP3 POP SWAP3 POP SWAP3 JUMP JUMPDEST PUSH1 0x0 PUSH1 0xFF DUP3 AND SWAP1 POP SWAP2 SWAP1 POP JUMP JUMPDEST PUSH2 0x1265 DUP2 PUSH2 0x124F JUMP JUMPDEST DUP3 MSTORE POP POP JUMP JUMPDEST PUSH1 0x0 PUSH1 0x20 DUP3 ADD SWAP1 POP PUSH2 0x1280 PUSH1 0x0 DUP4 ADD DUP5 PUSH2 0x125C JUMP JUMPDEST SWAP3 SWAP2 POP POP JUMP JUMPDEST PUSH1 0x0 PUSH1 0x20 DUP3 DUP5 SUB SLT ISZERO PUSH2 0x129C JUMPI PUSH2 0x129B PUSH2 0x10C3 JUMP JUMPDEST JUMPDEST PUSH1 0x0 PUSH2 0x12AA DUP5 DUP3 DUP6 ADD PUSH2 0x1111 JUMP JUMPDEST SWAP2 POP POP SWAP3 SWAP2 POP POP JUMP JUMPDEST PUSH2 0x12BC DUP2 PUSH2 0x10E8 JUMP JUMPDEST DUP3 MSTORE POP POP JUMP JUMPDEST PUSH1 0x0 PUSH1 0x20 DUP3 ADD SWAP1 POP PUSH2 0x12D7 PUSH1 0x0 DUP4 ADD DUP5 PUSH2 0x12B3 JUMP JUMPDEST SWAP3 SWAP2 POP POP JUMP JUMPDEST PUSH1 0x0 DUP1 PUSH1 0x40 DUP4 DUP6 SUB SLT ISZERO PUSH2 0x12F4 JUMPI PUSH2 0x12F3 PUSH2 0x10C3 JUMP JUMPDEST JUMPDEST PUSH1 0x0 PUSH2 0x1302 DUP6 DUP3 DUP7 ADD PUSH2 0x1111 JUMP JUMPDEST SWAP3 POP POP PUSH1 0x20 PUSH2 0x1313 DUP6 DUP3 DUP7 ADD PUSH2 0x1111 JUMP JUMPDEST SWAP2 POP POP SWAP3 POP SWAP3 SWAP1 POP JUMP JUMPDEST PUSH32 0x4E487B7100000000000000000000000000000000000000000000000000000000 PUSH1 0x0 MSTORE PUSH1 0x22 PUSH1 0x4 MSTORE PUSH1 0x24 PUSH1 0x0 REVERT JUMPDEST PUSH1 0x0 PUSH1 0x2 DUP3 DIV SWAP1 POP PUSH1 0x1 DUP3 AND DUP1 PUSH2 0x1364 JUMPI PUSH1 0x7F DUP3 AND SWAP2 POP JUMPDEST PUSH1 0x20 DUP3 LT DUP2 SUB PUSH2 0x1377 JUMPI PUSH2 0x1376 PUSH2 0x131D JUMP JUMPDEST JUMPDEST POP SWAP2 SWAP1 POP JUMP JUMPDEST PUSH1 0x0 PUSH1 0x60 DUP3 ADD SWAP1 POP PUSH2 0x1392 PUSH1 0x0 DUP4 ADD DUP7 PUSH2 0x12B3 JUMP JUMPDEST PUSH2 0x139F PUSH1 0x20 DUP4 ADD DUP6 PUSH2 0x11D2 JUMP JUMPDEST PUSH2 0x13AC PUSH1 0x40 DUP4 ADD DUP5 PUSH2 0x11D2 JUMP JUMPDEST SWAP5 SWAP4 POP POP POP POP JUMP JUMPDEST PUSH32 0x4E487B7100000000000000000000000000000000000000000000000000000000 PUSH1 0x0 MSTORE PUSH1 0x11 PUSH1 0x4 MSTORE PUSH1 0x24 PUSH1 0x0 REVERT JUMPDEST PUSH1 0x0 PUSH2 0x13EE DUP3 PUSH2 0x1126 JUMP JUMPDEST SWAP2 POP PUSH2 0x13F9 DUP4 PUSH2 0x1126 JUMP JUMPDEST SWAP3 POP DUP3 DUP3 ADD SWAP1 POP DUP1 DUP3 GT ISZERO PUSH2 0x1411 JUMPI PUSH2 0x1410 PUSH2 0x13B4 JUMP JUMPDEST JUMPDEST SWAP3 SWAP2 POP POP JUMP INVALID LOG2 PUSH5 0x6970667358 0x22 SLT KECCAK256 0x4E 0xDB 0xD6 POP PUSH21 0x202B83C2082E7DE5A5454F010CED894A71E0EEA4B1 0xEC SWAP2 PUSH20 0x83A04F64736F6C63430008180033000000000000 "},"methodIdentifiers":{"allowance(address,address)":"dd62ed3e","approve(address,uint256)":"095ea7b3","balanceOf(address)":"70a08231","decimals()":"313ce567","mint(address,uint256)":"40c10f19","name()":"06fdde03","owner()":"8da5cb5b","pause()":"8456cb59","paused()":"5c975abb","renounceOwnership()":"715018a6","symbol()":"95d89b41","totalSupply()":"18160ddd","transfer(address,uint256)":"a9059cbb","transferFrom(address,address,uint256)":"23b872dd","transferOwnership(address)":"f2fde38b","unpause()":"3f4ba83a"}},"storageLayout":{"storage":[{"astId":802,"contract":"contracts/EliEllaCoin.sol:EliEllaCoin","label":"_balances","offset":0,"slot":"0","type":"t_mapping(t_address,t_uint256)"},{"astId":808,"contract":"contracts/EliEllaCoin.sol:EliEllaCoin","label":"_allowances","offset":0,"slot":"1","type":"t_mapping(t_address,t_mapping(t_address,t_uint256))"},{"astId":810,"contract":"contracts/EliEllaCoin.sol:EliEllaCoin","label":"_totalSupply","offset":0,"slot":"2","type":"t_uint256"},{"astId":812,"contract":"contracts/EliEllaCoin.sol:EliEllaCoin","label":"_name","offset":0,"slot":"3","type":"t_string_storage"},{"astId":814,"contract":"contracts/EliEllaCoin.sol:EliEllaCoin","label":"_symbol","offset":0,"slot":"4","type":"t_string_storage"},{"astId":1471,"contract":"contracts/EliEllaCoin.sol:EliEllaCoin","label":"_paused","offset":0,"slot":"5","type":"t_bool"},{"astId":503,"contract":"contracts/EliEllaCoin.sol:EliEllaCoin","label":"_owner","offset":1,"slot":"5","type":"t_address"}],"types":{"t_address":{"encoding":"inplace","label":"address","numberOfBytes":"20"},"t_bool":{"encoding":"inplace","label":"bool","numberOfBytes":"1"},"t_mapping(t_address,t_mapping(t_address,t_uint256))":{"encoding":"mapping","key":"t_address","label":"mapping(address => mapping(address => uint256))","numberOfBytes":"32","value":"t_mapping(t_address,t_uint256)"},"t_mapping(t_address,t_uint256)":{"encoding":"mapping","key":"t_address","label":"mapping(address => uint256)","numberOfBytes":"32","value":"t_uint256"},"t_string_storage":{"encoding":"bytes","label":"string","numberOfBytes":"32"},"t_uint256":{"encoding":"inplace","label":"uint256","numberOfBytes":"32"}}}}}}