{"contracts/Casino.sol":{"Casino":{"abi":[{"inputs":[],"name":"InvalidInitialization","type":"error"},{"inputs":[],"name":"NotInitializing","type":"error"},{"inputs":[{"internalType":"address","name":"owner","type":"address"}],"name":"OwnableInvalidOwner","type":"error"},{"inputs":[{"internalType":"address","name":"account","type":"address"}],"name":"OwnableUnauthorizedAccount","type":"error"},{"anonymous":false,"inputs":[{"indexed":true,"internalType":"address","name":"user","type":"address"},{"indexed":false,"internalType":"string","name":"game","type":"string"},{"indexed":false,"internalType":"uint256","name":"amount","type":"uint256"},{"indexed":false,"internalType":"uint256","name":"timestamp","type":"uint256"}],"name":"BetPlaced","type":"event"},{"anonymous":false,"inputs":[{"indexed":true,"internalType":"address","name":"user","type":"address"},{"indexed":false,"internalType":"uint256","name":"amount","type":"uint256"},{"indexed":false,"internalType":"uint256","name":"fee","type":"uint256"},{"indexed":false,"internalType":"uint256","name":"timestamp","type":"uint256"}],"name":"Deposited","type":"event"},{"anonymous":false,"inputs":[{"indexed":false,"internalType":"uint64","name":"version","type":"uint64"}],"name":"Initialized","type":"event"},{"anonymous":false,"inputs":[{"indexed":false,"internalType":"uint256","name":"newMaxDepositAmount","type":"uint256"}],"name":"MaxDepositAmountUpdated","type":"event"},{"anonymous":false,"inputs":[{"indexed":false,"internalType":"uint256","name":"newMaxWithdrawAmount","type":"uint256"}],"name":"MaxWithdrawAmountUpdated","type":"event"},{"anonymous":false,"inputs":[{"indexed":false,"internalType":"uint256","name":"newMinDepositAmount","type":"uint256"}],"name":"MinDepositAmountUpdated","type":"event"},{"anonymous":false,"inputs":[{"indexed":false,"internalType":"uint256","name":"newMinWithdrawAmount","type":"uint256"}],"name":"MinWithdrawAmountUpdated","type":"event"},{"anonymous":false,"inputs":[{"indexed":true,"internalType":"address","name":"previousOwner","type":"address"},{"indexed":true,"internalType":"address","name":"newOwner","type":"address"}],"name":"OwnershipTransferred","type":"event"},{"anonymous":false,"inputs":[{"indexed":true,"internalType":"address","name":"user","type":"address"},{"indexed":false,"internalType":"uint256","name":"prizeAmount","type":"uint256"},{"indexed":false,"internalType":"uint256","name":"timestamp","type":"uint256"}],"name":"PrizeClaimed","type":"event"},{"anonymous":false,"inputs":[{"indexed":false,"internalType":"string","name":"game","type":"string"},{"indexed":false,"internalType":"uint256[]","name":"winningNumbers","type":"uint256[]"},{"indexed":false,"internalType":"uint256","name":"timestamp","type":"uint256"}],"name":"ResultDrawn","type":"event"},{"anonymous":false,"inputs":[{"indexed":true,"internalType":"address","name":"user","type":"address"},{"indexed":false,"internalType":"uint256","name":"amount","type":"uint256"},{"indexed":false,"internalType":"uint256","name":"fee","type":"uint256"},{"indexed":false,"internalType":"uint256","name":"timestamp","type":"uint256"}],"name":"Withdrawn","type":"event"},{"inputs":[{"internalType":"address","name":"","type":"address"}],"name":"balances","outputs":[{"internalType":"uint256","name":"balance","type":"uint256"},{"internalType":"uint256","name":"depositTimestamp","type":"uint256"}],"stateMutability":"view","type":"function"},{"inputs":[{"internalType":"uint256","name":"amount","type":"uint256"}],"name":"calculateFee","outputs":[{"internalType":"uint256","name":"","type":"uint256"}],"stateMutability":"pure","type":"function"},{"inputs":[{"internalType":"uint256","name":"prizeAmount","type":"uint256"}],"name":"claimPrize","outputs":[],"stateMutability":"nonpayable","type":"function"},{"inputs":[{"internalType":"uint256","name":"amount","type":"uint256"}],"name":"deposit","outputs":[],"stateMutability":"nonpayable","type":"function"},{"inputs":[{"internalType":"string","name":"game","type":"string"},{"internalType":"uint256[]","name":"winningNumbers","type":"uint256[]"}],"name":"drawResult","outputs":[],"stateMutability":"nonpayable","type":"function"},{"inputs":[{"internalType":"address","name":"user","type":"address"}],"name":"getUserBalance","outputs":[{"internalType":"uint256","name":"","type":"uint256"}],"stateMutability":"view","type":"function"},{"inputs":[{"internalType":"address","name":"user","type":"address"}],"name":"getUserDepositTimestamp","outputs":[{"internalType":"uint256","name":"","type":"uint256"}],"stateMutability":"view","type":"function"},{"inputs":[{"internalType":"address","name":"tokenAddress","type":"address"},{"internalType":"address","name":"initialOwner","type":"address"}],"name":"initialize","outputs":[],"stateMutability":"nonpayable","type":"function"},{"inputs":[],"name":"maxDepositAmount","outputs":[{"internalType":"uint256","name":"","type":"uint256"}],"stateMutability":"view","type":"function"},{"inputs":[],"name":"maxWithdrawAmount","outputs":[{"internalType":"uint256","name":"","type":"uint256"}],"stateMutability":"view","type":"function"},{"inputs":[],"name":"minDepositAmount","outputs":[{"internalType":"uint256","name":"","type":"uint256"}],"stateMutability":"view","type":"function"},{"inputs":[],"name":"minWithdrawAmount","outputs":[{"internalType":"uint256","name":"","type":"uint256"}],"stateMutability":"view","type":"function"},{"inputs":[],"name":"owner","outputs":[{"internalType":"address","name":"","type":"address"}],"stateMutability":"view","type":"function"},{"inputs":[{"internalType":"string","name":"game","type":"string"},{"internalType":"uint256","name":"amount","type":"uint256"}],"name":"placeBet","outputs":[],"stateMutability":"nonpayable","type":"function"},{"inputs":[],"name":"renounceOwnership","outputs":[],"stateMutability":"nonpayable","type":"function"},{"inputs":[],"name":"token","outputs":[{"internalType":"contract EliEllaCoin","name":"","type":"address"}],"stateMutability":"view","type":"function"},{"inputs":[{"internalType":"address","name":"newOwner","type":"address"}],"name":"transferOwnership","outputs":[],"stateMutability":"nonpayable","type":"function"},{"inputs":[{"internalType":"uint256","name":"newMaxDepositAmount","type":"uint256"}],"name":"updateMaxDepositAmount","outputs":[],"stateMutability":"nonpayable","type":"function"},{"inputs":[{"internalType":"uint256","name":"newMaxWithdrawAmount","type":"uint256"}],"name":"updateMaxWithdrawAmount","outputs":[],"stateMutability":"nonpayable","type":"function"},{"inputs":[{"internalType":"uint256","name":"newMinDepositAmount","type":"uint256"}],"name":"updateMinDepositAmount","outputs":[],"stateMutability":"nonpayable","type":"function"},{"inputs":[{"internalType":"uint256","name":"newMinWithdrawAmount","type":"uint256"}],"name":"updateMinWithdrawAmount","outputs":[],"stateMutability":"nonpayable","type":"function"},{"inputs":[{"internalType":"uint256","name":"amount","type":"uint256"}],"name":"withdraw","outputs":[],"stateMutability":"nonpayable","type":"function"}],"evm":{"bytecode":{"linkReferences":{},"object":"608060405234801561001057600080fd5b50612530806100206000396000f3fe608060405234801561001057600080fd5b50600436106101425760003560e01c80638da5cb5b116100b8578063d70981541161007c578063d70981541461034e578063d76f2a1e1461036a578063f2fde38b14610386578063f516440c146103a2578063fc0c546a146103c0578063ff4f3546146103de57610142565b80638da5cb5b146102965780638ed83271146102b457806399a5d747146102d2578063b6b55f2514610302578063c8495e441461031e57610142565b8063477348921161010a57806347734892146101ea578063485cc9551461021a5780635b9cc8b114610236578063645006ca14610252578063715018a614610270578063847802051461027a57610142565b80630945d42c1461014757806327e235e3146101635780632e1a7d4d1461019457806343471f76146101b0578063457e1a49146101cc575b600080fd5b610161600480360381019061015c919061174a565b6103fa565b005b61017d600480360381019061017891906117d5565b610443565b60405161018b929190611811565b60405180910390f35b6101ae60048036038101906101a9919061174a565b610467565b005b6101ca60048036038101906101c59190611a48565b6107fd565b005b6101d4610844565b6040516101e19190611ac0565b60405180910390f35b61020460048036038101906101ff91906117d5565b61084a565b6040516102119190611ac0565b60405180910390f35b610234600480360381019061022f9190611adb565b610896565b005b610250600480360381019061024b919061174a565b610aa6565b005b61025a610aef565b6040516102679190611ac0565b60405180910390f35b610278610af5565b005b610294600480360381019061028f919061174a565b610b09565b005b61029e610b52565b6040516102ab9190611b2a565b60405180910390f35b6102bc610b8a565b6040516102c99190611ac0565b60405180910390f35b6102ec60048036038101906102e7919061174a565b610b90565b6040516102f99190611ac0565b60405180910390f35b61031c6004803603810190610317919061174a565b610c16565b005b610338600480360381019061033391906117d5565b610f72565b6040516103459190611ac0565b60405180910390f35b6103686004803603810190610363919061174a565b610fbe565b005b610384600480360381019061037f9190611b45565b611146565b005b6103a0600480360381019061039b91906117d5565b611357565b005b6103aa6113dd565b6040516103b79190611ac0565b60405180910390f35b6103c86113e3565b6040516103d59190611c00565b60405180910390f35b6103f860048036038101906103f3919061174a565b611407565b005b610402611450565b806003819055507ff3a20ec5419fa349cc76e6601e9ffbd3de96f394ead13b22aaa4c70937d91e01816040516104389190611ac0565b60405180910390a150565b60016020528060005260406000206000915090508060000154908060010154905082565b6004548110156104ac576040517f08c379a00000000000000000000000000000000000000000000000000000000081526004016104a390611c78565b60405180910390fd5b6005548111156104f1576040517f08c379a00000000000000000000000000000000000000000000000000000000081526004016104e890611d0a565b60405180910390fd5b80600160003373ffffffffffffffffffffffffffffffffffffffff1673ffffffffffffffffffffffffffffffffffffffff168152602001908152602001600020600001541015610576576040517f08c379a000000000000000000000000000000000000000000000000000000000815260040161056d90611d76565b60405180910390fd5b600061058182610b90565b9050600081836105919190611dc5565b905082600160003373ffffffffffffffffffffffffffffffffffffffff1673ffffffffffffffffffffffffffffffffffffffff16815260200190815260200160002060000160008282546105e59190611dc5565b9250508190555060008054906101000a900473ffffffffffffffffffffffffffffffffffffffff1673ffffffffffffffffffffffffffffffffffffffff1663a9059cbb33836040518363ffffffff1660e01b8152600401610647929190611df9565b6020604051808303816000875af1158015610666573d6000803e3d6000fd5b505050506040513d601f19601f8201168201806040525081019061068a9190611e5a565b6106c9576040517f08c379a00000000000000000000000000000000000000000000000000000000081526004016106c090611ed3565b60405180910390fd5b60008054906101000a900473ffffffffffffffffffffffffffffffffffffffff1673ffffffffffffffffffffffffffffffffffffffff1663a9059cbb30846040518363ffffffff1660e01b8152600401610724929190611df9565b6020604051808303816000875af1158015610743573d6000803e3d6000fd5b505050506040513d601f19601f820116820180604052508101906107679190611e5a565b6107a6576040517f08c379a000000000000000000000000000000000000000000000000000000000815260040161079d90611f3f565b60405180910390fd5b3373ffffffffffffffffffffffffffffffffffffffff167f75e161b3e824b114fc1a33274bd7091918dd4e639cede50b78b15a4eea956a218284426040516107f093929190611f5f565b60405180910390a2505050565b610805611450565b7f93c7fd86fd6b1d609a528d3464c486d46453b73c55ed9c6daf2ffc13a7ac2fc8828242604051610838939291906120c2565b60405180910390a15050565b60045481565b6000600160008373ffffffffffffffffffffffffffffffffffffffff1673ffffffffffffffffffffffffffffffffffffffff168152602001908152602001600020600001549050919050565b60006108a06114d7565b905060008160000160089054906101000a900460ff1615905060008260000160009054906101000a900467ffffffffffffffff1690506000808267ffffffffffffffff161480156108ee5750825b9050600060018367ffffffffffffffff16148015610923575060003073ffffffffffffffffffffffffffffffffffffffff163b145b905081158015610931575080155b15610968576040517ff92ee8a900000000000000000000000000000000000000000000000000000000815260040160405180910390fd5b60018560000160006101000a81548167ffffffffffffffff021916908367ffffffffffffffff16021790555083156109b85760018560000160086101000a81548160ff0219169083151502179055505b6109c1866114ff565b866000806101000a81548173ffffffffffffffffffffffffffffffffffffffff021916908373ffffffffffffffffffffffffffffffffffffffff160217905550678ac7230489e8000060028190555069021e19e0c9bab2400000600381905550678ac7230489e8000060048190555069021e19e0c9bab24000006005819055508315610a9d5760008560000160086101000a81548160ff0219169083151502179055507fc7f505b2f371ae2175ee4913f4499e1f2633a7b5936321eed1cdaeb6115181d26001604051610a949190612156565b60405180910390a15b50505050505050565b610aae611450565b806005819055507ff7f62050dfde89f48d970e352bfbadc8c28af7a877f2b21fb99291b384dd63a581604051610ae49190611ac0565b60405180910390a150565b60025481565b610afd611450565b610b076000611513565b565b610b11611450565b806002819055507fb443c8bd39a1b60d415144f9148c6f90c2b68a553eb90c62cef5e44979db009d81604051610b479190611ac0565b60405180910390a150565b600080610b5d6115ea565b90508060000160009054906101000a900473ffffffffffffffffffffffffffffffffffffffff1691505090565b60035481565b6000683635c9adc5dea00000821015610bc3576064600183610bb29190612171565b610bbc91906121e2565b9050610c11565b69010f0cf064dd59200000821015610bf5576064600283610be49190612171565b610bee91906121e2565b9050610c11565b6064600583610c049190612171565b610c0e91906121e2565b90505b919050565b600254811015610c5b576040517f08c379a0000000000000000000000000000000000000000000000000000000008152600401610c529061225f565b60405180910390fd5b600354811115610ca0576040517f08c379a0000000000000000000000000000000000000000000000000000000008152600401610c97906122f1565b60405180910390fd5b6000610cab82610b90565b905060008183610cbb9190611dc5565b905060008054906101000a900473ffffffffffffffffffffffffffffffffffffffff1673ffffffffffffffffffffffffffffffffffffffff166323b872dd3330856040518463ffffffff1660e01b8152600401610d1a93929190612311565b6020604051808303816000875af1158015610d39573d6000803e3d6000fd5b505050506040513d601f19601f82011682018060405250810190610d5d9190611e5a565b610d9c576040517f08c379a0000000000000000000000000000000000000000000000000000000008152600401610d9390611f3f565b60405180910390fd5b60008054906101000a900473ffffffffffffffffffffffffffffffffffffffff1673ffffffffffffffffffffffffffffffffffffffff166323b872dd3330846040518463ffffffff1660e01b8152600401610df993929190612311565b6020604051808303816000875af1158015610e18573d6000803e3d6000fd5b505050506040513d601f19601f82011682018060405250810190610e3c9190611e5a565b610e7b576040517f08c379a0000000000000000000000000000000000000000000000000000000008152600401610e7290611ed3565b60405180910390fd5b80600160003373ffffffffffffffffffffffffffffffffffffffff1673ffffffffffffffffffffffffffffffffffffffff1681526020019081526020016000206000016000828254610ecd9190612348565b9250508190555042600160003373ffffffffffffffffffffffffffffffffffffffff1673ffffffffffffffffffffffffffffffffffffffff168152602001908152602001600020600101819055503373ffffffffffffffffffffffffffffffffffffffff167f91ede45f04a37a7c170f5c1207df3b6bc748dc1e04ad5e917a241d0f52feada3828442604051610f6593929190611f5f565b60405180910390a2505050565b6000600160008373ffffffffffffffffffffffffffffffffffffffff1673ffffffffffffffffffffffffffffffffffffffff168152602001908152602001600020600101549050919050565b8060008054906101000a900473ffffffffffffffffffffffffffffffffffffffff1673ffffffffffffffffffffffffffffffffffffffff166370a08231306040518263ffffffff1660e01b81526004016110189190611b2a565b602060405180830381865afa158015611035573d6000803e3d6000fd5b505050506040513d601f19601f820116820180604052508101906110599190612391565b101561109a576040517f08c379a000000000000000000000000000000000000000000000000000000000815260040161109190612430565b60405180910390fd5b80600160003373ffffffffffffffffffffffffffffffffffffffff1673ffffffffffffffffffffffffffffffffffffffff16815260200190815260200160002060000160008282546110ec9190612348565b925050819055503373ffffffffffffffffffffffffffffffffffffffff167f256642a903d86ec186d0ad895b74bdbe7f9e5a72db568f4c4d58c2fa38b39e1c824260405161113b929190611811565b60405180910390a250565b80600160003373ffffffffffffffffffffffffffffffffffffffff1673ffffffffffffffffffffffffffffffffffffffff1681526020019081526020016000206000015410156111cb576040517f08c379a00000000000000000000000000000000000000000000000000000000081526004016111c290611d76565b60405180910390fd5b80600160003373ffffffffffffffffffffffffffffffffffffffff1673ffffffffffffffffffffffffffffffffffffffff168152602001908152602001600020600001600082825461121d9190611dc5565b9250508190555060008054906101000a900473ffffffffffffffffffffffffffffffffffffffff1673ffffffffffffffffffffffffffffffffffffffff1663a9059cbb30836040518363ffffffff1660e01b815260040161127f929190611df9565b6020604051808303816000875af115801561129e573d6000803e3d6000fd5b505050506040513d601f19601f820116820180604052508101906112c29190611e5a565b611301576040517f08c379a00000000000000000000000000000000000000000000000000000000081526004016112f89061249c565b60405180910390fd5b3373ffffffffffffffffffffffffffffffffffffffff167f2b7f5e912953772fb4a8a4b18d548d073802c268a792527fe2c22fcb76606dad83834260405161134b939291906124bc565b60405180910390a25050565b61135f611450565b600073ffffffffffffffffffffffffffffffffffffffff168173ffffffffffffffffffffffffffffffffffffffff16036113d15760006040517f1e4fbdf70000000000000000000000000000000000000000000000000000000081526004016113c89190611b2a565b60405180910390fd5b6113da81611513565b50565b60055481565b60008054906101000a900473ffffffffffffffffffffffffffffffffffffffff1681565b61140f611450565b806004819055507f57a509cf8728c3d0b14ab31d86ea270320d70f454b1c64248b182864ae836b14816040516114459190611ac0565b60405180910390a150565b611458611612565b73ffffffffffffffffffffffffffffffffffffffff16611476610b52565b73ffffffffffffffffffffffffffffffffffffffff16146114d557611499611612565b6040517f118cdaa70000000000000000000000000000000000000000000000000000000081526004016114cc9190611b2a565b60405180910390fd5b565b60007ff0c57e16840df040f15088dc2f81fe391c3923bec73e23a9662efc9c229c6a00905090565b61150761161a565b6115108161165a565b50565b600061151d6115ea565b905060008160000160009054906101000a900473ffffffffffffffffffffffffffffffffffffffff169050828260000160006101000a81548173ffffffffffffffffffffffffffffffffffffffff021916908373ffffffffffffffffffffffffffffffffffffffff1602179055508273ffffffffffffffffffffffffffffffffffffffff168173ffffffffffffffffffffffffffffffffffffffff167f8be0079c531659141344cd1fd0a4f28419497f9722a3daafe3b4186f6b6457e060405160405180910390a3505050565b60007f9016d09d72d40fdae2fd8ceac6b6234c7706214fd39c1cd1e609a0528c199300905090565b600033905090565b6116226116e0565b611658576040517fd7e6bcf800000000000000000000000000000000000000000000000000000000815260040160405180910390fd5b565b61166261161a565b600073ffffffffffffffffffffffffffffffffffffffff168173ffffffffffffffffffffffffffffffffffffffff16036116d45760006040517f1e4fbdf70000000000000000000000000000000000000000000000000000000081526004016116cb9190611b2a565b60405180910390fd5b6116dd81611513565b50565b60006116ea6114d7565b60000160089054906101000a900460ff16905090565b6000604051905090565b600080fd5b600080fd5b6000819050919050565b61172781611714565b811461173257600080fd5b50565b6000813590506117448161171e565b92915050565b6000602082840312156117605761175f61170a565b5b600061176e84828501611735565b91505092915050565b600073ffffffffffffffffffffffffffffffffffffffff82169050919050565b60006117a282611777565b9050919050565b6117b281611797565b81146117bd57600080fd5b50565b6000813590506117cf816117a9565b92915050565b6000602082840312156117eb576117ea61170a565b5b60006117f9848285016117c0565b91505092915050565b61180b81611714565b82525050565b60006040820190506118266000830185611802565b6118336020830184611802565b9392505050565b600080fd5b600080fd5b6000601f19601f8301169050919050565b7f4e487b7100000000000000000000000000000000000000000000000000000000600052604160045260246000fd5b61188d82611844565b810181811067ffffffffffffffff821117156118ac576118ab611855565b5b80604052505050565b60006118bf611700565b90506118cb8282611884565b919050565b600067ffffffffffffffff8211156118eb576118ea611855565b5b6118f482611844565b9050602081019050919050565b82818337600083830152505050565b600061192361191e846118d0565b6118b5565b90508281526020810184848401111561193f5761193e61183f565b5b61194a848285611901565b509392505050565b600082601f8301126119675761196661183a565b5b8135611977848260208601611910565b91505092915050565b600067ffffffffffffffff82111561199b5761199a611855565b5b602082029050602081019050919050565b600080fd5b60006119c46119bf84611980565b6118b5565b905080838252602082019050602084028301858111156119e7576119e66119ac565b5b835b81811015611a1057806119fc8882611735565b8452602084019350506020810190506119e9565b5050509392505050565b600082601f830112611a2f57611a2e61183a565b5b8135611a3f8482602086016119b1565b91505092915050565b60008060408385031215611a5f57611a5e61170a565b5b600083013567ffffffffffffffff811115611a7d57611a7c61170f565b5b611a8985828601611952565b925050602083013567ffffffffffffffff811115611aaa57611aa961170f565b5b611ab685828601611a1a565b9150509250929050565b6000602082019050611ad56000830184611802565b92915050565b60008060408385031215611af257611af161170a565b5b6000611b00858286016117c0565b9250506020611b11858286016117c0565b9150509250929050565b611b2481611797565b82525050565b6000602082019050611b3f6000830184611b1b565b92915050565b60008060408385031215611b5c57611b5b61170a565b5b600083013567ffffffffffffffff811115611b7a57611b7961170f565b5b611b8685828601611952565b9250506020611b9785828601611735565b9150509250929050565b6000819050919050565b6000611bc6611bc1611bbc84611777565b611ba1565b611777565b9050919050565b6000611bd882611bab565b9050919050565b6000611bea82611bcd565b9050919050565b611bfa81611bdf565b82525050565b6000602082019050611c156000830184611bf1565b92915050565b600082825260208201905092915050565b7f576974686472617720616d6f756e7420697320746f6f206c6f77000000000000600082015250565b6000611c62601a83611c1b565b9150611c6d82611c2c565b602082019050919050565b60006020820190508181036000830152611c9181611c55565b9050919050565b7f576974686472617720616d6f756e742065786365656473206d6178696d756d2060008201527f6c696d6974000000000000000000000000000000000000000000000000000000602082015250565b6000611cf4602583611c1b565b9150611cff82611c98565b604082019050919050565b60006020820190508181036000830152611d2381611ce7565b9050919050565b7f496e73756666696369656e742062616c616e6365000000000000000000000000600082015250565b6000611d60601483611c1b565b9150611d6b82611d2a565b602082019050919050565b60006020820190508181036000830152611d8f81611d53565b9050919050565b7f4e487b7100000000000000000000000000000000000000000000000000000000600052601160045260246000fd5b6000611dd082611714565b9150611ddb83611714565b9250828203905081811115611df357611df2611d96565b5b92915050565b6000604082019050611e0e6000830185611b1b565b611e1b6020830184611802565b9392505050565b60008115159050919050565b611e3781611e22565b8114611e4257600080fd5b50565b600081519050611e5481611e2e565b92915050565b600060208284031215611e7057611e6f61170a565b5b6000611e7e84828501611e45565b91505092915050565b7f5472616e73666572206f66206e657420616d6f756e74206661696c6564000000600082015250565b6000611ebd601d83611c1b565b9150611ec882611e87565b602082019050919050565b60006020820190508181036000830152611eec81611eb0565b9050919050565b7f5472616e73666572206f6620666565206661696c656400000000000000000000600082015250565b6000611f29601683611c1b565b9150611f3482611ef3565b602082019050919050565b60006020820190508181036000830152611f5881611f1c565b9050919050565b6000606082019050611f746000830186611802565b611f816020830185611802565b611f8e6040830184611802565b949350505050565b600081519050919050565b60005b83811015611fbf578082015181840152602081019050611fa4565b60008484015250505050565b6000611fd682611f96565b611fe08185611c1b565b9350611ff0818560208601611fa1565b611ff981611844565b840191505092915050565b600081519050919050565b600082825260208201905092915050565b6000819050602082019050919050565b61203981611714565b82525050565b600061204b8383612030565b60208301905092915050565b6000602082019050919050565b600061206f82612004565b612079818561200f565b935061208483612020565b8060005b838110156120b557815161209c888261203f565b97506120a783612057565b925050600181019050612088565b5085935050505092915050565b600060608201905081810360008301526120dc8186611fcb565b905081810360208301526120f08185612064565b90506120ff6040830184611802565b949350505050565b6000819050919050565b600067ffffffffffffffff82169050919050565b600061214061213b61213684612107565b611ba1565b612111565b9050919050565b61215081612125565b82525050565b600060208201905061216b6000830184612147565b92915050565b600061217c82611714565b915061218783611714565b925082820261219581611714565b915082820484148315176121ac576121ab611d96565b5b5092915050565b7f4e487b7100000000000000000000000000000000000000000000000000000000600052601260045260246000fd5b60006121ed82611714565b91506121f883611714565b925082612208576122076121b3565b5b828204905092915050565b7f4465706f73697420616d6f756e7420697320746f6f206c6f7700000000000000600082015250565b6000612249601983611c1b565b915061225482612213565b602082019050919050565b600060208201905081810360008301526122788161223c565b9050919050565b7f4465706f73697420616d6f756e742065786365656473206d6178696d756d206c60008201527f696d697400000000000000000000000000000000000000000000000000000000602082015250565b60006122db602483611c1b565b91506122e68261227f565b604082019050919050565b6000602082019050818103600083015261230a816122ce565b9050919050565b60006060820190506123266000830186611b1b565b6123336020830185611b1b565b6123406040830184611802565b949350505050565b600061235382611714565b915061235e83611714565b925082820190508082111561237657612375611d96565b5b92915050565b60008151905061238b8161171e565b92915050565b6000602082840312156123a7576123a661170a565b5b60006123b58482850161237c565b91505092915050565b7f436173696e6f20646f6573206e6f74206861766520656e6f7567682066756e6460008201527f7320746f2070617920746865207072697a650000000000000000000000000000602082015250565b600061241a603283611c1b565b9150612425826123be565b604082019050919050565b600060208201905081810360008301526124498161240d565b9050919050565b7f5472616e73666572206f662062657420616d6f756e74206661696c6564000000600082015250565b6000612486601d83611c1b565b915061249182612450565b602082019050919050565b600060208201905081810360008301526124b581612479565b9050919050565b600060608201905081810360008301526124d68186611fcb565b90506124e56020830185611802565b6124f26040830184611802565b94935050505056fea264697066735822122050e8e648f4d175d444a7964df223b7f18719459f773f7373cecd8f00ab4af94b64736f6c63430008180033","opcodes":"PUSH1 0x80 PUSH1 0x40 MSTORE CALLVALUE DUP1 ISZERO PUSH2 0x10 JUMPI PUSH1 0x0 DUP1 REVERT JUMPDEST POP PUSH2 0x2530 DUP1 PUSH2 0x20 PUSH1 0x0 CODECOPY PUSH1 0x0 RETURN INVALID PUSH1 0x80 PUSH1 0x40 MSTORE CALLVALUE DUP1 ISZERO PUSH2 0x10 JUMPI PUSH1 0x0 DUP1 REVERT JUMPDEST POP PUSH1 0x4 CALLDATASIZE LT PUSH2 0x142 JUMPI PUSH1 0x0 CALLDATALOAD PUSH1 0xE0 SHR DUP1 PUSH4 0x8DA5CB5B GT PUSH2 0xB8 JUMPI DUP1 PUSH4 0xD7098154 GT PUSH2 0x7C JUMPI DUP1 PUSH4 0xD7098154 EQ PUSH2 0x34E JUMPI DUP1 PUSH4 0xD76F2A1E EQ PUSH2 0x36A JUMPI DUP1 PUSH4 0xF2FDE38B EQ PUSH2 0x386 JUMPI DUP1 PUSH4 0xF516440C EQ PUSH2 0x3A2 JUMPI DUP1 PUSH4 0xFC0C546A EQ PUSH2 0x3C0 JUMPI DUP1 PUSH4 0xFF4F3546 EQ PUSH2 0x3DE JUMPI PUSH2 0x142 JUMP JUMPDEST DUP1 PUSH4 0x8DA5CB5B EQ PUSH2 0x296 JUMPI DUP1 PUSH4 0x8ED83271 EQ PUSH2 0x2B4 JUMPI DUP1 PUSH4 0x99A5D747 EQ PUSH2 0x2D2 JUMPI DUP1 PUSH4 0xB6B55F25 EQ PUSH2 0x302 JUMPI DUP1 PUSH4 0xC8495E44 EQ PUSH2 0x31E JUMPI PUSH2 0x142 JUMP JUMPDEST DUP1 PUSH4 0x47734892 GT PUSH2 0x10A JUMPI DUP1 PUSH4 0x47734892 EQ PUSH2 0x1EA JUMPI DUP1 PUSH4 0x485CC955 EQ PUSH2 0x21A JUMPI DUP1 PUSH4 0x5B9CC8B1 EQ PUSH2 0x236 JUMPI DUP1 PUSH4 0x645006CA EQ PUSH2 0x252 JUMPI DUP1 PUSH4 0x715018A6 EQ PUSH2 0x270 JUMPI DUP1 PUSH4 0x84780205 EQ PUSH2 0x27A JUMPI PUSH2 0x142 JUMP JUMPDEST DUP1 PUSH4 0x945D42C EQ PUSH2 0x147 JUMPI DUP1 PUSH4 0x27E235E3 EQ PUSH2 0x163 JUMPI DUP1 PUSH4 0x2E1A7D4D EQ PUSH2 0x194 JUMPI DUP1 PUSH4 0x43471F76 EQ PUSH2 0x1B0 JUMPI DUP1 PUSH4 0x457E1A49 EQ PUSH2 0x1CC JUMPI JUMPDEST PUSH1 0x0 DUP1 REVERT JUMPDEST PUSH2 0x161 PUSH1 0x4 DUP1 CALLDATASIZE SUB DUP2 ADD SWAP1 PUSH2 0x15C SWAP2 SWAP1 PUSH2 0x174A JUMP JUMPDEST PUSH2 0x3FA JUMP JUMPDEST STOP JUMPDEST PUSH2 0x17D PUSH1 0x4 DUP1 CALLDATASIZE SUB DUP2 ADD SWAP1 PUSH2 0x178 SWAP2 SWAP1 PUSH2 0x17D5 JUMP JUMPDEST PUSH2 0x443 JUMP JUMPDEST PUSH1 0x40 MLOAD PUSH2 0x18B SWAP3 SWAP2 SWAP1 PUSH2 0x1811 JUMP JUMPDEST PUSH1 0x40 MLOAD DUP1 SWAP2 SUB SWAP1 RETURN JUMPDEST PUSH2 0x1AE PUSH1 0x4 DUP1 CALLDATASIZE SUB DUP2 ADD SWAP1 PUSH2 0x1A9 SWAP2 SWAP1 PUSH2 0x174A JUMP JUMPDEST PUSH2 0x467 JUMP JUMPDEST STOP JUMPDEST PUSH2 0x1CA PUSH1 0x4 DUP1 CALLDATASIZE SUB DUP2 ADD SWAP1 PUSH2 0x1C5 SWAP2 SWAP1 PUSH2 0x1A48 JUMP JUMPDEST PUSH2 0x7FD JUMP JUMPDEST STOP JUMPDEST PUSH2 0x1D4 PUSH2 0x844 JUMP JUMPDEST PUSH1 0x40 MLOAD PUSH2 0x1E1 SWAP2 SWAP1 PUSH2 0x1AC0 JUMP JUMPDEST PUSH1 0x40 MLOAD DUP1 SWAP2 SUB SWAP1 RETURN JUMPDEST PUSH2 0x204 PUSH1 0x4 DUP1 CALLDATASIZE SUB DUP2 ADD SWAP1 PUSH2 0x1FF SWAP2 SWAP1 PUSH2 0x17D5 JUMP JUMPDEST PUSH2 0x84A JUMP JUMPDEST PUSH1 0x40 MLOAD PUSH2 0x211 SWAP2 SWAP1 PUSH2 0x1AC0 JUMP JUMPDEST PUSH1 0x40 MLOAD DUP1 SWAP2 SUB SWAP1 RETURN JUMPDEST PUSH2 0x234 PUSH1 0x4 DUP1 CALLDATASIZE SUB DUP2 ADD SWAP1 PUSH2 0x22F SWAP2 SWAP1 PUSH2 0x1ADB JUMP JUMPDEST PUSH2 0x896 JUMP JUMPDEST STOP JUMPDEST PUSH2 0x250 PUSH1 0x4 DUP1 CALLDATASIZE SUB DUP2 ADD SWAP1 PUSH2 0x24B SWAP2 SWAP1 PUSH2 0x174A JUMP JUMPDEST PUSH2 0xAA6 JUMP JUMPDEST STOP JUMPDEST PUSH2 0x25A PUSH2 0xAEF JUMP JUMPDEST PUSH1 0x40 MLOAD PUSH2 0x267 SWAP2 SWAP1 PUSH2 0x1AC0 JUMP JUMPDEST PUSH1 0x40 MLOAD DUP1 SWAP2 SUB SWAP1 RETURN JUMPDEST PUSH2 0x278 PUSH2 0xAF5 JUMP JUMPDEST STOP JUMPDEST PUSH2 0x294 PUSH1 0x4 DUP1 CALLDATASIZE SUB DUP2 ADD SWAP1 PUSH2 0x28F SWAP2 SWAP1 PUSH2 0x174A JUMP JUMPDEST PUSH2 0xB09 JUMP JUMPDEST STOP JUMPDEST PUSH2 0x29E PUSH2 0xB52 JUMP JUMPDEST PUSH1 0x40 MLOAD PUSH2 0x2AB SWAP2 SWAP1 PUSH2 0x1B2A JUMP JUMPDEST PUSH1 0x40 MLOAD DUP1 SWAP2 SUB SWAP1 RETURN JUMPDEST PUSH2 0x2BC PUSH2 0xB8A JUMP JUMPDEST PUSH1 0x40 MLOAD PUSH2 0x2C9 SWAP2 SWAP1 PUSH2 0x1AC0 JUMP JUMPDEST PUSH1 0x40 MLOAD DUP1 SWAP2 SUB SWAP1 RETURN JUMPDEST PUSH2 0x2EC PUSH1 0x4 DUP1 CALLDATASIZE SUB DUP2 ADD SWAP1 PUSH2 0x2E7 SWAP2 SWAP1 PUSH2 0x174A JUMP JUMPDEST PUSH2 0xB90 JUMP JUMPDEST PUSH1 0x40 MLOAD PUSH2 0x2F9 SWAP2 SWAP1 PUSH2 0x1AC0 JUMP JUMPDEST PUSH1 0x40 MLOAD DUP1 SWAP2 SUB SWAP1 RETURN JUMPDEST PUSH2 0x31C PUSH1 0x4 DUP1 CALLDATASIZE SUB DUP2 ADD SWAP1 PUSH2 0x317 SWAP2 SWAP1 PUSH2 0x174A JUMP JUMPDEST PUSH2 0xC16 JUMP JUMPDEST STOP JUMPDEST PUSH2 0x338 PUSH1 0x4 DUP1 CALLDATASIZE SUB DUP2 ADD SWAP1 PUSH2 0x333 SWAP2 SWAP1 PUSH2 0x17D5 JUMP JUMPDEST PUSH2 0xF72 JUMP JUMPDEST PUSH1 0x40 MLOAD PUSH2 0x345 SWAP2 SWAP1 PUSH2 0x1AC0 JUMP JUMPDEST PUSH1 0x40 MLOAD DUP1 SWAP2 SUB SWAP1 RETURN JUMPDEST PUSH2 0x368 PUSH1 0x4 DUP1 CALLDATASIZE SUB DUP2 ADD SWAP1 PUSH2 0x363 SWAP2 SWAP1 PUSH2 0x174A JUMP JUMPDEST PUSH2 0xFBE JUMP JUMPDEST STOP JUMPDEST PUSH2 0x384 PUSH1 0x4 DUP1 CALLDATASIZE SUB DUP2 ADD SWAP1 PUSH2 0x37F SWAP2 SWAP1 PUSH2 0x1B45 JUMP JUMPDEST PUSH2 0x1146 JUMP JUMPDEST STOP JUMPDEST PUSH2 0x3A0 PUSH1 0x4 DUP1 CALLDATASIZE SUB DUP2 ADD SWAP1 PUSH2 0x39B SWAP2 SWAP1 PUSH2 0x17D5 JUMP JUMPDEST PUSH2 0x1357 JUMP JUMPDEST STOP JUMPDEST PUSH2 0x3AA PUSH2 0x13DD JUMP JUMPDEST PUSH1 0x40 MLOAD PUSH2 0x3B7 SWAP2 SWAP1 PUSH2 0x1AC0 JUMP JUMPDEST PUSH1 0x40 MLOAD DUP1 SWAP2 SUB SWAP1 RETURN JUMPDEST PUSH2 0x3C8 PUSH2 0x13E3 JUMP JUMPDEST PUSH1 0x40 MLOAD PUSH2 0x3D5 SWAP2 SWAP1 PUSH2 0x1C00 JUMP JUMPDEST PUSH1 0x40 MLOAD DUP1 SWAP2 SUB SWAP1 RETURN JUMPDEST PUSH2 0x3F8 PUSH1 0x4 DUP1 CALLDATASIZE SUB DUP2 ADD SWAP1 PUSH2 0x3F3 SWAP2 SWAP1 PUSH2 0x174A JUMP JUMPDEST PUSH2 0x1407 JUMP JUMPDEST STOP JUMPDEST PUSH2 0x402 PUSH2 0x1450 JUMP JUMPDEST DUP1 PUSH1 0x3 DUP2 SWAP1 SSTORE POP PUSH32 0xF3A20EC5419FA349CC76E6601E9FFBD3DE96F394EAD13B22AAA4C70937D91E01 DUP2 PUSH1 0x40 MLOAD PUSH2 0x438 SWAP2 SWAP1 PUSH2 0x1AC0 JUMP JUMPDEST PUSH1 0x40 MLOAD DUP1 SWAP2 SUB SWAP1 LOG1 POP JUMP JUMPDEST PUSH1 0x1 PUSH1 0x20 MSTORE DUP1 PUSH1 0x0 MSTORE PUSH1 0x40 PUSH1 0x0 KECCAK256 PUSH1 0x0 SWAP2 POP SWAP1 POP DUP1 PUSH1 0x0 ADD SLOAD SWAP1 DUP1 PUSH1 0x1 ADD SLOAD SWAP1 POP DUP3 JUMP JUMPDEST PUSH1 0x4 SLOAD DUP2 LT ISZERO PUSH2 0x4AC JUMPI PUSH1 0x40 MLOAD PUSH32 0x8C379A000000000000000000000000000000000000000000000000000000000 DUP2 MSTORE PUSH1 0x4 ADD PUSH2 0x4A3 SWAP1 PUSH2 0x1C78 JUMP JUMPDEST PUSH1 0x40 MLOAD DUP1 SWAP2 SUB SWAP1 REVERT JUMPDEST PUSH1 0x5 SLOAD DUP2 GT ISZERO PUSH2 0x4F1 JUMPI PUSH1 0x40 MLOAD PUSH32 0x8C379A000000000000000000000000000000000000000000000000000000000 DUP2 MSTORE PUSH1 0x4 ADD PUSH2 0x4E8 SWAP1 PUSH2 0x1D0A JUMP JUMPDEST PUSH1 0x40 MLOAD DUP1 SWAP2 SUB SWAP1 REVERT JUMPDEST DUP1 PUSH1 0x1 PUSH1 0x0 CALLER PUSH20 0xFFFFFFFFFFFFFFFFFFFFFFFFFFFFFFFFFFFFFFFF AND PUSH20 0xFFFFFFFFFFFFFFFFFFFFFFFFFFFFFFFFFFFFFFFF AND DUP2 MSTORE PUSH1 0x20 ADD SWAP1 DUP2 MSTORE PUSH1 0x20 ADD PUSH1 0x0 KECCAK256 PUSH1 0x0 ADD SLOAD LT ISZERO PUSH2 0x576 JUMPI PUSH1 0x40 MLOAD PUSH32 0x8C379A000000000000000000000000000000000000000000000000000000000 DUP2 MSTORE PUSH1 0x4 ADD PUSH2 0x56D SWAP1 PUSH2 0x1D76 JUMP JUMPDEST PUSH1 0x40 MLOAD DUP1 SWAP2 SUB SWAP1 REVERT JUMPDEST PUSH1 0x0 PUSH2 0x581 DUP3 PUSH2 0xB90 JUMP JUMPDEST SWAP1 POP PUSH1 0x0 DUP2 DUP4 PUSH2 0x591 SWAP2 SWAP1 PUSH2 0x1DC5 JUMP JUMPDEST SWAP1 POP DUP3 PUSH1 0x1 PUSH1 0x0 CALLER PUSH20 0xFFFFFFFFFFFFFFFFFFFFFFFFFFFFFFFFFFFFFFFF AND PUSH20 0xFFFFFFFFFFFFFFFFFFFFFFFFFFFFFFFFFFFFFFFF AND DUP2 MSTORE PUSH1 0x20 ADD SWAP1 DUP2 MSTORE PUSH1 0x20 ADD PUSH1 0x0 KECCAK256 PUSH1 0x0 ADD PUSH1 0x0 DUP3 DUP3 SLOAD PUSH2 0x5E5 SWAP2 SWAP1 PUSH2 0x1DC5 JUMP JUMPDEST SWAP3 POP POP DUP2 SWAP1 SSTORE POP PUSH1 0x0 DUP1 SLOAD SWAP1 PUSH2 0x100 EXP SWAP1 DIV PUSH20 0xFFFFFFFFFFFFFFFFFFFFFFFFFFFFFFFFFFFFFFFF AND PUSH20 0xFFFFFFFFFFFFFFFFFFFFFFFFFFFFFFFFFFFFFFFF AND PUSH4 0xA9059CBB CALLER DUP4 PUSH1 0x40 MLOAD DUP4 PUSH4 0xFFFFFFFF AND PUSH1 0xE0 SHL DUP2 MSTORE PUSH1 0x4 ADD PUSH2 0x647 SWAP3 SWAP2 SWAP1 PUSH2 0x1DF9 JUMP JUMPDEST PUSH1 0x20 PUSH1 0x40 MLOAD DUP1 DUP4 SUB DUP2 PUSH1 0x0 DUP8 GAS CALL ISZERO DUP1 ISZERO PUSH2 0x666 JUMPI RETURNDATASIZE PUSH1 0x0 DUP1 RETURNDATACOPY RETURNDATASIZE PUSH1 0x0 REVERT JUMPDEST POP POP POP POP PUSH1 0x40 MLOAD RETURNDATASIZE PUSH1 0x1F NOT PUSH1 0x1F DUP3 ADD AND DUP3 ADD DUP1 PUSH1 0x40 MSTORE POP DUP2 ADD SWAP1 PUSH2 0x68A SWAP2 SWAP1 PUSH2 0x1E5A JUMP JUMPDEST PUSH2 0x6C9 JUMPI PUSH1 0x40 MLOAD PUSH32 0x8C379A000000000000000000000000000000000000000000000000000000000 DUP2 MSTORE PUSH1 0x4 ADD PUSH2 0x6C0 SWAP1 PUSH2 0x1ED3 JUMP JUMPDEST PUSH1 0x40 MLOAD DUP1 SWAP2 SUB SWAP1 REVERT JUMPDEST PUSH1 0x0 DUP1 SLOAD SWAP1 PUSH2 0x100 EXP SWAP1 DIV PUSH20 0xFFFFFFFFFFFFFFFFFFFFFFFFFFFFFFFFFFFFFFFF AND PUSH20 0xFFFFFFFFFFFFFFFFFFFFFFFFFFFFFFFFFFFFFFFF AND PUSH4 0xA9059CBB ADDRESS DUP5 PUSH1 0x40 MLOAD DUP4 PUSH4 0xFFFFFFFF AND PUSH1 0xE0 SHL DUP2 MSTORE PUSH1 0x4 ADD PUSH2 0x724 SWAP3 SWAP2 SWAP1 PUSH2 0x1DF9 JUMP JUMPDEST PUSH1 0x20 PUSH1 0x40 MLOAD DUP1 DUP4 SUB DUP2 PUSH1 0x0 DUP8 GAS CALL ISZERO DUP1 ISZERO PUSH2 0x743 JUMPI RETURNDATASIZE PUSH1 0x0 DUP1 RETURNDATACOPY RETURNDATASIZE PUSH1 0x0 REVERT JUMPDEST POP POP POP POP PUSH1 0x40 MLOAD RETURNDATASIZE PUSH1 0x1F NOT PUSH1 0x1F DUP3 ADD AND DUP3 ADD DUP1 PUSH1 0x40 MSTORE POP DUP2 ADD SWAP1 PUSH2 0x767 SWAP2 SWAP1 PUSH2 0x1E5A JUMP JUMPDEST PUSH2 0x7A6 JUMPI PUSH1 0x40 MLOAD PUSH32 0x8C379A000000000000000000000000000000000000000000000000000000000 DUP2 MSTORE PUSH1 0x4 ADD PUSH2 0x79D SWAP1 PUSH2 0x1F3F JUMP JUMPDEST PUSH1 0x40 MLOAD DUP1 SWAP2 SUB SWAP1 REVERT JUMPDEST CALLER PUSH20 0xFFFFFFFFFFFFFFFFFFFFFFFFFFFFFFFFFFFFFFFF AND PUSH32 0x75E161B3E824B114FC1A33274BD7091918DD4E639CEDE50B78B15A4EEA956A21 DUP3 DUP5 TIMESTAMP PUSH1 0x40 MLOAD PUSH2 0x7F0 SWAP4 SWAP3 SWAP2 SWAP1 PUSH2 0x1F5F JUMP JUMPDEST PUSH1 0x40 MLOAD DUP1 SWAP2 SUB SWAP1 LOG2 POP POP POP JUMP JUMPDEST PUSH2 0x805 PUSH2 0x1450 JUMP JUMPDEST PUSH32 0x93C7FD86FD6B1D609A528D3464C486D46453B73C55ED9C6DAF2FFC13A7AC2FC8 DUP3 DUP3 TIMESTAMP PUSH1 0x40 MLOAD PUSH2 0x838 SWAP4 SWAP3 SWAP2 SWAP1 PUSH2 0x20C2 JUMP JUMPDEST PUSH1 0x40 MLOAD DUP1 SWAP2 SUB SWAP1 LOG1 POP POP JUMP JUMPDEST PUSH1 0x4 SLOAD DUP2 JUMP JUMPDEST PUSH1 0x0 PUSH1 0x1 PUSH1 0x0 DUP4 PUSH20 0xFFFFFFFFFFFFFFFFFFFFFFFFFFFFFFFFFFFFFFFF AND PUSH20 0xFFFFFFFFFFFFFFFFFFFFFFFFFFFFFFFFFFFFFFFF AND DUP2 MSTORE PUSH1 0x20 ADD SWAP1 DUP2 MSTORE PUSH1 0x20 ADD PUSH1 0x0 KECCAK256 PUSH1 0x0 ADD SLOAD SWAP1 POP SWAP2 SWAP1 POP JUMP JUMPDEST PUSH1 0x0 PUSH2 0x8A0 PUSH2 0x14D7 JUMP JUMPDEST SWAP1 POP PUSH1 0x0 DUP2 PUSH1 0x0 ADD PUSH1 0x8 SWAP1 SLOAD SWAP1 PUSH2 0x100 EXP SWAP1 DIV PUSH1 0xFF AND ISZERO SWAP1 POP PUSH1 0x0 DUP3 PUSH1 0x0 ADD PUSH1 0x0 SWAP1 SLOAD SWAP1 PUSH2 0x100 EXP SWAP1 DIV PUSH8 0xFFFFFFFFFFFFFFFF AND SWAP1 POP PUSH1 0x0 DUP1 DUP3 PUSH8 0xFFFFFFFFFFFFFFFF AND EQ DUP1 ISZERO PUSH2 0x8EE JUMPI POP DUP3 JUMPDEST SWAP1 POP PUSH1 0x0 PUSH1 0x1 DUP4 PUSH8 0xFFFFFFFFFFFFFFFF AND EQ DUP1 ISZERO PUSH2 0x923 JUMPI POP PUSH1 0x0 ADDRESS PUSH20 0xFFFFFFFFFFFFFFFFFFFFFFFFFFFFFFFFFFFFFFFF AND EXTCODESIZE EQ JUMPDEST SWAP1 POP DUP2 ISZERO DUP1 ISZERO PUSH2 0x931 JUMPI POP DUP1 ISZERO JUMPDEST ISZERO PUSH2 0x968 JUMPI PUSH1 0x40 MLOAD PUSH32 0xF92EE8A900000000000000000000000000000000000000000000000000000000 DUP2 MSTORE PUSH1 0x4 ADD PUSH1 0x40 MLOAD DUP1 SWAP2 SUB SWAP1 REVERT JUMPDEST PUSH1 0x1 DUP6 PUSH1 0x0 ADD PUSH1 0x0 PUSH2 0x100 EXP DUP2 SLOAD DUP2 PUSH8 0xFFFFFFFFFFFFFFFF MUL NOT AND SWAP1 DUP4 PUSH8 0xFFFFFFFFFFFFFFFF AND MUL OR SWAP1 SSTORE POP DUP4 ISZERO PUSH2 0x9B8 JUMPI PUSH1 0x1 DUP6 PUSH1 0x0 ADD PUSH1 0x8 PUSH2 0x100 EXP DUP2 SLOAD DUP2 PUSH1 0xFF MUL NOT AND SWAP1 DUP4 ISZERO ISZERO MUL OR SWAP1 SSTORE POP JUMPDEST PUSH2 0x9C1 DUP7 PUSH2 0x14FF JUMP JUMPDEST DUP7 PUSH1 0x0 DUP1 PUSH2 0x100 EXP DUP2 SLOAD DUP2 PUSH20 0xFFFFFFFFFFFFFFFFFFFFFFFFFFFFFFFFFFFFFFFF MUL NOT AND SWAP1 DUP4 PUSH20 0xFFFFFFFFFFFFFFFFFFFFFFFFFFFFFFFFFFFFFFFF AND MUL OR SWAP1 SSTORE POP PUSH8 0x8AC7230489E80000 PUSH1 0x2 DUP2 SWAP1 SSTORE POP PUSH10 0x21E19E0C9BAB2400000 PUSH1 0x3 DUP2 SWAP1 SSTORE POP PUSH8 0x8AC7230489E80000 PUSH1 0x4 DUP2 SWAP1 SSTORE POP PUSH10 0x21E19E0C9BAB2400000 PUSH1 0x5 DUP2 SWAP1 SSTORE POP DUP4 ISZERO PUSH2 0xA9D JUMPI PUSH1 0x0 DUP6 PUSH1 0x0 ADD PUSH1 0x8 PUSH2 0x100 EXP DUP2 SLOAD DUP2 PUSH1 0xFF MUL NOT AND SWAP1 DUP4 ISZERO ISZERO MUL OR SWAP1 SSTORE POP PUSH32 0xC7F505B2F371AE2175EE4913F4499E1F2633A7B5936321EED1CDAEB6115181D2 PUSH1 0x1 PUSH1 0x40 MLOAD PUSH2 0xA94 SWAP2 SWAP1 PUSH2 0x2156 JUMP JUMPDEST PUSH1 0x40 MLOAD DUP1 SWAP2 SUB SWAP1 LOG1 JUMPDEST POP POP POP POP POP POP POP JUMP JUMPDEST PUSH2 0xAAE PUSH2 0x1450 JUMP JUMPDEST DUP1 PUSH1 0x5 DUP2 SWAP1 SSTORE POP PUSH32 0xF7F62050DFDE89F48D970E352BFBADC8C28AF7A877F2B21FB99291B384DD63A5 DUP2 PUSH1 0x40 MLOAD PUSH2 0xAE4 SWAP2 SWAP1 PUSH2 0x1AC0 JUMP JUMPDEST PUSH1 0x40 MLOAD DUP1 SWAP2 SUB SWAP1 LOG1 POP JUMP JUMPDEST PUSH1 0x2 SLOAD DUP2 JUMP JUMPDEST PUSH2 0xAFD PUSH2 0x1450 JUMP JUMPDEST PUSH2 0xB07 PUSH1 0x0 PUSH2 0x1513 JUMP JUMPDEST JUMP JUMPDEST PUSH2 0xB11 PUSH2 0x1450 JUMP JUMPDEST DUP1 PUSH1 0x2 DUP2 SWAP1 SSTORE POP PUSH32 0xB443C8BD39A1B60D415144F9148C6F90C2B68A553EB90C62CEF5E44979DB009D DUP2 PUSH1 0x40 MLOAD PUSH2 0xB47 SWAP2 SWAP1 PUSH2 0x1AC0 JUMP JUMPDEST PUSH1 0x40 MLOAD DUP1 SWAP2 SUB SWAP1 LOG1 POP JUMP JUMPDEST PUSH1 0x0 DUP1 PUSH2 0xB5D PUSH2 0x15EA JUMP JUMPDEST SWAP1 POP DUP1 PUSH1 0x0 ADD PUSH1 0x0 SWAP1 SLOAD SWAP1 PUSH2 0x100 EXP SWAP1 DIV PUSH20 0xFFFFFFFFFFFFFFFFFFFFFFFFFFFFFFFFFFFFFFFF AND SWAP2 POP POP SWAP1 JUMP JUMPDEST PUSH1 0x3 SLOAD DUP2 JUMP JUMPDEST PUSH1 0x0 PUSH9 0x3635C9ADC5DEA00000 DUP3 LT ISZERO PUSH2 0xBC3 JUMPI PUSH1 0x64 PUSH1 0x1 DUP4 PUSH2 0xBB2 SWAP2 SWAP1 PUSH2 0x2171 JUMP JUMPDEST PUSH2 0xBBC SWAP2 SWAP1 PUSH2 0x21E2 JUMP JUMPDEST SWAP1 POP PUSH2 0xC11 JUMP JUMPDEST PUSH10 0x10F0CF064DD59200000 DUP3 LT ISZERO PUSH2 0xBF5 JUMPI PUSH1 0x64 PUSH1 0x2 DUP4 PUSH2 0xBE4 SWAP2 SWAP1 PUSH2 0x2171 JUMP JUMPDEST PUSH2 0xBEE SWAP2 SWAP1 PUSH2 0x21E2 JUMP JUMPDEST SWAP1 POP PUSH2 0xC11 JUMP JUMPDEST PUSH1 0x64 PUSH1 0x5 DUP4 PUSH2 0xC04 SWAP2 SWAP1 PUSH2 0x2171 JUMP JUMPDEST PUSH2 0xC0E SWAP2 SWAP1 PUSH2 0x21E2 JUMP JUMPDEST SWAP1 POP JUMPDEST SWAP2 SWAP1 POP JUMP JUMPDEST PUSH1 0x2 SLOAD DUP2 LT ISZERO PUSH2 0xC5B JUMPI PUSH1 0x40 MLOAD PUSH32 0x8C379A000000000000000000000000000000000000000000000000000000000 DUP2 MSTORE PUSH1 0x4 ADD PUSH2 0xC52 SWAP1 PUSH2 0x225F JUMP JUMPDEST PUSH1 0x40 MLOAD DUP1 SWAP2 SUB SWAP1 REVERT JUMPDEST PUSH1 0x3 SLOAD DUP2 GT ISZERO PUSH2 0xCA0 JUMPI PUSH1 0x40 MLOAD PUSH32 0x8C379A000000000000000000000000000000000000000000000000000000000 DUP2 MSTORE PUSH1 0x4 ADD PUSH2 0xC97 SWAP1 PUSH2 0x22F1 JUMP JUMPDEST PUSH1 0x40 MLOAD DUP1 SWAP2 SUB SWAP1 REVERT JUMPDEST PUSH1 0x0 PUSH2 0xCAB DUP3 PUSH2 0xB90 JUMP JUMPDEST SWAP1 POP PUSH1 0x0 DUP2 DUP4 PUSH2 0xCBB SWAP2 SWAP1 PUSH2 0x1DC5 JUMP JUMPDEST SWAP1 POP PUSH1 0x0 DUP1 SLOAD SWAP1 PUSH2 0x100 EXP SWAP1 DIV PUSH20 0xFFFFFFFFFFFFFFFFFFFFFFFFFFFFFFFFFFFFFFFF AND PUSH20 0xFFFFFFFFFFFFFFFFFFFFFFFFFFFFFFFFFFFFFFFF AND PUSH4 0x23B872DD CALLER ADDRESS DUP6 PUSH1 0x40 MLOAD DUP5 PUSH4 0xFFFFFFFF AND PUSH1 0xE0 SHL DUP2 MSTORE PUSH1 0x4 ADD PUSH2 0xD1A SWAP4 SWAP3 SWAP2 SWAP1 PUSH2 0x2311 JUMP JUMPDEST PUSH1 0x20 PUSH1 0x40 MLOAD DUP1 DUP4 SUB DUP2 PUSH1 0x0 DUP8 GAS CALL ISZERO DUP1 ISZERO PUSH2 0xD39 JUMPI RETURNDATASIZE PUSH1 0x0 DUP1 RETURNDATACOPY RETURNDATASIZE PUSH1 0x0 REVERT JUMPDEST POP POP POP POP PUSH1 0x40 MLOAD RETURNDATASIZE PUSH1 0x1F NOT PUSH1 0x1F DUP3 ADD AND DUP3 ADD DUP1 PUSH1 0x40 MSTORE POP DUP2 ADD SWAP1 PUSH2 0xD5D SWAP2 SWAP1 PUSH2 0x1E5A JUMP JUMPDEST PUSH2 0xD9C JUMPI PUSH1 0x40 MLOAD PUSH32 0x8C379A000000000000000000000000000000000000000000000000000000000 DUP2 MSTORE PUSH1 0x4 ADD PUSH2 0xD93 SWAP1 PUSH2 0x1F3F JUMP JUMPDEST PUSH1 0x40 MLOAD DUP1 SWAP2 SUB SWAP1 REVERT JUMPDEST PUSH1 0x0 DUP1 SLOAD SWAP1 PUSH2 0x100 EXP SWAP1 DIV PUSH20 0xFFFFFFFFFFFFFFFFFFFFFFFFFFFFFFFFFFFFFFFF AND PUSH20 0xFFFFFFFFFFFFFFFFFFFFFFFFFFFFFFFFFFFFFFFF AND PUSH4 0x23B872DD CALLER ADDRESS DUP5 PUSH1 0x40 MLOAD DUP5 PUSH4 0xFFFFFFFF AND PUSH1 0xE0 SHL DUP2 MSTORE PUSH1 0x4 ADD PUSH2 0xDF9 SWAP4 SWAP3 SWAP2 SWAP1 PUSH2 0x2311 JUMP JUMPDEST PUSH1 0x20 PUSH1 0x40 MLOAD DUP1 DUP4 SUB DUP2 PUSH1 0x0 DUP8 GAS CALL ISZERO DUP1 ISZERO PUSH2 0xE18 JUMPI RETURNDATASIZE PUSH1 0x0 DUP1 RETURNDATACOPY RETURNDATASIZE PUSH1 0x0 REVERT JUMPDEST POP POP POP POP PUSH1 0x40 MLOAD RETURNDATASIZE PUSH1 0x1F NOT PUSH1 0x1F DUP3 ADD AND DUP3 ADD DUP1 PUSH1 0x40 MSTORE POP DUP2 ADD SWAP1 PUSH2 0xE3C SWAP2 SWAP1 PUSH2 0x1E5A JUMP JUMPDEST PUSH2 0xE7B JUMPI PUSH1 0x40 MLOAD PUSH32 0x8C379A000000000000000000000000000000000000000000000000000000000 DUP2 MSTORE PUSH1 0x4 ADD PUSH2 0xE72 SWAP1 PUSH2 0x1ED3 JUMP JUMPDEST PUSH1 0x40 MLOAD DUP1 SWAP2 SUB SWAP1 REVERT JUMPDEST DUP1 PUSH1 0x1 PUSH1 0x0 CALLER PUSH20 0xFFFFFFFFFFFFFFFFFFFFFFFFFFFFFFFFFFFFFFFF AND PUSH20 0xFFFFFFFFFFFFFFFFFFFFFFFFFFFFFFFFFFFFFFFF AND DUP2 MSTORE PUSH1 0x20 ADD SWAP1 DUP2 MSTORE PUSH1 0x20 ADD PUSH1 0x0 KECCAK256 PUSH1 0x0 ADD PUSH1 0x0 DUP3 DUP3 SLOAD PUSH2 0xECD SWAP2 SWAP1 PUSH2 0x2348 JUMP JUMPDEST SWAP3 POP POP DUP2 SWAP1 SSTORE POP TIMESTAMP PUSH1 0x1 PUSH1 0x0 CALLER PUSH20 0xFFFFFFFFFFFFFFFFFFFFFFFFFFFFFFFFFFFFFFFF AND PUSH20 0xFFFFFFFFFFFFFFFFFFFFFFFFFFFFFFFFFFFFFFFF AND DUP2 MSTORE PUSH1 0x20 ADD SWAP1 DUP2 MSTORE PUSH1 0x20 ADD PUSH1 0x0 KECCAK256 PUSH1 0x1 ADD DUP2 SWAP1 SSTORE POP CALLER PUSH20 0xFFFFFFFFFFFFFFFFFFFFFFFFFFFFFFFFFFFFFFFF AND PUSH32 0x91EDE45F04A37A7C170F5C1207DF3B6BC748DC1E04AD5E917A241D0F52FEADA3 DUP3 DUP5 TIMESTAMP PUSH1 0x40 MLOAD PUSH2 0xF65 SWAP4 SWAP3 SWAP2 SWAP1 PUSH2 0x1F5F JUMP JUMPDEST PUSH1 0x40 MLOAD DUP1 SWAP2 SUB SWAP1 LOG2 POP POP POP JUMP JUMPDEST PUSH1 0x0 PUSH1 0x1 PUSH1 0x0 DUP4 PUSH20 0xFFFFFFFFFFFFFFFFFFFFFFFFFFFFFFFFFFFFFFFF AND PUSH20 0xFFFFFFFFFFFFFFFFFFFFFFFFFFFFFFFFFFFFFFFF AND DUP2 MSTORE PUSH1 0x20 ADD SWAP1 DUP2 MSTORE PUSH1 0x20 ADD PUSH1 0x0 KECCAK256 PUSH1 0x1 ADD SLOAD SWAP1 POP SWAP2 SWAP1 POP JUMP JUMPDEST DUP1 PUSH1 0x0 DUP1 SLOAD SWAP1 PUSH2 0x100 EXP SWAP1 DIV PUSH20 0xFFFFFFFFFFFFFFFFFFFFFFFFFFFFFFFFFFFFFFFF AND PUSH20 0xFFFFFFFFFFFFFFFFFFFFFFFFFFFFFFFFFFFFFFFF AND PUSH4 0x70A08231 ADDRESS PUSH1 0x40 MLOAD DUP3 PUSH4 0xFFFFFFFF AND PUSH1 0xE0 SHL DUP2 MSTORE PUSH1 0x4 ADD PUSH2 0x1018 SWAP2 SWAP1 PUSH2 0x1B2A JUMP JUMPDEST PUSH1 0x20 PUSH1 0x40 MLOAD DUP1 DUP4 SUB DUP2 DUP7 GAS STATICCALL ISZERO DUP1 ISZERO PUSH2 0x1035 JUMPI RETURNDATASIZE PUSH1 0x0 DUP1 RETURNDATACOPY RETURNDATASIZE PUSH1 0x0 REVERT JUMPDEST POP POP POP POP PUSH1 0x40 MLOAD RETURNDATASIZE PUSH1 0x1F NOT PUSH1 0x1F DUP3 ADD AND DUP3 ADD DUP1 PUSH1 0x40 MSTORE POP DUP2 ADD SWAP1 PUSH2 0x1059 SWAP2 SWAP1 PUSH2 0x2391 JUMP JUMPDEST LT ISZERO PUSH2 0x109A JUMPI PUSH1 0x40 MLOAD PUSH32 0x8C379A000000000000000000000000000000000000000000000000000000000 DUP2 MSTORE PUSH1 0x4 ADD PUSH2 0x1091 SWAP1 PUSH2 0x2430 JUMP JUMPDEST PUSH1 0x40 MLOAD DUP1 SWAP2 SUB SWAP1 REVERT JUMPDEST DUP1 PUSH1 0x1 PUSH1 0x0 CALLER PUSH20 0xFFFFFFFFFFFFFFFFFFFFFFFFFFFFFFFFFFFFFFFF AND PUSH20 0xFFFFFFFFFFFFFFFFFFFFFFFFFFFFFFFFFFFFFFFF AND DUP2 MSTORE PUSH1 0x20 ADD SWAP1 DUP2 MSTORE PUSH1 0x20 ADD PUSH1 0x0 KECCAK256 PUSH1 0x0 ADD PUSH1 0x0 DUP3 DUP3 SLOAD PUSH2 0x10EC SWAP2 SWAP1 PUSH2 0x2348 JUMP JUMPDEST SWAP3 POP POP DUP2 SWAP1 SSTORE POP CALLER PUSH20 0xFFFFFFFFFFFFFFFFFFFFFFFFFFFFFFFFFFFFFFFF AND PUSH32 0x256642A903D86EC186D0AD895B74BDBE7F9E5A72DB568F4C4D58C2FA38B39E1C DUP3 TIMESTAMP PUSH1 0x40 MLOAD PUSH2 0x113B SWAP3 SWAP2 SWAP1 PUSH2 0x1811 JUMP JUMPDEST PUSH1 0x40 MLOAD DUP1 SWAP2 SUB SWAP1 LOG2 POP JUMP JUMPDEST DUP1 PUSH1 0x1 PUSH1 0x0 CALLER PUSH20 0xFFFFFFFFFFFFFFFFFFFFFFFFFFFFFFFFFFFFFFFF AND PUSH20 0xFFFFFFFFFFFFFFFFFFFFFFFFFFFFFFFFFFFFFFFF AND DUP2 MSTORE PUSH1 0x20 ADD SWAP1 DUP2 MSTORE PUSH1 0x20 ADD PUSH1 0x0 KECCAK256 PUSH1 0x0 ADD SLOAD LT ISZERO PUSH2 0x11CB JUMPI PUSH1 0x40 MLOAD PUSH32 0x8C379A000000000000000000000000000000000000000000000000000000000 DUP2 MSTORE PUSH1 0x4 ADD PUSH2 0x11C2 SWAP1 PUSH2 0x1D76 JUMP JUMPDEST PUSH1 0x40 MLOAD DUP1 SWAP2 SUB SWAP1 REVERT JUMPDEST DUP1 PUSH1 0x1 PUSH1 0x0 CALLER PUSH20 0xFFFFFFFFFFFFFFFFFFFFFFFFFFFFFFFFFFFFFFFF AND PUSH20 0xFFFFFFFFFFFFFFFFFFFFFFFFFFFFFFFFFFFFFFFF AND DUP2 MSTORE PUSH1 0x20 ADD SWAP1 DUP2 MSTORE PUSH1 0x20 ADD PUSH1 0x0 KECCAK256 PUSH1 0x0 ADD PUSH1 0x0 DUP3 DUP3 SLOAD PUSH2 0x121D SWAP2 SWAP1 PUSH2 0x1DC5 JUMP JUMPDEST SWAP3 POP POP DUP2 SWAP1 SSTORE POP PUSH1 0x0 DUP1 SLOAD SWAP1 PUSH2 0x100 EXP SWAP1 DIV PUSH20 0xFFFFFFFFFFFFFFFFFFFFFFFFFFFFFFFFFFFFFFFF AND PUSH20 0xFFFFFFFFFFFFFFFFFFFFFFFFFFFFFFFFFFFFFFFF AND PUSH4 0xA9059CBB ADDRESS DUP4 PUSH1 0x40 MLOAD DUP4 PUSH4 0xFFFFFFFF AND PUSH1 0xE0 SHL DUP2 MSTORE PUSH1 0x4 ADD PUSH2 0x127F SWAP3 SWAP2 SWAP1 PUSH2 0x1DF9 JUMP JUMPDEST PUSH1 0x20 PUSH1 0x40 MLOAD DUP1 DUP4 SUB DUP2 PUSH1 0x0 DUP8 GAS CALL ISZERO DUP1 ISZERO PUSH2 0x129E JUMPI RETURNDATASIZE PUSH1 0x0 DUP1 RETURNDATACOPY RETURNDATASIZE PUSH1 0x0 REVERT JUMPDEST POP POP POP POP PUSH1 0x40 MLOAD RETURNDATASIZE PUSH1 0x1F NOT PUSH1 0x1F DUP3 ADD AND DUP3 ADD DUP1 PUSH1 0x40 MSTORE POP DUP2 ADD SWAP1 PUSH2 0x12C2 SWAP2 SWAP1 PUSH2 0x1E5A JUMP JUMPDEST PUSH2 0x1301 JUMPI PUSH1 0x40 MLOAD PUSH32 0x8C379A000000000000000000000000000000000000000000000000000000000 DUP2 MSTORE PUSH1 0x4 ADD PUSH2 0x12F8 SWAP1 PUSH2 0x249C JUMP JUMPDEST PUSH1 0x40 MLOAD DUP1 SWAP2 SUB SWAP1 REVERT JUMPDEST CALLER PUSH20 0xFFFFFFFFFFFFFFFFFFFFFFFFFFFFFFFFFFFFFFFF AND PUSH32 0x2B7F5E912953772FB4A8A4B18D548D073802C268A792527FE2C22FCB76606DAD DUP4 DUP4 TIMESTAMP PUSH1 0x40 MLOAD PUSH2 0x134B SWAP4 SWAP3 SWAP2 SWAP1 PUSH2 0x24BC JUMP JUMPDEST PUSH1 0x40 MLOAD DUP1 SWAP2 SUB SWAP1 LOG2 POP POP JUMP JUMPDEST PUSH2 0x135F PUSH2 0x1450 JUMP JUMPDEST PUSH1 0x0 PUSH20 0xFFFFFFFFFFFFFFFFFFFFFFFFFFFFFFFFFFFFFFFF AND DUP2 PUSH20 0xFFFFFFFFFFFFFFFFFFFFFFFFFFFFFFFFFFFFFFFF AND SUB PUSH2 0x13D1 JUMPI PUSH1 0x0 PUSH1 0x40 MLOAD PUSH32 0x1E4FBDF700000000000000000000000000000000000000000000000000000000 DUP2 MSTORE PUSH1 0x4 ADD PUSH2 0x13C8 SWAP2 SWAP1 PUSH2 0x1B2A JUMP JUMPDEST PUSH1 0x40 MLOAD DUP1 SWAP2 SUB SWAP1 REVERT JUMPDEST PUSH2 0x13DA DUP2 PUSH2 0x1513 JUMP JUMPDEST POP JUMP JUMPDEST PUSH1 0x5 SLOAD DUP2 JUMP JUMPDEST PUSH1 0x0 DUP1 SLOAD SWAP1 PUSH2 0x100 EXP SWAP1 DIV PUSH20 0xFFFFFFFFFFFFFFFFFFFFFFFFFFFFFFFFFFFFFFFF AND DUP2 JUMP JUMPDEST PUSH2 0x140F PUSH2 0x1450 JUMP JUMPDEST DUP1 PUSH1 0x4 DUP2 SWAP1 SSTORE POP PUSH32 0x57A509CF8728C3D0B14AB31D86EA270320D70F454B1C64248B182864AE836B14 DUP2 PUSH1 0x40 MLOAD PUSH2 0x1445 SWAP2 SWAP1 PUSH2 0x1AC0 JUMP JUMPDEST PUSH1 0x40 MLOAD DUP1 SWAP2 SUB SWAP1 LOG1 POP JUMP JUMPDEST PUSH2 0x1458 PUSH2 0x1612 JUMP JUMPDEST PUSH20 0xFFFFFFFFFFFFFFFFFFFFFFFFFFFFFFFFFFFFFFFF AND PUSH2 0x1476 PUSH2 0xB52 JUMP JUMPDEST PUSH20 0xFFFFFFFFFFFFFFFFFFFFFFFFFFFFFFFFFFFFFFFF AND EQ PUSH2 0x14D5 JUMPI PUSH2 0x1499 PUSH2 0x1612 JUMP JUMPDEST PUSH1 0x40 MLOAD PUSH32 0x118CDAA700000000000000000000000000000000000000000000000000000000 DUP2 MSTORE PUSH1 0x4 ADD PUSH2 0x14CC SWAP2 SWAP1 PUSH2 0x1B2A JUMP JUMPDEST PUSH1 0x40 MLOAD DUP1 SWAP2 SUB SWAP1 REVERT JUMPDEST JUMP JUMPDEST PUSH1 0x0 PUSH32 0xF0C57E16840DF040F15088DC2F81FE391C3923BEC73E23A9662EFC9C229C6A00 SWAP1 POP SWAP1 JUMP JUMPDEST PUSH2 0x1507 PUSH2 0x161A JUMP JUMPDEST PUSH2 0x1510 DUP2 PUSH2 0x165A JUMP JUMPDEST POP JUMP JUMPDEST PUSH1 0x0 PUSH2 0x151D PUSH2 0x15EA JUMP JUMPDEST SWAP1 POP PUSH1 0x0 DUP2 PUSH1 0x0 ADD PUSH1 0x0 SWAP1 SLOAD SWAP1 PUSH2 0x100 EXP SWAP1 DIV PUSH20 0xFFFFFFFFFFFFFFFFFFFFFFFFFFFFFFFFFFFFFFFF AND SWAP1 POP DUP3 DUP3 PUSH1 0x0 ADD PUSH1 0x0 PUSH2 0x100 EXP DUP2 SLOAD DUP2 PUSH20 0xFFFFFFFFFFFFFFFFFFFFFFFFFFFFFFFFFFFFFFFF MUL NOT AND SWAP1 DUP4 PUSH20 0xFFFFFFFFFFFFFFFFFFFFFFFFFFFFFFFFFFFFFFFF AND MUL OR SWAP1 SSTORE POP DUP3 PUSH20 0xFFFFFFFFFFFFFFFFFFFFFFFFFFFFFFFFFFFFFFFF AND DUP2 PUSH20 0xFFFFFFFFFFFFFFFFFFFFFFFFFFFFFFFFFFFFFFFF AND PUSH32 0x8BE0079C531659141344CD1FD0A4F28419497F9722A3DAAFE3B4186F6B6457E0 PUSH1 0x40 MLOAD PUSH1 0x40 MLOAD DUP1 SWAP2 SUB SWAP1 LOG3 POP POP POP JUMP JUMPDEST PUSH1 0x0 PUSH32 0x9016D09D72D40FDAE2FD8CEAC6B6234C7706214FD39C1CD1E609A0528C199300 SWAP1 POP SWAP1 JUMP JUMPDEST PUSH1 0x0 CALLER SWAP1 POP SWAP1 JUMP JUMPDEST PUSH2 0x1622 PUSH2 0x16E0 JUMP JUMPDEST PUSH2 0x1658 JUMPI PUSH1 0x40 MLOAD PUSH32 0xD7E6BCF800000000000000000000000000000000000000000000000000000000 DUP2 MSTORE PUSH1 0x4 ADD PUSH1 0x40 MLOAD DUP1 SWAP2 SUB SWAP1 REVERT JUMPDEST JUMP JUMPDEST PUSH2 0x1662 PUSH2 0x161A JUMP JUMPDEST PUSH1 0x0 PUSH20 0xFFFFFFFFFFFFFFFFFFFFFFFFFFFFFFFFFFFFFFFF AND DUP2 PUSH20 0xFFFFFFFFFFFFFFFFFFFFFFFFFFFFFFFFFFFFFFFF AND SUB PUSH2 0x16D4 JUMPI PUSH1 0x0 PUSH1 0x40 MLOAD PUSH32 0x1E4FBDF700000000000000000000000000000000000000000000000000000000 DUP2 MSTORE PUSH1 0x4 ADD PUSH2 0x16CB SWAP2 SWAP1 PUSH2 0x1B2A JUMP JUMPDEST PUSH1 0x40 MLOAD DUP1 SWAP2 SUB SWAP1 REVERT JUMPDEST PUSH2 0x16DD DUP2 PUSH2 0x1513 JUMP JUMPDEST POP JUMP JUMPDEST PUSH1 0x0 PUSH2 0x16EA PUSH2 0x14D7 JUMP JUMPDEST PUSH1 0x0 ADD PUSH1 0x8 SWAP1 SLOAD SWAP1 PUSH2 0x100 EXP SWAP1 DIV PUSH1 0xFF AND SWAP1 POP SWAP1 JUMP JUMPDEST PUSH1 0x0 PUSH1 0x40 MLOAD SWAP1 POP SWAP1 JUMP JUMPDEST PUSH1 0x0 DUP1 REVERT JUMPDEST PUSH1 0x0 DUP1 REVERT JUMPDEST PUSH1 0x0 DUP2 SWAP1 POP SWAP2 SWAP1 POP JUMP JUMPDEST PUSH2 0x1727 DUP2 PUSH2 0x1714 JUMP JUMPDEST DUP2 EQ PUSH2 0x1732 JUMPI PUSH1 0x0 DUP1 REVERT JUMPDEST POP JUMP JUMPDEST PUSH1 0x0 DUP2 CALLDATALOAD SWAP1 POP PUSH2 0x1744 DUP2 PUSH2 0x171E JUMP JUMPDEST SWAP3 SWAP2 POP POP JUMP JUMPDEST PUSH1 0x0 PUSH1 0x20 DUP3 DUP5 SUB SLT ISZERO PUSH2 0x1760 JUMPI PUSH2 0x175F PUSH2 0x170A JUMP JUMPDEST JUMPDEST PUSH1 0x0 PUSH2 0x176E DUP5 DUP3 DUP6 ADD PUSH2 0x1735 JUMP JUMPDEST SWAP2 POP POP SWAP3 SWAP2 POP POP JUMP JUMPDEST PUSH1 0x0 PUSH20 0xFFFFFFFFFFFFFFFFFFFFFFFFFFFFFFFFFFFFFFFF DUP3 AND SWAP1 POP SWAP2 SWAP1 POP JUMP JUMPDEST PUSH1 0x0 PUSH2 0x17A2 DUP3 PUSH2 0x1777 JUMP JUMPDEST SWAP1 POP SWAP2 SWAP1 POP JUMP JUMPDEST PUSH2 0x17B2 DUP2 PUSH2 0x1797 JUMP JUMPDEST DUP2 EQ PUSH2 0x17BD JUMPI PUSH1 0x0 DUP1 REVERT JUMPDEST POP JUMP JUMPDEST PUSH1 0x0 DUP2 CALLDATALOAD SWAP1 POP PUSH2 0x17CF DUP2 PUSH2 0x17A9 JUMP JUMPDEST SWAP3 SWAP2 POP POP JUMP JUMPDEST PUSH1 0x0 PUSH1 0x20 DUP3 DUP5 SUB SLT ISZERO PUSH2 0x17EB JUMPI PUSH2 0x17EA PUSH2 0x170A JUMP JUMPDEST JUMPDEST PUSH1 0x0 PUSH2 0x17F9 DUP5 DUP3 DUP6 ADD PUSH2 0x17C0 JUMP JUMPDEST SWAP2 POP POP SWAP3 SWAP2 POP POP JUMP JUMPDEST PUSH2 0x180B DUP2 PUSH2 0x1714 JUMP JUMPDEST DUP3 MSTORE POP POP JUMP JUMPDEST PUSH1 0x0 PUSH1 0x40 DUP3 ADD SWAP1 POP PUSH2 0x1826 PUSH1 0x0 DUP4 ADD DUP6 PUSH2 0x1802 JUMP JUMPDEST PUSH2 0x1833 PUSH1 0x20 DUP4 ADD DUP5 PUSH2 0x1802 JUMP JUMPDEST SWAP4 SWAP3 POP POP POP JUMP JUMPDEST PUSH1 0x0 DUP1 REVERT JUMPDEST PUSH1 0x0 DUP1 REVERT JUMPDEST PUSH1 0x0 PUSH1 0x1F NOT PUSH1 0x1F DUP4 ADD AND SWAP1 POP SWAP2 SWAP1 POP JUMP JUMPDEST PUSH32 0x4E487B7100000000000000000000000000000000000000000000000000000000 PUSH1 0x0 MSTORE PUSH1 0x41 PUSH1 0x4 MSTORE PUSH1 0x24 PUSH1 0x0 REVERT JUMPDEST PUSH2 0x188D DUP3 PUSH2 0x1844 JUMP JUMPDEST DUP2 ADD DUP2 DUP2 LT PUSH8 0xFFFFFFFFFFFFFFFF DUP3 GT OR ISZERO PUSH2 0x18AC JUMPI PUSH2 0x18AB PUSH2 0x1855 JUMP JUMPDEST JUMPDEST DUP1 PUSH1 0x40 MSTORE POP POP POP JUMP JUMPDEST PUSH1 0x0 PUSH2 0x18BF PUSH2 0x1700 JUMP JUMPDEST SWAP1 POP PUSH2 0x18CB DUP3 DUP3 PUSH2 0x1884 JUMP JUMPDEST SWAP2 SWAP1 POP JUMP JUMPDEST PUSH1 0x0 PUSH8 0xFFFFFFFFFFFFFFFF DUP3 GT ISZERO PUSH2 0x18EB JUMPI PUSH2 0x18EA PUSH2 0x1855 JUMP JUMPDEST JUMPDEST PUSH2 0x18F4 DUP3 PUSH2 0x1844 JUMP JUMPDEST SWAP1 POP PUSH1 0x20 DUP2 ADD SWAP1 POP SWAP2 SWAP1 POP JUMP JUMPDEST DUP3 DUP2 DUP4 CALLDATACOPY PUSH1 0x0 DUP4 DUP4 ADD MSTORE POP POP POP JUMP JUMPDEST PUSH1 0x0 PUSH2 0x1923 PUSH2 0x191E DUP5 PUSH2 0x18D0 JUMP JUMPDEST PUSH2 0x18B5 JUMP JUMPDEST SWAP1 POP DUP3 DUP2 MSTORE PUSH1 0x20 DUP2 ADD DUP5 DUP5 DUP5 ADD GT ISZERO PUSH2 0x193F JUMPI PUSH2 0x193E PUSH2 0x183F JUMP JUMPDEST JUMPDEST PUSH2 0x194A DUP5 DUP3 DUP6 PUSH2 0x1901 JUMP JUMPDEST POP SWAP4 SWAP3 POP POP POP JUMP JUMPDEST PUSH1 0x0 DUP3 PUSH1 0x1F DUP4 ADD SLT PUSH2 0x1967 JUMPI PUSH2 0x1966 PUSH2 0x183A JUMP JUMPDEST JUMPDEST DUP2 CALLDATALOAD PUSH2 0x1977 DUP5 DUP3 PUSH1 0x20 DUP7 ADD PUSH2 0x1910 JUMP JUMPDEST SWAP2 POP POP SWAP3 SWAP2 POP POP JUMP JUMPDEST PUSH1 0x0 PUSH8 0xFFFFFFFFFFFFFFFF DUP3 GT ISZERO PUSH2 0x199B JUMPI PUSH2 0x199A PUSH2 0x1855 JUMP JUMPDEST JUMPDEST PUSH1 0x20 DUP3 MUL SWAP1 POP PUSH1 0x20 DUP2 ADD SWAP1 POP SWAP2 SWAP1 POP JUMP JUMPDEST PUSH1 0x0 DUP1 REVERT JUMPDEST PUSH1 0x0 PUSH2 0x19C4 PUSH2 0x19BF DUP5 PUSH2 0x1980 JUMP JUMPDEST PUSH2 0x18B5 JUMP JUMPDEST SWAP1 POP DUP1 DUP4 DUP3 MSTORE PUSH1 0x20 DUP3 ADD SWAP1 POP PUSH1 0x20 DUP5 MUL DUP4 ADD DUP6 DUP2 GT ISZERO PUSH2 0x19E7 JUMPI PUSH2 0x19E6 PUSH2 0x19AC JUMP JUMPDEST JUMPDEST DUP4 JUMPDEST DUP2 DUP2 LT ISZERO PUSH2 0x1A10 JUMPI DUP1 PUSH2 0x19FC DUP9 DUP3 PUSH2 0x1735 JUMP JUMPDEST DUP5 MSTORE PUSH1 0x20 DUP5 ADD SWAP4 POP POP PUSH1 0x20 DUP2 ADD SWAP1 POP PUSH2 0x19E9 JUMP JUMPDEST POP POP POP SWAP4 SWAP3 POP POP POP JUMP JUMPDEST PUSH1 0x0 DUP3 PUSH1 0x1F DUP4 ADD SLT PUSH2 0x1A2F JUMPI PUSH2 0x1A2E PUSH2 0x183A JUMP JUMPDEST JUMPDEST DUP2 CALLDATALOAD PUSH2 0x1A3F DUP5 DUP3 PUSH1 0x20 DUP7 ADD PUSH2 0x19B1 JUMP JUMPDEST SWAP2 POP POP SWAP3 SWAP2 POP POP JUMP JUMPDEST PUSH1 0x0 DUP1 PUSH1 0x40 DUP4 DUP6 SUB SLT ISZERO PUSH2 0x1A5F JUMPI PUSH2 0x1A5E PUSH2 0x170A JUMP JUMPDEST JUMPDEST PUSH1 0x0 DUP4 ADD CALLDATALOAD PUSH8 0xFFFFFFFFFFFFFFFF DUP2 GT ISZERO PUSH2 0x1A7D JUMPI PUSH2 0x1A7C PUSH2 0x170F JUMP JUMPDEST JUMPDEST PUSH2 0x1A89 DUP6 DUP3 DUP7 ADD PUSH2 0x1952 JUMP JUMPDEST SWAP3 POP POP PUSH1 0x20 DUP4 ADD CALLDATALOAD PUSH8 0xFFFFFFFFFFFFFFFF DUP2 GT ISZERO PUSH2 0x1AAA JUMPI PUSH2 0x1AA9 PUSH2 0x170F JUMP JUMPDEST JUMPDEST PUSH2 0x1AB6 DUP6 DUP3 DUP7 ADD PUSH2 0x1A1A JUMP JUMPDEST SWAP2 POP POP SWAP3 POP SWAP3 SWAP1 POP JUMP JUMPDEST PUSH1 0x0 PUSH1 0x20 DUP3 ADD SWAP1 POP PUSH2 0x1AD5 PUSH1 0x0 DUP4 ADD DUP5 PUSH2 0x1802 JUMP JUMPDEST SWAP3 SWAP2 POP POP JUMP JUMPDEST PUSH1 0x0 DUP1 PUSH1 0x40 DUP4 DUP6 SUB SLT ISZERO PUSH2 0x1AF2 JUMPI PUSH2 0x1AF1 PUSH2 0x170A JUMP JUMPDEST JUMPDEST PUSH1 0x0 PUSH2 0x1B00 DUP6 DUP3 DUP7 ADD PUSH2 0x17C0 JUMP JUMPDEST SWAP3 POP POP PUSH1 0x20 PUSH2 0x1B11 DUP6 DUP3 DUP7 ADD PUSH2 0x17C0 JUMP JUMPDEST SWAP2 POP POP SWAP3 POP SWAP3 SWAP1 POP JUMP JUMPDEST PUSH2 0x1B24 DUP2 PUSH2 0x1797 JUMP JUMPDEST DUP3 MSTORE POP POP JUMP JUMPDEST PUSH1 0x0 PUSH1 0x20 DUP3 ADD SWAP1 POP PUSH2 0x1B3F PUSH1 0x0 DUP4 ADD DUP5 PUSH2 0x1B1B JUMP JUMPDEST SWAP3 SWAP2 POP POP JUMP JUMPDEST PUSH1 0x0 DUP1 PUSH1 0x40 DUP4 DUP6 SUB SLT ISZERO PUSH2 0x1B5C JUMPI PUSH2 0x1B5B PUSH2 0x170A JUMP JUMPDEST JUMPDEST PUSH1 0x0 DUP4 ADD CALLDATALOAD PUSH8 0xFFFFFFFFFFFFFFFF DUP2 GT ISZERO PUSH2 0x1B7A JUMPI PUSH2 0x1B79 PUSH2 0x170F JUMP JUMPDEST JUMPDEST PUSH2 0x1B86 DUP6 DUP3 DUP7 ADD PUSH2 0x1952 JUMP JUMPDEST SWAP3 POP POP PUSH1 0x20 PUSH2 0x1B97 DUP6 DUP3 DUP7 ADD PUSH2 0x1735 JUMP JUMPDEST SWAP2 POP POP SWAP3 POP SWAP3 SWAP1 POP JUMP JUMPDEST PUSH1 0x0 DUP2 SWAP1 POP SWAP2 SWAP1 POP JUMP JUMPDEST PUSH1 0x0 PUSH2 0x1BC6 PUSH2 0x1BC1 PUSH2 0x1BBC DUP5 PUSH2 0x1777 JUMP JUMPDEST PUSH2 0x1BA1 JUMP JUMPDEST PUSH2 0x1777 JUMP JUMPDEST SWAP1 POP SWAP2 SWAP1 POP JUMP JUMPDEST PUSH1 0x0 PUSH2 0x1BD8 DUP3 PUSH2 0x1BAB JUMP JUMPDEST SWAP1 POP SWAP2 SWAP1 POP JUMP JUMPDEST PUSH1 0x0 PUSH2 0x1BEA DUP3 PUSH2 0x1BCD JUMP JUMPDEST SWAP1 POP SWAP2 SWAP1 POP JUMP JUMPDEST PUSH2 0x1BFA DUP2 PUSH2 0x1BDF JUMP JUMPDEST DUP3 MSTORE POP POP JUMP JUMPDEST PUSH1 0x0 PUSH1 0x20 DUP3 ADD SWAP1 POP PUSH2 0x1C15 PUSH1 0x0 DUP4 ADD DUP5 PUSH2 0x1BF1 JUMP JUMPDEST SWAP3 SWAP2 POP POP JUMP JUMPDEST PUSH1 0x0 DUP3 DUP3 MSTORE PUSH1 0x20 DUP3 ADD SWAP1 POP SWAP3 SWAP2 POP POP JUMP JUMPDEST PUSH32 0x576974686472617720616D6F756E7420697320746F6F206C6F77000000000000 PUSH1 0x0 DUP3 ADD MSTORE POP JUMP JUMPDEST PUSH1 0x0 PUSH2 0x1C62 PUSH1 0x1A DUP4 PUSH2 0x1C1B JUMP JUMPDEST SWAP2 POP PUSH2 0x1C6D DUP3 PUSH2 0x1C2C JUMP JUMPDEST PUSH1 0x20 DUP3 ADD SWAP1 POP SWAP2 SWAP1 POP JUMP JUMPDEST PUSH1 0x0 PUSH1 0x20 DUP3 ADD SWAP1 POP DUP2 DUP2 SUB PUSH1 0x0 DUP4 ADD MSTORE PUSH2 0x1C91 DUP2 PUSH2 0x1C55 JUMP JUMPDEST SWAP1 POP SWAP2 SWAP1 POP JUMP JUMPDEST PUSH32 0x576974686472617720616D6F756E742065786365656473206D6178696D756D20 PUSH1 0x0 DUP3 ADD MSTORE PUSH32 0x6C696D6974000000000000000000000000000000000000000000000000000000 PUSH1 0x20 DUP3 ADD MSTORE POP JUMP JUMPDEST PUSH1 0x0 PUSH2 0x1CF4 PUSH1 0x25 DUP4 PUSH2 0x1C1B JUMP JUMPDEST SWAP2 POP PUSH2 0x1CFF DUP3 PUSH2 0x1C98 JUMP JUMPDEST PUSH1 0x40 DUP3 ADD SWAP1 POP SWAP2 SWAP1 POP JUMP JUMPDEST PUSH1 0x0 PUSH1 0x20 DUP3 ADD SWAP1 POP DUP2 DUP2 SUB PUSH1 0x0 DUP4 ADD MSTORE PUSH2 0x1D23 DUP2 PUSH2 0x1CE7 JUMP JUMPDEST SWAP1 POP SWAP2 SWAP1 POP JUMP JUMPDEST PUSH32 0x496E73756666696369656E742062616C616E6365000000000000000000000000 PUSH1 0x0 DUP3 ADD MSTORE POP JUMP JUMPDEST PUSH1 0x0 PUSH2 0x1D60 PUSH1 0x14 DUP4 PUSH2 0x1C1B JUMP JUMPDEST SWAP2 POP PUSH2 0x1D6B DUP3 PUSH2 0x1D2A JUMP JUMPDEST PUSH1 0x20 DUP3 ADD SWAP1 POP SWAP2 SWAP1 POP JUMP JUMPDEST PUSH1 0x0 PUSH1 0x20 DUP3 ADD SWAP1 POP DUP2 DUP2 SUB PUSH1 0x0 DUP4 ADD MSTORE PUSH2 0x1D8F DUP2 PUSH2 0x1D53 JUMP JUMPDEST SWAP1 POP SWAP2 SWAP1 POP JUMP JUMPDEST PUSH32 0x4E487B7100000000000000000000000000000000000000000000000000000000 PUSH1 0x0 MSTORE PUSH1 0x11 PUSH1 0x4 MSTORE PUSH1 0x24 PUSH1 0x0 REVERT JUMPDEST PUSH1 0x0 PUSH2 0x1DD0 DUP3 PUSH2 0x1714 JUMP JUMPDEST SWAP2 POP PUSH2 0x1DDB DUP4 PUSH2 0x1714 JUMP JUMPDEST SWAP3 POP DUP3 DUP3 SUB SWAP1 POP DUP2 DUP2 GT ISZERO PUSH2 0x1DF3 JUMPI PUSH2 0x1DF2 PUSH2 0x1D96 JUMP JUMPDEST JUMPDEST SWAP3 SWAP2 POP POP JUMP JUMPDEST PUSH1 0x0 PUSH1 0x40 DUP3 ADD SWAP1 POP PUSH2 0x1E0E PUSH1 0x0 DUP4 ADD DUP6 PUSH2 0x1B1B JUMP JUMPDEST PUSH2 0x1E1B PUSH1 0x20 DUP4 ADD DUP5 PUSH2 0x1802 JUMP JUMPDEST SWAP4 SWAP3 POP POP POP JUMP JUMPDEST PUSH1 0x0 DUP2 ISZERO ISZERO SWAP1 POP SWAP2 SWAP1 POP JUMP JUMPDEST PUSH2 0x1E37 DUP2 PUSH2 0x1E22 JUMP JUMPDEST DUP2 EQ PUSH2 0x1E42 JUMPI PUSH1 0x0 DUP1 REVERT JUMPDEST POP JUMP JUMPDEST PUSH1 0x0 DUP2 MLOAD SWAP1 POP PUSH2 0x1E54 DUP2 PUSH2 0x1E2E JUMP JUMPDEST SWAP3 SWAP2 POP POP JUMP JUMPDEST PUSH1 0x0 PUSH1 0x20 DUP3 DUP5 SUB SLT ISZERO PUSH2 0x1E70 JUMPI PUSH2 0x1E6F PUSH2 0x170A JUMP JUMPDEST JUMPDEST PUSH1 0x0 PUSH2 0x1E7E DUP5 DUP3 DUP6 ADD PUSH2 0x1E45 JUMP JUMPDEST SWAP2 POP POP SWAP3 SWAP2 POP POP JUMP JUMPDEST PUSH32 0x5472616E73666572206F66206E657420616D6F756E74206661696C6564000000 PUSH1 0x0 DUP3 ADD MSTORE POP JUMP JUMPDEST PUSH1 0x0 PUSH2 0x1EBD PUSH1 0x1D DUP4 PUSH2 0x1C1B JUMP JUMPDEST SWAP2 POP PUSH2 0x1EC8 DUP3 PUSH2 0x1E87 JUMP JUMPDEST PUSH1 0x20 DUP3 ADD SWAP1 POP SWAP2 SWAP1 POP JUMP JUMPDEST PUSH1 0x0 PUSH1 0x20 DUP3 ADD SWAP1 POP DUP2 DUP2 SUB PUSH1 0x0 DUP4 ADD MSTORE PUSH2 0x1EEC DUP2 PUSH2 0x1EB0 JUMP JUMPDEST SWAP1 POP SWAP2 SWAP1 POP JUMP JUMPDEST PUSH32 0x5472616E73666572206F6620666565206661696C656400000000000000000000 PUSH1 0x0 DUP3 ADD MSTORE POP JUMP JUMPDEST PUSH1 0x0 PUSH2 0x1F29 PUSH1 0x16 DUP4 PUSH2 0x1C1B JUMP JUMPDEST SWAP2 POP PUSH2 0x1F34 DUP3 PUSH2 0x1EF3 JUMP JUMPDEST PUSH1 0x20 DUP3 ADD SWAP1 POP SWAP2 SWAP1 POP JUMP JUMPDEST PUSH1 0x0 PUSH1 0x20 DUP3 ADD SWAP1 POP DUP2 DUP2 SUB PUSH1 0x0 DUP4 ADD MSTORE PUSH2 0x1F58 DUP2 PUSH2 0x1F1C JUMP JUMPDEST SWAP1 POP SWAP2 SWAP1 POP JUMP JUMPDEST PUSH1 0x0 PUSH1 0x60 DUP3 ADD SWAP1 POP PUSH2 0x1F74 PUSH1 0x0 DUP4 ADD DUP7 PUSH2 0x1802 JUMP JUMPDEST PUSH2 0x1F81 PUSH1 0x20 DUP4 ADD DUP6 PUSH2 0x1802 JUMP JUMPDEST PUSH2 0x1F8E PUSH1 0x40 DUP4 ADD DUP5 PUSH2 0x1802 JUMP JUMPDEST SWAP5 SWAP4 POP POP POP POP JUMP JUMPDEST PUSH1 0x0 DUP2 MLOAD SWAP1 POP SWAP2 SWAP1 POP JUMP JUMPDEST PUSH1 0x0 JUMPDEST DUP4 DUP2 LT ISZERO PUSH2 0x1FBF JUMPI DUP1 DUP3 ADD MLOAD DUP2 DUP5 ADD MSTORE PUSH1 0x20 DUP2 ADD SWAP1 POP PUSH2 0x1FA4 JUMP JUMPDEST PUSH1 0x0 DUP5 DUP5 ADD MSTORE POP POP POP POP JUMP JUMPDEST PUSH1 0x0 PUSH2 0x1FD6 DUP3 PUSH2 0x1F96 JUMP JUMPDEST PUSH2 0x1FE0 DUP2 DUP6 PUSH2 0x1C1B JUMP JUMPDEST SWAP4 POP PUSH2 0x1FF0 DUP2 DUP6 PUSH1 0x20 DUP7 ADD PUSH2 0x1FA1 JUMP JUMPDEST PUSH2 0x1FF9 DUP2 PUSH2 0x1844 JUMP JUMPDEST DUP5 ADD SWAP2 POP POP SWAP3 SWAP2 POP POP JUMP JUMPDEST PUSH1 0x0 DUP2 MLOAD SWAP1 POP SWAP2 SWAP1 POP JUMP JUMPDEST PUSH1 0x0 DUP3 DUP3 MSTORE PUSH1 0x20 DUP3 ADD SWAP1 POP SWAP3 SWAP2 POP POP JUMP JUMPDEST PUSH1 0x0 DUP2 SWAP1 POP PUSH1 0x20 DUP3 ADD SWAP1 POP SWAP2 SWAP1 POP JUMP JUMPDEST PUSH2 0x2039 DUP2 PUSH2 0x1714 JUMP JUMPDEST DUP3 MSTORE POP POP JUMP JUMPDEST PUSH1 0x0 PUSH2 0x204B DUP4 DUP4 PUSH2 0x2030 JUMP JUMPDEST PUSH1 0x20 DUP4 ADD SWAP1 POP SWAP3 SWAP2 POP POP JUMP JUMPDEST PUSH1 0x0 PUSH1 0x20 DUP3 ADD SWAP1 POP SWAP2 SWAP1 POP JUMP JUMPDEST PUSH1 0x0 PUSH2 0x206F DUP3 PUSH2 0x2004 JUMP JUMPDEST PUSH2 0x2079 DUP2 DUP6 PUSH2 0x200F JUMP JUMPDEST SWAP4 POP PUSH2 0x2084 DUP4 PUSH2 0x2020 JUMP JUMPDEST DUP1 PUSH1 0x0 JUMPDEST DUP4 DUP2 LT ISZERO PUSH2 0x20B5 JUMPI DUP2 MLOAD PUSH2 0x209C DUP9 DUP3 PUSH2 0x203F JUMP JUMPDEST SWAP8 POP PUSH2 0x20A7 DUP4 PUSH2 0x2057 JUMP JUMPDEST SWAP3 POP POP PUSH1 0x1 DUP2 ADD SWAP1 POP PUSH2 0x2088 JUMP JUMPDEST POP DUP6 SWAP4 POP POP POP POP SWAP3 SWAP2 POP POP JUMP JUMPDEST PUSH1 0x0 PUSH1 0x60 DUP3 ADD SWAP1 POP DUP2 DUP2 SUB PUSH1 0x0 DUP4 ADD MSTORE PUSH2 0x20DC DUP2 DUP7 PUSH2 0x1FCB JUMP JUMPDEST SWAP1 POP DUP2 DUP2 SUB PUSH1 0x20 DUP4 ADD MSTORE PUSH2 0x20F0 DUP2 DUP6 PUSH2 0x2064 JUMP JUMPDEST SWAP1 POP PUSH2 0x20FF PUSH1 0x40 DUP4 ADD DUP5 PUSH2 0x1802 JUMP JUMPDEST SWAP5 SWAP4 POP POP POP POP JUMP JUMPDEST PUSH1 0x0 DUP2 SWAP1 POP SWAP2 SWAP1 POP JUMP JUMPDEST PUSH1 0x0 PUSH8 0xFFFFFFFFFFFFFFFF DUP3 AND SWAP1 POP SWAP2 SWAP1 POP JUMP JUMPDEST PUSH1 0x0 PUSH2 0x2140 PUSH2 0x213B PUSH2 0x2136 DUP5 PUSH2 0x2107 JUMP JUMPDEST PUSH2 0x1BA1 JUMP JUMPDEST PUSH2 0x2111 JUMP JUMPDEST SWAP1 POP SWAP2 SWAP1 POP JUMP JUMPDEST PUSH2 0x2150 DUP2 PUSH2 0x2125 JUMP JUMPDEST DUP3 MSTORE POP POP JUMP JUMPDEST PUSH1 0x0 PUSH1 0x20 DUP3 ADD SWAP1 POP PUSH2 0x216B PUSH1 0x0 DUP4 ADD DUP5 PUSH2 0x2147 JUMP JUMPDEST SWAP3 SWAP2 POP POP JUMP JUMPDEST PUSH1 0x0 PUSH2 0x217C DUP3 PUSH2 0x1714 JUMP JUMPDEST SWAP2 POP PUSH2 0x2187 DUP4 PUSH2 0x1714 JUMP JUMPDEST SWAP3 POP DUP3 DUP3 MUL PUSH2 0x2195 DUP2 PUSH2 0x1714 JUMP JUMPDEST SWAP2 POP DUP3 DUP3 DIV DUP5 EQ DUP4 ISZERO OR PUSH2 0x21AC JUMPI PUSH2 0x21AB PUSH2 0x1D96 JUMP JUMPDEST JUMPDEST POP SWAP3 SWAP2 POP POP JUMP JUMPDEST PUSH32 0x4E487B7100000000000000000000000000000000000000000000000000000000 PUSH1 0x0 MSTORE PUSH1 0x12 PUSH1 0x4 MSTORE PUSH1 0x24 PUSH1 0x0 REVERT JUMPDEST PUSH1 0x0 PUSH2 0x21ED DUP3 PUSH2 0x1714 JUMP JUMPDEST SWAP2 POP PUSH2 0x21F8 DUP4 PUSH2 0x1714 JUMP JUMPDEST SWAP3 POP DUP3 PUSH2 0x2208 JUMPI PUSH2 0x2207 PUSH2 0x21B3 JUMP JUMPDEST JUMPDEST DUP3 DUP3 DIV SWAP1 POP SWAP3 SWAP2 POP POP JUMP JUMPDEST PUSH32 0x4465706F73697420616D6F756E7420697320746F6F206C6F7700000000000000 PUSH1 0x0 DUP3 ADD MSTORE POP JUMP JUMPDEST PUSH1 0x0 PUSH2 0x2249 PUSH1 0x19 DUP4 PUSH2 0x1C1B JUMP JUMPDEST SWAP2 POP PUSH2 0x2254 DUP3 PUSH2 0x2213 JUMP JUMPDEST PUSH1 0x20 DUP3 ADD SWAP1 POP SWAP2 SWAP1 POP JUMP JUMPDEST PUSH1 0x0 PUSH1 0x20 DUP3 ADD SWAP1 POP DUP2 DUP2 SUB PUSH1 0x0 DUP4 ADD MSTORE PUSH2 0x2278 DUP2 PUSH2 0x223C JUMP JUMPDEST SWAP1 POP SWAP2 SWAP1 POP JUMP JUMPDEST PUSH32 0x4465706F73697420616D6F756E742065786365656473206D6178696D756D206C PUSH1 0x0 DUP3 ADD MSTORE PUSH32 0x696D697400000000000000000000000000000000000000000000000000000000 PUSH1 0x20 DUP3 ADD MSTORE POP JUMP JUMPDEST PUSH1 0x0 PUSH2 0x22DB PUSH1 0x24 DUP4 PUSH2 0x1C1B JUMP JUMPDEST SWAP2 POP PUSH2 0x22E6 DUP3 PUSH2 0x227F JUMP JUMPDEST PUSH1 0x40 DUP3 ADD SWAP1 POP SWAP2 SWAP1 POP JUMP JUMPDEST PUSH1 0x0 PUSH1 0x20 DUP3 ADD SWAP1 POP DUP2 DUP2 SUB PUSH1 0x0 DUP4 ADD MSTORE PUSH2 0x230A DUP2 PUSH2 0x22CE JUMP JUMPDEST SWAP1 POP SWAP2 SWAP1 POP JUMP JUMPDEST PUSH1 0x0 PUSH1 0x60 DUP3 ADD SWAP1 POP PUSH2 0x2326 PUSH1 0x0 DUP4 ADD DUP7 PUSH2 0x1B1B JUMP JUMPDEST PUSH2 0x2333 PUSH1 0x20 DUP4 ADD DUP6 PUSH2 0x1B1B JUMP JUMPDEST PUSH2 0x2340 PUSH1 0x40 DUP4 ADD DUP5 PUSH2 0x1802 JUMP JUMPDEST SWAP5 SWAP4 POP POP POP POP JUMP JUMPDEST PUSH1 0x0 PUSH2 0x2353 DUP3 PUSH2 0x1714 JUMP JUMPDEST SWAP2 POP PUSH2 0x235E DUP4 PUSH2 0x1714 JUMP JUMPDEST SWAP3 POP DUP3 DUP3 ADD SWAP1 POP DUP1 DUP3 GT ISZERO PUSH2 0x2376 JUMPI PUSH2 0x2375 PUSH2 0x1D96 JUMP JUMPDEST JUMPDEST SWAP3 SWAP2 POP POP JUMP JUMPDEST PUSH1 0x0 DUP2 MLOAD SWAP1 POP PUSH2 0x238B DUP2 PUSH2 0x171E JUMP JUMPDEST SWAP3 SWAP2 POP POP JUMP JUMPDEST PUSH1 0x0 PUSH1 0x20 DUP3 DUP5 SUB SLT ISZERO PUSH2 0x23A7 JUMPI PUSH2 0x23A6 PUSH2 0x170A JUMP JUMPDEST JUMPDEST PUSH1 0x0 PUSH2 0x23B5 DUP5 DUP3 DUP6 ADD PUSH2 0x237C JUMP JUMPDEST SWAP2 POP POP SWAP3 SWAP2 POP POP JUMP JUMPDEST PUSH32 0x436173696E6F20646F6573206E6F74206861766520656E6F7567682066756E64 PUSH1 0x0 DUP3 ADD MSTORE PUSH32 0x7320746F2070617920746865207072697A650000000000000000000000000000 PUSH1 0x20 DUP3 ADD MSTORE POP JUMP JUMPDEST PUSH1 0x0 PUSH2 0x241A PUSH1 0x32 DUP4 PUSH2 0x1C1B JUMP JUMPDEST SWAP2 POP PUSH2 0x2425 DUP3 PUSH2 0x23BE JUMP JUMPDEST PUSH1 0x40 DUP3 ADD SWAP1 POP SWAP2 SWAP1 POP JUMP JUMPDEST PUSH1 0x0 PUSH1 0x20 DUP3 ADD SWAP1 POP DUP2 DUP2 SUB PUSH1 0x0 DUP4 ADD MSTORE PUSH2 0x2449 DUP2 PUSH2 0x240D JUMP JUMPDEST SWAP1 POP SWAP2 SWAP1 POP JUMP JUMPDEST PUSH32 0x5472616E73666572206F662062657420616D6F756E74206661696C6564000000 PUSH1 0x0 DUP3 ADD MSTORE POP JUMP JUMPDEST PUSH1 0x0 PUSH2 0x2486 PUSH1 0x1D DUP4 PUSH2 0x1C1B JUMP JUMPDEST SWAP2 POP PUSH2 0x2491 DUP3 PUSH2 0x2450 JUMP JUMPDEST PUSH1 0x20 DUP3 ADD SWAP1 POP SWAP2 SWAP1 POP JUMP JUMPDEST PUSH1 0x0 PUSH1 0x20 DUP3 ADD SWAP1 POP DUP2 DUP2 SUB PUSH1 0x0 DUP4 ADD MSTORE PUSH2 0x24B5 DUP2 PUSH2 0x2479 JUMP JUMPDEST SWAP1 POP SWAP2 SWAP1 POP JUMP JUMPDEST PUSH1 0x0 PUSH1 0x60 DUP3 ADD SWAP1 POP DUP2 DUP2 SUB PUSH1 0x0 DUP4 ADD MSTORE PUSH2 0x24D6 DUP2 DUP7 PUSH2 0x1FCB JUMP JUMPDEST SWAP1 POP PUSH2 0x24E5 PUSH1 0x20 DUP4 ADD DUP6 PUSH2 0x1802 JUMP JUMPDEST PUSH2 0x24F2 PUSH1 0x40 DUP4 ADD DUP5 PUSH2 0x1802 JUMP JUMPDEST SWAP5 SWAP4 POP POP POP POP JUMP INVALID LOG2 PUSH5 0x6970667358 0x22 SLT KECCAK256 POP 0xE8 0xE6 BASEFEE DELEGATECALL 0xD1 PUSH22 0xD444A7964DF223B7F18719459F773F7373CECD8F00AB BLOBBASEFEE 0xF9 0x4B PUSH5 0x736F6C6343 STOP ADDMOD XOR STOP CALLER "},"methodIdentifiers":{"balances(address)":"27e235e3","calculateFee(uint256)":"99a5d747","claimPrize(uint256)":"d7098154","deposit(uint256)":"b6b55f25","drawResult(string,uint256[])":"43471f76","getUserBalance(address)":"47734892","getUserDepositTimestamp(address)":"c8495e44","initialize(address,address)":"485cc955","maxDepositAmount()":"8ed83271","maxWithdrawAmount()":"f516440c","minDepositAmount()":"645006ca","minWithdrawAmount()":"457e1a49","owner()":"8da5cb5b","placeBet(string,uint256)":"d76f2a1e","renounceOwnership()":"715018a6","token()":"fc0c546a","transferOwnership(address)":"f2fde38b","updateMaxDepositAmount(uint256)":"0945d42c","updateMaxWithdrawAmount(uint256)":"5b9cc8b1","updateMinDepositAmount(uint256)":"84780205","updateMinWithdrawAmount(uint256)":"ff4f3546","withdraw(uint256)":"2e1a7d4d"}},"storageLayout":{"storage":[{"astId":1591,"contract":"contracts/Casino.sol:Casino","label":"token","offset":0,"slot":"0","type":"t_contract(EliEllaCoin)2240"},{"astId":1601,"contract":"contracts/Casino.sol:Casino","label":"balances","offset":0,"slot":"1","type":"t_mapping(t_address,t_struct(UserBalance)1596_storage)"},{"astId":1603,"contract":"contracts/Casino.sol:Casino","label":"minDepositAmount","offset":0,"slot":"2","type":"t_uint256"},{"astId":1605,"contract":"contracts/Casino.sol:Casino","label":"maxDepositAmount","offset":0,"slot":"3","type":"t_uint256"},{"astId":1607,"contract":"contracts/Casino.sol:Casino","label":"minWithdrawAmount","offset":0,"slot":"4","type":"t_uint256"},{"astId":1609,"contract":"contracts/Casino.sol:Casino","label":"maxWithdrawAmount","offset":0,"slot":"5","type":"t_uint256"}],"types":{"t_address":{"encoding":"inplace","label":"address","numberOfBytes":"20"},"t_contract(EliEllaCoin)2240":{"encoding":"inplace","label":"contract EliEllaCoin","numberOfBytes":"20"},"t_mapping(t_address,t_struct(UserBalance)1596_storage)":{"encoding":"mapping","key":"t_address","label":"mapping(address => struct Casino.UserBalance)","numberOfBytes":"32","value":"t_struct(UserBalance)1596_storage"},"t_struct(UserBalance)1596_storage":{"encoding":"inplace","label":"struct Casino.UserBalance","members":[{"astId":1593,"contract":"contracts/Casino.sol:Casino","label":"balance","offset":0,"slot":"0","type":"t_uint256"},{"astId":1595,"contract":"contracts/Casino.sol:Casino","label":"depositTimestamp","offset":0,"slot":"1","type":"t_uint256"}],"numberOfBytes":"64"},"t_uint256":{"encoding":"inplace","label":"uint256","numberOfBytes":"32"}}}}}}