{
  "_format": "hh-sol-artifact-1",
  "contractName": "Casino",
  "sourceName": "contracts/Casino.sol",
  "abi": [
    {
      "inputs": [],
      "name": "InvalidInitialization",
      "type": "error"
    },
    {
      "inputs": [],
      "name": "NotInitializing",
      "type": "error"
    },
    {
      "inputs": [
        {
          "internalType": "address",
          "name": "owner",
          "type": "address"
        }
      ],
      "name": "OwnableInvalidOwner",
      "type": "error"
    },
    {
      "inputs": [
        {
          "internalType": "address",
          "name": "account",
          "type": "address"
        }
      ],
      "name": "OwnableUnauthorizedAccount",
      "type": "error"
    },
    {
      "anonymous": false,
      "inputs": [
        {
          "indexed": true,
          "internalType": "address",
          "name": "user",
          "type": "address"
        },
        {
          "indexed": false,
          "internalType": "string",
          "name": "game",
          "type": "string"
        },
        {
          "indexed": false,
          "internalType": "uint256",
          "name": "amount",
          "type": "uint256"
        },
        {
          "indexed": false,
          "internalType": "uint256",
          "name": "timestamp",
          "type": "uint256"
        }
      ],
      "name": "BetPlaced",
      "type": "event"
    },
    {
      "anonymous": false,
      "inputs": [
        {
          "indexed": true,
          "internalType": "address",
          "name": "user",
          "type": "address"
        },
        {
          "indexed": false,
          "internalType": "uint256",
          "name": "amount",
          "type": "uint256"
        },
        {
          "indexed": false,
          "internalType": "uint256",
          "name": "fee",
          "type": "uint256"
        },
        {
          "indexed": false,
          "internalType": "uint256",
          "name": "timestamp",
          "type": "uint256"
        }
      ],
      "name": "Deposited",
      "type": "event"
    },
    {
      "anonymous": false,
      "inputs": [
        {
          "indexed": false,
          "internalType": "uint64",
          "name": "version",
          "type": "uint64"
        }
      ],
      "name": "Initialized",
      "type": "event"
    },
    {
      "anonymous": false,
      "inputs": [
        {
          "indexed": false,
          "internalType": "uint256",
          "name": "newMaxDepositAmount",
          "type": "uint256"
        }
      ],
      "name": "MaxDepositAmountUpdated",
      "type": "event"
    },
    {
      "anonymous": false,
      "inputs": [
        {
          "indexed": false,
          "internalType": "uint256",
          "name": "newMaxWithdrawAmount",
          "type": "uint256"
        }
      ],
      "name": "MaxWithdrawAmountUpdated",
      "type": "event"
    },
    {
      "anonymous": false,
      "inputs": [
        {
          "indexed": false,
          "internalType": "uint256",
          "name": "newMinDepositAmount",
          "type": "uint256"
        }
      ],
      "name": "MinDepositAmountUpdated",
      "type": "event"
    },
    {
      "anonymous": false,
      "inputs": [
        {
          "indexed": false,
          "internalType": "uint256",
          "name": "newMinWithdrawAmount",
          "type": "uint256"
        }
      ],
      "name": "MinWithdrawAmountUpdated",
      "type": "event"
    },
    {
      "anonymous": false,
      "inputs": [
        {
          "indexed": true,
          "internalType": "address",
          "name": "previousOwner",
          "type": "address"
        },
        {
          "indexed": true,
          "internalType": "address",
          "name": "newOwner",
          "type": "address"
        }
      ],
      "name": "OwnershipTransferred",
      "type": "event"
    },
    {
      "anonymous": false,
      "inputs": [
        {
          "indexed": true,
          "internalType": "address",
          "name": "user",
          "type": "address"
        },
        {
          "indexed": false,
          "internalType": "uint256",
          "name": "prizeAmount",
          "type": "uint256"
        },
        {
          "indexed": false,
          "internalType": "uint256",
          "name": "timestamp",
          "type": "uint256"
        }
      ],
      "name": "PrizeClaimed",
      "type": "event"
    },
    {
      "anonymous": false,
      "inputs": [
        {
          "indexed": false,
          "internalType": "string",
          "name": "game",
          "type": "string"
        },
        {
          "indexed": false,
          "internalType": "uint256[]",
          "name": "winningNumbers",
          "type": "uint256[]"
        },
        {
          "indexed": false,
          "internalType": "uint256",
          "name": "timestamp",
          "type": "uint256"
        }
      ],
      "name": "ResultDrawn",
      "type": "event"
    },
    {
      "anonymous": false,
      "inputs": [
        {
          "indexed": true,
          "internalType": "address",
          "name": "user",
          "type": "address"
        },
        {
          "indexed": false,
          "internalType": "uint256",
          "name": "amount",
          "type": "uint256"
        },
        {
          "indexed": false,
          "internalType": "uint256",
          "name": "fee",
          "type": "uint256"
        },
        {
          "indexed": false,
          "internalType": "uint256",
          "name": "timestamp",
          "type": "uint256"
        }
      ],
      "name": "Withdrawn",
      "type": "event"
    },
    {
      "inputs": [
        {
          "internalType": "address",
          "name": "",
          "type": "address"
        }
      ],
      "name": "balances",
      "outputs": [
        {
          "internalType": "uint256",
          "name": "balance",
          "type": "uint256"
        },
        {
          "internalType": "uint256",
          "name": "depositTimestamp",
          "type": "uint256"
        }
      ],
      "stateMutability": "view",
      "type": "function"
    },
    {
      "inputs": [
        {
          "internalType": "uint256",
          "name": "amount",
          "type": "uint256"
        }
      ],
      "name": "calculateFee",
      "outputs": [
        {
          "internalType": "uint256",
          "name": "",
          "type": "uint256"
        }
      ],
      "stateMutability": "pure",
      "type": "function"
    },
    {
      "inputs": [
        {
          "internalType": "uint256",
          "name": "prizeAmount",
          "type": "uint256"
        }
      ],
      "name": "claimPrize",
      "outputs": [],
      "stateMutability": "nonpayable",
      "type": "function"
    },
    {
      "inputs": [
        {
          "internalType": "uint256",
          "name": "amount",
          "type": "uint256"
        }
      ],
      "name": "deposit",
      "outputs": [],
      "stateMutability": "nonpayable",
      "type": "function"
    },
    {
      "inputs": [
        {
          "internalType": "string",
          "name": "game",
          "type": "string"
        },
        {
          "internalType": "uint256[]",
          "name": "winningNumbers",
          "type": "uint256[]"
        }
      ],
      "name": "drawResult",
      "outputs": [],
      "stateMutability": "nonpayable",
      "type": "function"
    },
    {
      "inputs": [
        {
          "internalType": "address",
          "name": "user",
          "type": "address"
        }
      ],
      "name": "getUserBalance",
      "outputs": [
        {
          "internalType": "uint256",
          "name": "",
          "type": "uint256"
        }
      ],
      "stateMutability": "view",
      "type": "function"
    },
    {
      "inputs": [
        {
          "internalType": "address",
          "name": "user",
          "type": "address"
        }
      ],
      "name": "getUserDepositTimestamp",
      "outputs": [
        {
          "internalType": "uint256",
          "name": "",
          "type": "uint256"
        }
      ],
      "stateMutability": "view",
      "type": "function"
    },
    {
      "inputs": [
        {
          "internalType": "address",
          "name": "tokenAddress",
          "type": "address"
        },
        {
          "internalType": "address",
          "name": "initialOwner",
          "type": "address"
        }
      ],
      "name": "initialize",
      "outputs": [],
      "stateMutability": "nonpayable",
      "type": "function"
    },
    {
      "inputs": [],
      "name": "maxDepositAmount",
      "outputs": [
        {
          "internalType": "uint256",
          "name": "",
          "type": "uint256"
        }
      ],
      "stateMutability": "view",
      "type": "function"
    },
    {
      "inputs": [],
      "name": "maxWithdrawAmount",
      "outputs": [
        {
          "internalType": "uint256",
          "name": "",
          "type": "uint256"
        }
      ],
      "stateMutability": "view",
      "type": "function"
    },
    {
      "inputs": [],
      "name": "minDepositAmount",
      "outputs": [
        {
          "internalType": "uint256",
          "name": "",
          "type": "uint256"
        }
      ],
      "stateMutability": "view",
      "type": "function"
    },
    {
      "inputs": [],
      "name": "minWithdrawAmount",
      "outputs": [
        {
          "internalType": "uint256",
          "name": "",
          "type": "uint256"
        }
      ],
      "stateMutability": "view",
      "type": "function"
    },
    {
      "inputs": [],
      "name": "owner",
      "outputs": [
        {
          "internalType": "address",
          "name": "",
          "type": "address"
        }
      ],
      "stateMutability": "view",
      "type": "function"
    },
    {
      "inputs": [
        {
          "internalType": "string",
          "name": "game",
          "type": "string"
        },
        {
          "internalType": "uint256",
          "name": "amount",
          "type": "uint256"
        }
      ],
      "name": "placeBet",
      "outputs": [],
      "stateMutability": "nonpayable",
      "type": "function"
    },
    {
      "inputs": [],
      "name": "renounceOwnership",
      "outputs": [],
      "stateMutability": "nonpayable",
      "type": "function"
    },
    {
      "inputs": [],
      "name": "token",
      "outputs": [
        {
          "internalType": "contract EliEllaCoin",
          "name": "",
          "type": "address"
        }
      ],
      "stateMutability": "view",
      "type": "function"
    },
    {
      "inputs": [
        {
          "internalType": "address",
          "name": "newOwner",
          "type": "address"
        }
      ],
      "name": "transferOwnership",
      "outputs": [],
      "stateMutability": "nonpayable",
      "type": "function"
    },
    {
      "inputs": [
        {
          "internalType": "uint256",
          "name": "newMaxDepositAmount",
          "type": "uint256"
        }
      ],
      "name": "updateMaxDepositAmount",
      "outputs": [],
      "stateMutability": "nonpayable",
      "type": "function"
    },
    {
      "inputs": [
        {
          "internalType": "uint256",
          "name": "newMaxWithdrawAmount",
          "type": "uint256"
        }
      ],
      "name": "updateMaxWithdrawAmount",
      "outputs": [],
      "stateMutability": "nonpayable",
      "type": "function"
    },
    {
      "inputs": [
        {
          "internalType": "uint256",
          "name": "newMinDepositAmount",
          "type": "uint256"
        }
      ],
      "name": "updateMinDepositAmount",
      "outputs": [],
      "stateMutability": "nonpayable",
      "type": "function"
    },
    {
      "inputs": [
        {
          "internalType": "uint256",
          "name": "newMinWithdrawAmount",
          "type": "uint256"
        }
      ],
      "name": "updateMinWithdrawAmount",
      "outputs": [],
      "stateMutability": "nonpayable",
      "type": "function"
    },
    {
      "inputs": [
        {
          "internalType": "uint256",
          "name": "amount",
          "type": "uint256"
        }
      ],
      "name": "withdraw",
      "outputs": [],
      "stateMutability": "nonpayable",
      "type": "function"
    }
  ],
  "bytecode": "0x608060405234801561001057600080fd5b50612530806100206000396000f3fe608060405234801561001057600080fd5b50600436106101425760003560e01c80638da5cb5b116100b8578063d70981541161007c578063d70981541461034e578063d76f2a1e1461036a578063f2fde38b14610386578063f516440c146103a2578063fc0c546a146103c0578063ff4f3546146103de57610142565b80638da5cb5b146102965780638ed83271146102b457806399a5d747146102d2578063b6b55f2514610302578063c8495e441461031e57610142565b8063477348921161010a57806347734892146101ea578063485cc9551461021a5780635b9cc8b114610236578063645006ca14610252578063715018a614610270578063847802051461027a57610142565b80630945d42c1461014757806327e235e3146101635780632e1a7d4d1461019457806343471f76146101b0578063457e1a49146101cc575b600080fd5b610161600480360381019061015c919061174a565b6103fa565b005b61017d600480360381019061017891906117d5565b610443565b60405161018b929190611811565b60405180910390f35b6101ae60048036038101906101a9919061174a565b610467565b005b6101ca60048036038101906101c59190611a48565b6107fd565b005b6101d4610844565b6040516101e19190611ac0565b60405180910390f35b61020460048036038101906101ff91906117d5565b61084a565b6040516102119190611ac0565b60405180910390f35b610234600480360381019061022f9190611adb565b610896565b005b610250600480360381019061024b919061174a565b610aa6565b005b61025a610aef565b6040516102679190611ac0565b60405180910390f35b610278610af5565b005b610294600480360381019061028f919061174a565b610b09565b005b61029e610b52565b6040516102ab9190611b2a565b60405180910390f35b6102bc610b8a565b6040516102c99190611ac0565b60405180910390f35b6102ec60048036038101906102e7919061174a565b610b90565b6040516102f99190611ac0565b60405180910390f35b61031c6004803603810190610317919061174a565b610c16565b005b610338600480360381019061033391906117d5565b610f72565b6040516103459190611ac0565b60405180910390f35b6103686004803603810190610363919061174a565b610fbe565b005b610384600480360381019061037f9190611b45565b611146565b005b6103a0600480360381019061039b91906117d5565b611357565b005b6103aa6113dd565b6040516103b79190611ac0565b60405180910390f35b6103c86113e3565b6040516103d59190611c00565b60405180910390f35b6103f860048036038101906103f3919061174a565b611407565b005b610402611450565b806003819055507ff3a20ec5419fa349cc76e6601e9ffbd3de96f394ead13b22aaa4c70937d91e01816040516104389190611ac0565b60405180910390a150565b60016020528060005260406000206000915090508060000154908060010154905082565b6004548110156104ac576040517f08c379a00000000000000000000000000000000000000000000000000000000081526004016104a390611c78565b60405180910390fd5b6005548111156104f1576040517f08c379a00000000000000000000000000000000000000000000000000000000081526004016104e890611d0a565b60405180910390fd5b80600160003373ffffffffffffffffffffffffffffffffffffffff1673ffffffffffffffffffffffffffffffffffffffff168152602001908152602001600020600001541015610576576040517f08c379a000000000000000000000000000000000000000000000000000000000815260040161056d90611d76565b60405180910390fd5b600061058182610b90565b9050600081836105919190611dc5565b905082600160003373ffffffffffffffffffffffffffffffffffffffff1673ffffffffffffffffffffffffffffffffffffffff16815260200190815260200160002060000160008282546105e59190611dc5565b9250508190555060008054906101000a900473ffffffffffffffffffffffffffffffffffffffff1673ffffffffffffffffffffffffffffffffffffffff1663a9059cbb33836040518363ffffffff1660e01b8152600401610647929190611df9565b6020604051808303816000875af1158015610666573d6000803e3d6000fd5b505050506040513d601f19601f8201168201806040525081019061068a9190611e5a565b6106c9576040517f08c379a00000000000000000000000000000000000000000000000000000000081526004016106c090611ed3565b60405180910390fd5b60008054906101000a900473ffffffffffffffffffffffffffffffffffffffff1673ffffffffffffffffffffffffffffffffffffffff1663a9059cbb30846040518363ffffffff1660e01b8152600401610724929190611df9565b6020604051808303816000875af1158015610743573d6000803e3d6000fd5b505050506040513d601f19601f820116820180604052508101906107679190611e5a565b6107a6576040517f08c379a000000000000000000000000000000000000000000000000000000000815260040161079d90611f3f565b60405180910390fd5b3373ffffffffffffffffffffffffffffffffffffffff167f75e161b3e824b114fc1a33274bd7091918dd4e639cede50b78b15a4eea956a218284426040516107f093929190611f5f565b60405180910390a2505050565b610805611450565b7f93c7fd86fd6b1d609a528d3464c486d46453b73c55ed9c6daf2ffc13a7ac2fc8828242604051610838939291906120c2565b60405180910390a15050565b60045481565b6000600160008373ffffffffffffffffffffffffffffffffffffffff1673ffffffffffffffffffffffffffffffffffffffff168152602001908152602001600020600001549050919050565b60006108a06114d7565b905060008160000160089054906101000a900460ff1615905060008260000160009054906101000a900467ffffffffffffffff1690506000808267ffffffffffffffff161480156108ee5750825b9050600060018367ffffffffffffffff16148015610923575060003073ffffffffffffffffffffffffffffffffffffffff163b145b905081158015610931575080155b15610968576040517ff92ee8a900000000000000000000000000000000000000000000000000000000815260040160405180910390fd5b60018560000160006101000a81548167ffffffffffffffff021916908367ffffffffffffffff16021790555083156109b85760018560000160086101000a81548160ff0219169083151502179055505b6109c1866114ff565b866000806101000a81548173ffffffffffffffffffffffffffffffffffffffff021916908373ffffffffffffffffffffffffffffffffffffffff160217905550678ac7230489e8000060028190555069021e19e0c9bab2400000600381905550678ac7230489e8000060048190555069021e19e0c9bab24000006005819055508315610a9d5760008560000160086101000a81548160ff0219169083151502179055507fc7f505b2f371ae2175ee4913f4499e1f2633a7b5936321eed1cdaeb6115181d26001604051610a949190612156565b60405180910390a15b50505050505050565b610aae611450565b806005819055507ff7f62050dfde89f48d970e352bfbadc8c28af7a877f2b21fb99291b384dd63a581604051610ae49190611ac0565b60405180910390a150565b60025481565b610afd611450565b610b076000611513565b565b610b11611450565b806002819055507fb443c8bd39a1b60d415144f9148c6f90c2b68a553eb90c62cef5e44979db009d81604051610b479190611ac0565b60405180910390a150565b600080610b5d6115ea565b90508060000160009054906101000a900473ffffffffffffffffffffffffffffffffffffffff1691505090565b60035481565b6000683635c9adc5dea00000821015610bc3576064600183610bb29190612171565b610bbc91906121e2565b9050610c11565b69010f0cf064dd59200000821015610bf5576064600283610be49190612171565b610bee91906121e2565b9050610c11565b6064600583610c049190612171565b610c0e91906121e2565b90505b919050565b600254811015610c5b576040517f08c379a0000000000000000000000000000000000000000000000000000000008152600401610c529061225f565b60405180910390fd5b600354811115610ca0576040517f08c379a0000000000000000000000000000000000000000000000000000000008152600401610c97906122f1565b60405180910390fd5b6000610cab82610b90565b905060008183610cbb9190611dc5565b905060008054906101000a900473ffffffffffffffffffffffffffffffffffffffff1673ffffffffffffffffffffffffffffffffffffffff166323b872dd3330856040518463ffffffff1660e01b8152600401610d1a93929190612311565b6020604051808303816000875af1158015610d39573d6000803e3d6000fd5b505050506040513d601f19601f82011682018060405250810190610d5d9190611e5a565b610d9c576040517f08c379a0000000000000000000000000000000000000000000000000000000008152600401610d9390611f3f565b60405180910390fd5b60008054906101000a900473ffffffffffffffffffffffffffffffffffffffff1673ffffffffffffffffffffffffffffffffffffffff166323b872dd3330846040518463ffffffff1660e01b8152600401610df993929190612311565b6020604051808303816000875af1158015610e18573d6000803e3d6000fd5b505050506040513d601f19601f82011682018060405250810190610e3c9190611e5a565b610e7b576040517f08c379a0000000000000000000000000000000000000000000000000000000008152600401610e7290611ed3565b60405180910390fd5b80600160003373ffffffffffffffffffffffffffffffffffffffff1673ffffffffffffffffffffffffffffffffffffffff1681526020019081526020016000206000016000828254610ecd9190612348565b9250508190555042600160003373ffffffffffffffffffffffffffffffffffffffff1673ffffffffffffffffffffffffffffffffffffffff168152602001908152602001600020600101819055503373ffffffffffffffffffffffffffffffffffffffff167f91ede45f04a37a7c170f5c1207df3b6bc748dc1e04ad5e917a241d0f52feada3828442604051610f6593929190611f5f565b60405180910390a2505050565b6000600160008373ffffffffffffffffffffffffffffffffffffffff1673ffffffffffffffffffffffffffffffffffffffff168152602001908152602001600020600101549050919050565b8060008054906101000a900473ffffffffffffffffffffffffffffffffffffffff1673ffffffffffffffffffffffffffffffffffffffff166370a08231306040518263ffffffff1660e01b81526004016110189190611b2a565b602060405180830381865afa158015611035573d6000803e3d6000fd5b505050506040513d601f19601f820116820180604052508101906110599190612391565b101561109a576040517f08c379a000000000000000000000000000000000000000000000000000000000815260040161109190612430565b60405180910390fd5b80600160003373ffffffffffffffffffffffffffffffffffffffff1673ffffffffffffffffffffffffffffffffffffffff16815260200190815260200160002060000160008282546110ec9190612348565b925050819055503373ffffffffffffffffffffffffffffffffffffffff167f256642a903d86ec186d0ad895b74bdbe7f9e5a72db568f4c4d58c2fa38b39e1c824260405161113b929190611811565b60405180910390a250565b80600160003373ffffffffffffffffffffffffffffffffffffffff1673ffffffffffffffffffffffffffffffffffffffff1681526020019081526020016000206000015410156111cb576040517f08c379a00000000000000000000000000000000000000000000000000000000081526004016111c290611d76565b60405180910390fd5b80600160003373ffffffffffffffffffffffffffffffffffffffff1673ffffffffffffffffffffffffffffffffffffffff168152602001908152602001600020600001600082825461121d9190611dc5565b9250508190555060008054906101000a900473ffffffffffffffffffffffffffffffffffffffff1673ffffffffffffffffffffffffffffffffffffffff1663a9059cbb30836040518363ffffffff1660e01b815260040161127f929190611df9565b6020604051808303816000875af115801561129e573d6000803e3d6000fd5b505050506040513d601f19601f820116820180604052508101906112c29190611e5a565b611301576040517f08c379a00000000000000000000000000000000000000000000000000000000081526004016112f89061249c565b60405180910390fd5b3373ffffffffffffffffffffffffffffffffffffffff167f2b7f5e912953772fb4a8a4b18d548d073802c268a792527fe2c22fcb76606dad83834260405161134b939291906124bc565b60405180910390a25050565b61135f611450565b600073ffffffffffffffffffffffffffffffffffffffff168173ffffffffffffffffffffffffffffffffffffffff16036113d15760006040517f1e4fbdf70000000000000000000000000000000000000000000000000000000081526004016113c89190611b2a565b60405180910390fd5b6113da81611513565b50565b60055481565b60008054906101000a900473ffffffffffffffffffffffffffffffffffffffff1681565b61140f611450565b806004819055507f57a509cf8728c3d0b14ab31d86ea270320d70f454b1c64248b182864ae836b14816040516114459190611ac0565b60405180910390a150565b611458611612565b73ffffffffffffffffffffffffffffffffffffffff16611476610b52565b73ffffffffffffffffffffffffffffffffffffffff16146114d557611499611612565b6040517f118cdaa70000000000000000000000000000000000000000000000000000000081526004016114cc9190611b2a565b60405180910390fd5b565b60007ff0c57e16840df040f15088dc2f81fe391c3923bec73e23a9662efc9c229c6a00905090565b61150761161a565b6115108161165a565b50565b600061151d6115ea565b905060008160000160009054906101000a900473ffffffffffffffffffffffffffffffffffffffff169050828260000160006101000a81548173ffffffffffffffffffffffffffffffffffffffff021916908373ffffffffffffffffffffffffffffffffffffffff1602179055508273ffffffffffffffffffffffffffffffffffffffff168173ffffffffffffffffffffffffffffffffffffffff167f8be0079c531659141344cd1fd0a4f28419497f9722a3daafe3b4186f6b6457e060405160405180910390a3505050565b60007f9016d09d72d40fdae2fd8ceac6b6234c7706214fd39c1cd1e609a0528c199300905090565b600033905090565b6116226116e0565b611658576040517fd7e6bcf800000000000000000000000000000000000000000000000000000000815260040160405180910390fd5b565b61166261161a565b600073ffffffffffffffffffffffffffffffffffffffff168173ffffffffffffffffffffffffffffffffffffffff16036116d45760006040517f1e4fbdf70000000000000000000000000000000000000000000000000000000081526004016116cb9190611b2a565b60405180910390fd5b6116dd81611513565b50565b60006116ea6114d7565b60000160089054906101000a900460ff16905090565b6000604051905090565b600080fd5b600080fd5b6000819050919050565b61172781611714565b811461173257600080fd5b50565b6000813590506117448161171e565b92915050565b6000602082840312156117605761175f61170a565b5b600061176e84828501611735565b91505092915050565b600073ffffffffffffffffffffffffffffffffffffffff82169050919050565b60006117a282611777565b9050919050565b6117b281611797565b81146117bd57600080fd5b50565b6000813590506117cf816117a9565b92915050565b6000602082840312156117eb576117ea61170a565b5b60006117f9848285016117c0565b91505092915050565b61180b81611714565b82525050565b60006040820190506118266000830185611802565b6118336020830184611802565b9392505050565b600080fd5b600080fd5b6000601f19601f8301169050919050565b7f4e487b7100000000000000000000000000000000000000000000000000000000600052604160045260246000fd5b61188d82611844565b810181811067ffffffffffffffff821117156118ac576118ab611855565b5b80604052505050565b60006118bf611700565b90506118cb8282611884565b919050565b600067ffffffffffffffff8211156118eb576118ea611855565b5b6118f482611844565b9050602081019050919050565b82818337600083830152505050565b600061192361191e846118d0565b6118b5565b90508281526020810184848401111561193f5761193e61183f565b5b61194a848285611901565b509392505050565b600082601f8301126119675761196661183a565b5b8135611977848260208601611910565b91505092915050565b600067ffffffffffffffff82111561199b5761199a611855565b5b602082029050602081019050919050565b600080fd5b60006119c46119bf84611980565b6118b5565b905080838252602082019050602084028301858111156119e7576119e66119ac565b5b835b81811015611a1057806119fc8882611735565b8452602084019350506020810190506119e9565b5050509392505050565b600082601f830112611a2f57611a2e61183a565b5b8135611a3f8482602086016119b1565b91505092915050565b60008060408385031215611a5f57611a5e61170a565b5b600083013567ffffffffffffffff811115611a7d57611a7c61170f565b5b611a8985828601611952565b925050602083013567ffffffffffffffff811115611aaa57611aa961170f565b5b611ab685828601611a1a565b9150509250929050565b6000602082019050611ad56000830184611802565b92915050565b60008060408385031215611af257611af161170a565b5b6000611b00858286016117c0565b9250506020611b11858286016117c0565b9150509250929050565b611b2481611797565b82525050565b6000602082019050611b3f6000830184611b1b565b92915050565b60008060408385031215611b5c57611b5b61170a565b5b600083013567ffffffffffffffff811115611b7a57611b7961170f565b5b611b8685828601611952565b9250506020611b9785828601611735565b9150509250929050565b6000819050919050565b6000611bc6611bc1611bbc84611777565b611ba1565b611777565b9050919050565b6000611bd882611bab565b9050919050565b6000611bea82611bcd565b9050919050565b611bfa81611bdf565b82525050565b6000602082019050611c156000830184611bf1565b92915050565b600082825260208201905092915050565b7f576974686472617720616d6f756e7420697320746f6f206c6f77000000000000600082015250565b6000611c62601a83611c1b565b9150611c6d82611c2c565b602082019050919050565b60006020820190508181036000830152611c9181611c55565b9050919050565b7f576974686472617720616d6f756e742065786365656473206d6178696d756d2060008201527f6c696d6974000000000000000000000000000000000000000000000000000000602082015250565b6000611cf4602583611c1b565b9150611cff82611c98565b604082019050919050565b60006020820190508181036000830152611d2381611ce7565b9050919050565b7f496e73756666696369656e742062616c616e6365000000000000000000000000600082015250565b6000611d60601483611c1b565b9150611d6b82611d2a565b602082019050919050565b60006020820190508181036000830152611d8f81611d53565b9050919050565b7f4e487b7100000000000000000000000000000000000000000000000000000000600052601160045260246000fd5b6000611dd082611714565b9150611ddb83611714565b9250828203905081811115611df357611df2611d96565b5b92915050565b6000604082019050611e0e6000830185611b1b565b611e1b6020830184611802565b9392505050565b60008115159050919050565b611e3781611e22565b8114611e4257600080fd5b50565b600081519050611e5481611e2e565b92915050565b600060208284031215611e7057611e6f61170a565b5b6000611e7e84828501611e45565b91505092915050565b7f5472616e73666572206f66206e657420616d6f756e74206661696c6564000000600082015250565b6000611ebd601d83611c1b565b9150611ec882611e87565b602082019050919050565b60006020820190508181036000830152611eec81611eb0565b9050919050565b7f5472616e73666572206f6620666565206661696c656400000000000000000000600082015250565b6000611f29601683611c1b565b9150611f3482611ef3565b602082019050919050565b60006020820190508181036000830152611f5881611f1c565b9050919050565b6000606082019050611f746000830186611802565b611f816020830185611802565b611f8e6040830184611802565b949350505050565b600081519050919050565b60005b83811015611fbf578082015181840152602081019050611fa4565b60008484015250505050565b6000611fd682611f96565b611fe08185611c1b565b9350611ff0818560208601611fa1565b611ff981611844565b840191505092915050565b600081519050919050565b600082825260208201905092915050565b6000819050602082019050919050565b61203981611714565b82525050565b600061204b8383612030565b60208301905092915050565b6000602082019050919050565b600061206f82612004565b612079818561200f565b935061208483612020565b8060005b838110156120b557815161209c888261203f565b97506120a783612057565b925050600181019050612088565b5085935050505092915050565b600060608201905081810360008301526120dc8186611fcb565b905081810360208301526120f08185612064565b90506120ff6040830184611802565b949350505050565b6000819050919050565b600067ffffffffffffffff82169050919050565b600061214061213b61213684612107565b611ba1565b612111565b9050919050565b61215081612125565b82525050565b600060208201905061216b6000830184612147565b92915050565b600061217c82611714565b915061218783611714565b925082820261219581611714565b915082820484148315176121ac576121ab611d96565b5b5092915050565b7f4e487b7100000000000000000000000000000000000000000000000000000000600052601260045260246000fd5b60006121ed82611714565b91506121f883611714565b925082612208576122076121b3565b5b828204905092915050565b7f4465706f73697420616d6f756e7420697320746f6f206c6f7700000000000000600082015250565b6000612249601983611c1b565b915061225482612213565b602082019050919050565b600060208201905081810360008301526122788161223c565b9050919050565b7f4465706f73697420616d6f756e742065786365656473206d6178696d756d206c60008201527f696d697400000000000000000000000000000000000000000000000000000000602082015250565b60006122db602483611c1b565b91506122e68261227f565b604082019050919050565b6000602082019050818103600083015261230a816122ce565b9050919050565b60006060820190506123266000830186611b1b565b6123336020830185611b1b565b6123406040830184611802565b949350505050565b600061235382611714565b915061235e83611714565b925082820190508082111561237657612375611d96565b5b92915050565b60008151905061238b8161171e565b92915050565b6000602082840312156123a7576123a661170a565b5b60006123b58482850161237c565b91505092915050565b7f436173696e6f20646f6573206e6f74206861766520656e6f7567682066756e6460008201527f7320746f2070617920746865207072697a650000000000000000000000000000602082015250565b600061241a603283611c1b565b9150612425826123be565b604082019050919050565b600060208201905081810360008301526124498161240d565b9050919050565b7f5472616e73666572206f662062657420616d6f756e74206661696c6564000000600082015250565b6000612486601d83611c1b565b915061249182612450565b602082019050919050565b600060208201905081810360008301526124b581612479565b9050919050565b600060608201905081810360008301526124d68186611fcb565b90506124e56020830185611802565b6124f26040830184611802565b94935050505056fea264697066735822122050e8e648f4d175d444a7964df223b7f18719459f773f7373cecd8f00ab4af94b64736f6c63430008180033",
  "linkReferences": {},
  "deployedLinkReferences": {}
}